{
  "_format": "hh-sol-artifact-1",
  "contractName": "DatumTokenRewardVault",
  "sourceName": "contracts/DatumTokenRewardVault.sol",
  "abi": [
    {
      "inputs": [
        {
          "internalType": "address",
          "name": "_campaigns",
          "type": "address"
        }
      ],
      "stateMutability": "nonpayable",
      "type": "constructor"
    },
    {
      "inputs": [],
      "name": "ReentrancyGuardReentrantCall",
      "type": "error"
    },
    {
      "anonymous": false,
      "inputs": [
        {
          "indexed": true,
          "internalType": "uint256",
          "name": "campaignId",
          "type": "uint256"
        },
        {
          "indexed": true,
          "internalType": "address",
          "name": "token",
          "type": "address"
        }
      ],
      "name": "BudgetExhausted",
      "type": "event"
    },
    {
      "anonymous": false,
      "inputs": [
        {
          "indexed": true,
          "internalType": "uint256",
          "name": "campaignId",
          "type": "uint256"
        },
        {
          "indexed": true,
          "internalType": "address",
          "name": "token",
          "type": "address"
        },
        {
          "indexed": false,
          "internalType": "uint256",
          "name": "amount",
          "type": "uint256"
        }
      ],
      "name": "TokenBudgetDeposited",
      "type": "event"
    },
    {
      "anonymous": false,
      "inputs": [
        {
          "indexed": true,
          "internalType": "uint256",
          "name": "campaignId",
          "type": "uint256"
        },
        {
          "indexed": true,
          "internalType": "address",
          "name": "token",
          "type": "address"
        },
        {
          "indexed": true,
          "internalType": "address",
          "name": "advertiser",
          "type": "address"
        },
        {
          "indexed": false,
          "internalType": "uint256",
          "name": "amount",
          "type": "uint256"
        }
      ],
      "name": "TokenBudgetReclaimed",
      "type": "event"
    },
    {
      "anonymous": false,
      "inputs": [
        {
          "indexed": true,
          "internalType": "uint256",
          "name": "campaignId",
          "type": "uint256"
        },
        {
          "indexed": true,
          "internalType": "address",
          "name": "token",
          "type": "address"
        },
        {
          "indexed": true,
          "internalType": "address",
          "name": "user",
          "type": "address"
        },
        {
          "indexed": false,
          "internalType": "uint256",
          "name": "amount",
          "type": "uint256"
        }
      ],
      "name": "TokenRewardCredited",
      "type": "event"
    },
    {
      "anonymous": false,
      "inputs": [
        {
          "indexed": true,
          "internalType": "address",
          "name": "user",
          "type": "address"
        },
        {
          "indexed": true,
          "internalType": "address",
          "name": "token",
          "type": "address"
        },
        {
          "indexed": false,
          "internalType": "uint256",
          "name": "amount",
          "type": "uint256"
        }
      ],
      "name": "TokenWithdrawal",
      "type": "event"
    },
    {
      "inputs": [],
      "name": "acceptOwnership",
      "outputs": [],
      "stateMutability": "nonpayable",
      "type": "function"
    },
    {
      "inputs": [
        {
          "internalType": "address",
          "name": "",
          "type": "address"
        },
        {
          "internalType": "uint256",
          "name": "",
          "type": "uint256"
        }
      ],
      "name": "campaignTokenBudget",
      "outputs": [
        {
          "internalType": "uint256",
          "name": "",
          "type": "uint256"
        }
      ],
      "stateMutability": "view",
      "type": "function"
    },
    {
      "inputs": [],
      "name": "campaigns",
      "outputs": [
        {
          "internalType": "address",
          "name": "",
          "type": "address"
        }
      ],
      "stateMutability": "view",
      "type": "function"
    },
    {
      "inputs": [
        {
          "internalType": "uint256",
          "name": "campaignId",
          "type": "uint256"
        },
        {
          "internalType": "address",
          "name": "token",
          "type": "address"
        },
        {
          "internalType": "address",
          "name": "user",
          "type": "address"
        },
        {
          "internalType": "uint256",
          "name": "amount",
          "type": "uint256"
        }
      ],
      "name": "creditReward",
      "outputs": [],
      "stateMutability": "nonpayable",
      "type": "function"
    },
    {
      "inputs": [
        {
          "internalType": "uint256",
          "name": "campaignId",
          "type": "uint256"
        },
        {
          "internalType": "address",
          "name": "token",
          "type": "address"
        },
        {
          "internalType": "uint256",
          "name": "amount",
          "type": "uint256"
        }
      ],
      "name": "depositCampaignBudget",
      "outputs": [],
      "stateMutability": "nonpayable",
      "type": "function"
    },
    {
      "inputs": [],
      "name": "owner",
      "outputs": [
        {
          "internalType": "address",
          "name": "",
          "type": "address"
        }
      ],
      "stateMutability": "view",
      "type": "function"
    },
    {
      "inputs": [],
      "name": "pendingOwner",
      "outputs": [
        {
          "internalType": "address",
          "name": "",
          "type": "address"
        }
      ],
      "stateMutability": "view",
      "type": "function"
    },
    {
      "inputs": [
        {
          "internalType": "uint256",
          "name": "campaignId",
          "type": "uint256"
        },
        {
          "internalType": "address",
          "name": "token",
          "type": "address"
        }
      ],
      "name": "reclaimExpiredBudget",
      "outputs": [],
      "stateMutability": "nonpayable",
      "type": "function"
    },
    {
      "inputs": [
        {
          "internalType": "address",
          "name": "addr",
          "type": "address"
        }
      ],
      "name": "setSettlement",
      "outputs": [],
      "stateMutability": "nonpayable",
      "type": "function"
    },
    {
      "inputs": [],
      "name": "settlement",
      "outputs": [
        {
          "internalType": "address",
          "name": "",
          "type": "address"
        }
      ],
      "stateMutability": "view",
      "type": "function"
    },
    {
      "inputs": [
        {
          "internalType": "address",
          "name": "newOwner",
          "type": "address"
        }
      ],
      "name": "transferOwnership",
      "outputs": [],
      "stateMutability": "nonpayable",
      "type": "function"
    },
    {
      "inputs": [
        {
          "internalType": "address",
          "name": "",
          "type": "address"
        },
        {
          "internalType": "address",
          "name": "",
          "type": "address"
        }
      ],
      "name": "userTokenBalance",
      "outputs": [
        {
          "internalType": "uint256",
          "name": "",
          "type": "uint256"
        }
      ],
      "stateMutability": "view",
      "type": "function"
    },
    {
      "inputs": [
        {
          "internalType": "address",
          "name": "token",
          "type": "address"
        }
      ],
      "name": "withdraw",
      "outputs": [],
      "stateMutability": "nonpayable",
      "type": "function"
    },
    {
      "inputs": [
        {
          "internalType": "address",
          "name": "token",
          "type": "address"
        },
        {
          "internalType": "address",
          "name": "recipient",
          "type": "address"
        }
      ],
      "name": "withdrawTo",
      "outputs": [],
      "stateMutability": "nonpayable",
      "type": "function"
    },
    {
      "stateMutability": "payable",
      "type": "receive"
    }
  ],
  "bytecode": "0x6080346100cf57601f610d9e38819003918201601f19168301916001600160401b038311848410176100d4578084926020946040528339810103126100cf57516001600160a01b038116908190036100cf5760017f9b779b17422d0df92223018b32b4d1fa46e071723d6817e2486d003becc55f005580156100a45760018060a01b0319338160005416176000556003541617600355604051610cb390816100eb8239f35b60405162461bcd60e51b815260206004820152600360248201526204530360ec1b6044820152606490fd5b600080fd5b634e487b7160e01b600052604160045260246000fdfe604060808152600480361015610050575b361561001b57600080fd5b61004c915191829162461bcd60e51b8352820160609060208152600360208201526245303360e81b60408201520190565b0390fd5b6000803560e01c8063113e0e1e146108af578063511606301461088657806351cff8d9146107f457806361c06da0146105d55780636dce4ab01461049a57806379ba5097146104565780638da5cb5b1461042e5780638f1ba830146103ed5780638f4e6f37146103985780639f5eb263146101f1578063b47064c8146101a3578063cb5697f91461017a578063e30c39781461014d5763f2fde38b146100f65750610010565b3461014a57602036600319011261014a5761010f61090a565b81546001600160a01b0391906101289083163314610c09565b16610134811515610920565b6001600160601b0360a01b600154161760015580f35b80fd5b50823461017657816003193601126101765760015490516001600160a01b039091168152602090f35b5080fd5b50823461017657816003193601126101765760035490516001600160a01b039091168152602090f35b509190346101ed57816003193601126101ed5760209282916101c361090a565b6101cb6108ef565b6001600160a01b03918216845291865283832091168252845220549051908152f35b8280fd5b509190346101ed5760603660031901126101ed57803561020f6108ef565b6001600160a01b03908116926044359061022a851515610920565b811561036f576102a283600354169361028f89808a519760209889810190630f0a4bad60e21b82528b60248201526024815261026581610ada565b51915afa610271610b78565b9080610364575b61028190610bb8565b868082518301019101610bea565b1661029b811515610bb8565b3314610c09565b8551906323b872dd60e01b8252339082015230602482015281604482015282816064818a895af190811561035a577f9b4cfbfcc4ce08fa6aadacedc1c2f12a42feb009a593c482e4e15760bf45f0879495969161030691899161032d575b50610b46565b858752600583528087208588528352808720610323838254610952565b905551908152a380f35b61034d9150853d8711610353575b6103458183610b0c565b810190610b2e565b38610300565b503d61033b565b86513d89823e3d90fd5b508051871115610278565b606490602087519162461bcd60e51b8352820152600360248201526245313160e81b6044820152fd5b503461014a57602036600319011261014a576103b261090a565b81546001600160a01b0391906103cb9083163314610c09565b166103d7811515610920565b6001600160601b0360a01b600254161760025580f35b50823461017657806003193601126101765760209181906001600160a01b0361041461090a565b168152600584528181206024358252845220549051908152f35b508234610176578160031936011261017657905490516001600160a01b039091168152602090f35b503461014a578060031936011261014a576001546001600160a01b03811690610480338314610c09565b6001600160601b0360a01b91828454161783551660015580f35b509190346101ed57816003193601126101ed576104b561090a565b906104be6108ef565b916104c7610c3b565b6001600160a01b03906104dd8483161515610920565b169283855260209180835281862033875283528282872054948592610503841515610aa8565b878952808352848920338a528352848920899055845163a9059cbb60e01b81526001600160a01b03909216908201908152602081019390935291829081906040015b038189895af19081156105cb577f42856d0378dde02337bb59ae41747abc77ded8ebdbbc5cbdd1e53693b75549389392916105869188916105b45750610b46565b519283523392a360017f9b779b17422d0df92223018b32b4d1fa46e071723d6817e2486d003becc55f005580f35b61034d9150843d8611610353576103458183610b0c565b82513d88823e3d90fd5b509190346101ed57816003193601126101ed5780356105f26108ef565b6105fa610c3b565b60018060a01b039384600354169481519287808361066282808c60209a8b810190630f0a4bad60e21b82528d60248201526024815261063881610ada565b51915afa610644610b78565b90806107e9575b61065490610bb8565b888082518301019101610bea565b169861066f8a3314610c09565b855187810190631b06780160e21b82528960248201526024815261069281610ada565b51915afa61069e610b78565b90806107de575b6106ae90610bb8565b84818051810103126107da5784015160ff81168091036107da576003116107b15790869291169485885260058452818820858952845283828920549384926106f7841515610aa8565b888b5260058352848b20888c528352848b208b9055845163a9059cbb60e01b81526001600160a01b039092169082019081526020810193909352918290819060400103818b8a5af19081156107a7577f64d23aa9c0cb7fbead9d27587206de5bd9f7e4b16d7a452ee7e9337f7b078dd69493929161077b918a9161032d5750610b46565b51908152a460017f9b779b17422d0df92223018b32b4d1fa46e071723d6817e2486d003becc55f005580f35b82513d8a823e3d90fd5b825162461bcd60e51b8152808701859052600360248201526222991960e91b6044820152606490fd5b8880fd5b5080518511156106a5565b50805189111561064b565b509190346101ed576020806003193601126108825761081161090a565b610819610c3b565b60018060a01b031692838552828252808520338652825261054582828720548095610845821515610aa8565b87895280835284892033808b52908452858a208a9055855163a9059cbb60e01b815291820190815260208101929092529283918291604090910190565b8380fd5b50823461017657816003193601126101765760025490516001600160a01b039091168152602090f35b509034610176576080366003190112610176576108ca6108ef565b906044356001600160a01b0381168103610882576108ec926064359235610975565b80f35b602435906001600160a01b038216820361090557565b600080fd5b600435906001600160a01b038216820361090557565b1561092757565b60405162461bcd60e51b815260206004820152600360248201526204530360ec1b6044820152606490fd5b9190820180921161095f57565b634e487b7160e01b600052601160045260246000fd5b60025491939290916001600160a01b03919082163303610a7d5781169361099d851515610920565b1691600090838252602091600583526040908181208582528452818120548015610a7357808411610a45575b838103908111610a315791817feef079e7302f68b272311c26cd46b6c0a0c9997e4a5e42ddb574c1f37855e948959493888394526005865282822088835286528282205587815260048552818120898252855220610a28838254610952565b905551908152a4565b634e487b7160e01b82526011600452602482fd5b92508286867f0919b71a96bc05076a105f16273a74784c1862dbf0188eb009fa85ae6a8bd34b8480a36109c9565b5050505050505050565b60405162461bcd60e51b815260206004820152600360248201526245323560e81b6044820152606490fd5b15610aaf57565b60405162461bcd60e51b815260206004820152600360248201526245303360e81b6044820152606490fd5b6060810190811067ffffffffffffffff821117610af657604052565b634e487b7160e01b600052604160045260246000fd5b90601f8019910116810190811067ffffffffffffffff821117610af657604052565b90816020910312610905575180151581036109055790565b15610b4d57565b60405162461bcd60e51b815260206004820152600360248201526222981960e91b6044820152606490fd5b3d15610bb3573d9067ffffffffffffffff8211610af65760405191610ba7601f8201601f191660200184610b0c565b82523d6000602084013e565b606090565b15610bbf57565b60405162461bcd60e51b815260206004820152600360248201526245303160e81b6044820152606490fd5b9081602091031261090557516001600160a01b03811681036109055790565b15610c1057565b60405162461bcd60e51b815260206004820152600360248201526208a62760eb1b6044820152606490fd5b7f9b779b17422d0df92223018b32b4d1fa46e071723d6817e2486d003becc55f006002815414610c6b5760029055565b604051633ee5aeb560e01b8152600490fdfea2646970667358221220d5fa1fd7f0a27ed2b869748103f26bf5c32dd7f8e97efda4458e56fdfdcf55fd64736f6c63430008180033",
  "linkReferences": {},
  "deployedLinkReferences": {}
}