{
  "_format": "hh-sol-artifact-1",
  "contractName": "DatumCampaigns",
  "sourceName": "contracts/DatumCampaigns.sol",
  "abi": [
    {
      "inputs": [
        {
          "internalType": "uint256",
          "name": "_minimumCpmFloor",
          "type": "uint256"
        },
        {
          "internalType": "uint256",
          "name": "_pendingTimeoutBlocks",
          "type": "uint256"
        },
        {
          "internalType": "address",
          "name": "_campaignValidator",
          "type": "address"
        },
        {
          "internalType": "address",
          "name": "_pauseRegistry",
          "type": "address"
        }
      ],
      "stateMutability": "nonpayable",
      "type": "constructor"
    },
    {
      "anonymous": false,
      "inputs": [
        {
          "indexed": true,
          "internalType": "uint256",
          "name": "campaignId",
          "type": "uint256"
        }
      ],
      "name": "CampaignActivated",
      "type": "event"
    },
    {
      "anonymous": false,
      "inputs": [
        {
          "indexed": true,
          "internalType": "uint256",
          "name": "campaignId",
          "type": "uint256"
        },
        {
          "indexed": true,
          "internalType": "address",
          "name": "advertiser",
          "type": "address"
        },
        {
          "indexed": true,
          "internalType": "address",
          "name": "publisher",
          "type": "address"
        },
        {
          "indexed": false,
          "internalType": "uint256",
          "name": "budgetPlanck",
          "type": "uint256"
        },
        {
          "indexed": false,
          "internalType": "uint256",
          "name": "dailyCapPlanck",
          "type": "uint256"
        },
        {
          "indexed": false,
          "internalType": "uint256",
          "name": "bidCpmPlanck",
          "type": "uint256"
        },
        {
          "indexed": false,
          "internalType": "uint16",
          "name": "snapshotTakeRateBps",
          "type": "uint16"
        }
      ],
      "name": "CampaignCreated",
      "type": "event"
    },
    {
      "anonymous": false,
      "inputs": [
        {
          "indexed": true,
          "internalType": "uint256",
          "name": "campaignId",
          "type": "uint256"
        },
        {
          "indexed": false,
          "internalType": "bytes32",
          "name": "metadataHash",
          "type": "bytes32"
        }
      ],
      "name": "CampaignMetadataSet",
      "type": "event"
    },
    {
      "anonymous": false,
      "inputs": [
        {
          "indexed": true,
          "internalType": "uint256",
          "name": "campaignId",
          "type": "uint256"
        }
      ],
      "name": "CampaignPaused",
      "type": "event"
    },
    {
      "anonymous": false,
      "inputs": [
        {
          "indexed": true,
          "internalType": "uint256",
          "name": "campaignId",
          "type": "uint256"
        }
      ],
      "name": "CampaignResumed",
      "type": "event"
    },
    {
      "anonymous": false,
      "inputs": [
        {
          "indexed": false,
          "internalType": "string",
          "name": "name",
          "type": "string"
        },
        {
          "indexed": false,
          "internalType": "address",
          "name": "oldAddr",
          "type": "address"
        },
        {
          "indexed": false,
          "internalType": "address",
          "name": "newAddr",
          "type": "address"
        }
      ],
      "name": "ContractReferenceChanged",
      "type": "event"
    },
    {
      "inputs": [],
      "name": "acceptOwnership",
      "outputs": [],
      "stateMutability": "nonpayable",
      "type": "function"
    },
    {
      "inputs": [
        {
          "internalType": "uint256",
          "name": "campaignId",
          "type": "uint256"
        }
      ],
      "name": "activateCampaign",
      "outputs": [],
      "stateMutability": "nonpayable",
      "type": "function"
    },
    {
      "inputs": [],
      "name": "budgetLedger",
      "outputs": [
        {
          "internalType": "contract IDatumBudgetLedger",
          "name": "",
          "type": "address"
        }
      ],
      "stateMutability": "view",
      "type": "function"
    },
    {
      "inputs": [],
      "name": "campaignValidator",
      "outputs": [
        {
          "internalType": "contract IDatumCampaignValidator",
          "name": "",
          "type": "address"
        }
      ],
      "stateMutability": "view",
      "type": "function"
    },
    {
      "inputs": [
        {
          "internalType": "address",
          "name": "publisher",
          "type": "address"
        },
        {
          "internalType": "uint256",
          "name": "dailyCapPlanck",
          "type": "uint256"
        },
        {
          "internalType": "uint256",
          "name": "bidCpmPlanck",
          "type": "uint256"
        },
        {
          "internalType": "bytes32[]",
          "name": "requiredTags",
          "type": "bytes32[]"
        },
        {
          "internalType": "bool",
          "name": "requireZkProof",
          "type": "bool"
        },
        {
          "internalType": "address",
          "name": "rewardToken",
          "type": "address"
        },
        {
          "internalType": "uint256",
          "name": "rewardPerImpression",
          "type": "uint256"
        }
      ],
      "name": "createCampaign",
      "outputs": [
        {
          "internalType": "uint256",
          "name": "campaignId",
          "type": "uint256"
        }
      ],
      "stateMutability": "payable",
      "type": "function"
    },
    {
      "inputs": [
        {
          "internalType": "uint256",
          "name": "campaignId",
          "type": "uint256"
        }
      ],
      "name": "getCampaignAdvertiser",
      "outputs": [
        {
          "internalType": "address",
          "name": "",
          "type": "address"
        }
      ],
      "stateMutability": "view",
      "type": "function"
    },
    {
      "inputs": [
        {
          "internalType": "uint256",
          "name": "campaignId",
          "type": "uint256"
        }
      ],
      "name": "getCampaignForSettlement",
      "outputs": [
        {
          "internalType": "uint8",
          "name": "status",
          "type": "uint8"
        },
        {
          "internalType": "address",
          "name": "publisher",
          "type": "address"
        },
        {
          "internalType": "uint256",
          "name": "bidCpmPlanck",
          "type": "uint256"
        },
        {
          "internalType": "uint16",
          "name": "snapshotTakeRateBps",
          "type": "uint16"
        }
      ],
      "stateMutability": "view",
      "type": "function"
    },
    {
      "inputs": [
        {
          "internalType": "uint256",
          "name": "campaignId",
          "type": "uint256"
        }
      ],
      "name": "getCampaignMetadata",
      "outputs": [
        {
          "internalType": "bytes32",
          "name": "",
          "type": "bytes32"
        }
      ],
      "stateMutability": "view",
      "type": "function"
    },
    {
      "inputs": [
        {
          "internalType": "uint256",
          "name": "campaignId",
          "type": "uint256"
        }
      ],
      "name": "getCampaignPublisher",
      "outputs": [
        {
          "internalType": "address",
          "name": "",
          "type": "address"
        }
      ],
      "stateMutability": "view",
      "type": "function"
    },
    {
      "inputs": [
        {
          "internalType": "uint256",
          "name": "campaignId",
          "type": "uint256"
        }
      ],
      "name": "getCampaignPublisherTags",
      "outputs": [
        {
          "internalType": "bytes32[]",
          "name": "",
          "type": "bytes32[]"
        }
      ],
      "stateMutability": "view",
      "type": "function"
    },
    {
      "inputs": [
        {
          "internalType": "uint256",
          "name": "campaignId",
          "type": "uint256"
        }
      ],
      "name": "getCampaignRelaySigner",
      "outputs": [
        {
          "internalType": "address",
          "name": "",
          "type": "address"
        }
      ],
      "stateMutability": "view",
      "type": "function"
    },
    {
      "inputs": [
        {
          "internalType": "uint256",
          "name": "campaignId",
          "type": "uint256"
        }
      ],
      "name": "getCampaignRequiresZkProof",
      "outputs": [
        {
          "internalType": "bool",
          "name": "",
          "type": "bool"
        }
      ],
      "stateMutability": "view",
      "type": "function"
    },
    {
      "inputs": [
        {
          "internalType": "uint256",
          "name": "campaignId",
          "type": "uint256"
        }
      ],
      "name": "getCampaignRewardPerImpression",
      "outputs": [
        {
          "internalType": "uint256",
          "name": "",
          "type": "uint256"
        }
      ],
      "stateMutability": "view",
      "type": "function"
    },
    {
      "inputs": [
        {
          "internalType": "uint256",
          "name": "campaignId",
          "type": "uint256"
        }
      ],
      "name": "getCampaignRewardToken",
      "outputs": [
        {
          "internalType": "address",
          "name": "",
          "type": "address"
        }
      ],
      "stateMutability": "view",
      "type": "function"
    },
    {
      "inputs": [
        {
          "internalType": "uint256",
          "name": "campaignId",
          "type": "uint256"
        }
      ],
      "name": "getCampaignStatus",
      "outputs": [
        {
          "internalType": "enum IDatumCampaigns.CampaignStatus",
          "name": "",
          "type": "uint8"
        }
      ],
      "stateMutability": "view",
      "type": "function"
    },
    {
      "inputs": [
        {
          "internalType": "uint256",
          "name": "campaignId",
          "type": "uint256"
        }
      ],
      "name": "getCampaignTags",
      "outputs": [
        {
          "internalType": "bytes32[]",
          "name": "",
          "type": "bytes32[]"
        }
      ],
      "stateMutability": "view",
      "type": "function"
    },
    {
      "inputs": [
        {
          "internalType": "uint256",
          "name": "campaignId",
          "type": "uint256"
        }
      ],
      "name": "getPendingExpiryBlock",
      "outputs": [
        {
          "internalType": "uint256",
          "name": "",
          "type": "uint256"
        }
      ],
      "stateMutability": "view",
      "type": "function"
    },
    {
      "inputs": [],
      "name": "governanceContract",
      "outputs": [
        {
          "internalType": "address",
          "name": "",
          "type": "address"
        }
      ],
      "stateMutability": "view",
      "type": "function"
    },
    {
      "inputs": [],
      "name": "lifecycleContract",
      "outputs": [
        {
          "internalType": "address",
          "name": "",
          "type": "address"
        }
      ],
      "stateMutability": "view",
      "type": "function"
    },
    {
      "inputs": [],
      "name": "minimumCpmFloor",
      "outputs": [
        {
          "internalType": "uint256",
          "name": "",
          "type": "uint256"
        }
      ],
      "stateMutability": "view",
      "type": "function"
    },
    {
      "inputs": [],
      "name": "nextCampaignId",
      "outputs": [
        {
          "internalType": "uint256",
          "name": "",
          "type": "uint256"
        }
      ],
      "stateMutability": "view",
      "type": "function"
    },
    {
      "inputs": [],
      "name": "owner",
      "outputs": [
        {
          "internalType": "address",
          "name": "",
          "type": "address"
        }
      ],
      "stateMutability": "view",
      "type": "function"
    },
    {
      "inputs": [],
      "name": "pauseRegistry",
      "outputs": [
        {
          "internalType": "contract IDatumPauseRegistry",
          "name": "",
          "type": "address"
        }
      ],
      "stateMutability": "view",
      "type": "function"
    },
    {
      "inputs": [],
      "name": "pendingOwner",
      "outputs": [
        {
          "internalType": "address",
          "name": "",
          "type": "address"
        }
      ],
      "stateMutability": "view",
      "type": "function"
    },
    {
      "inputs": [],
      "name": "pendingTimeoutBlocks",
      "outputs": [
        {
          "internalType": "uint256",
          "name": "",
          "type": "uint256"
        }
      ],
      "stateMutability": "view",
      "type": "function"
    },
    {
      "inputs": [
        {
          "internalType": "address",
          "name": "addr",
          "type": "address"
        }
      ],
      "name": "setBudgetLedger",
      "outputs": [],
      "stateMutability": "nonpayable",
      "type": "function"
    },
    {
      "inputs": [
        {
          "internalType": "uint256",
          "name": "campaignId",
          "type": "uint256"
        },
        {
          "internalType": "enum IDatumCampaigns.CampaignStatus",
          "name": "newStatus",
          "type": "uint8"
        }
      ],
      "name": "setCampaignStatus",
      "outputs": [],
      "stateMutability": "nonpayable",
      "type": "function"
    },
    {
      "inputs": [
        {
          "internalType": "address",
          "name": "addr",
          "type": "address"
        }
      ],
      "name": "setCampaignValidator",
      "outputs": [],
      "stateMutability": "nonpayable",
      "type": "function"
    },
    {
      "inputs": [
        {
          "internalType": "address",
          "name": "addr",
          "type": "address"
        }
      ],
      "name": "setGovernanceContract",
      "outputs": [],
      "stateMutability": "nonpayable",
      "type": "function"
    },
    {
      "inputs": [
        {
          "internalType": "address",
          "name": "addr",
          "type": "address"
        }
      ],
      "name": "setLifecycleContract",
      "outputs": [],
      "stateMutability": "nonpayable",
      "type": "function"
    },
    {
      "inputs": [
        {
          "internalType": "uint256",
          "name": "campaignId",
          "type": "uint256"
        },
        {
          "internalType": "bytes32",
          "name": "metadataHash",
          "type": "bytes32"
        }
      ],
      "name": "setMetadata",
      "outputs": [],
      "stateMutability": "nonpayable",
      "type": "function"
    },
    {
      "inputs": [
        {
          "internalType": "address",
          "name": "addr",
          "type": "address"
        }
      ],
      "name": "setSettlementContract",
      "outputs": [],
      "stateMutability": "nonpayable",
      "type": "function"
    },
    {
      "inputs": [
        {
          "internalType": "uint256",
          "name": "campaignId",
          "type": "uint256"
        },
        {
          "internalType": "uint256",
          "name": "blockNum",
          "type": "uint256"
        }
      ],
      "name": "setTerminationBlock",
      "outputs": [],
      "stateMutability": "nonpayable",
      "type": "function"
    },
    {
      "inputs": [],
      "name": "settlementContract",
      "outputs": [
        {
          "internalType": "address",
          "name": "",
          "type": "address"
        }
      ],
      "stateMutability": "view",
      "type": "function"
    },
    {
      "inputs": [
        {
          "internalType": "uint256",
          "name": "campaignId",
          "type": "uint256"
        },
        {
          "internalType": "bool",
          "name": "pause",
          "type": "bool"
        }
      ],
      "name": "togglePause",
      "outputs": [],
      "stateMutability": "nonpayable",
      "type": "function"
    },
    {
      "inputs": [
        {
          "internalType": "address",
          "name": "newOwner",
          "type": "address"
        }
      ],
      "name": "transferOwnership",
      "outputs": [],
      "stateMutability": "nonpayable",
      "type": "function"
    }
  ],
  "bytecode": "0x60c034620000f557601f62001a4a38819003918201601f19168301916001600160401b03831184841017620000fa57808492608094604052833981010312620000f55780516020820151916200006660606200005e6040840162000110565b920162000110565b6001600160a01b0391821691906200008083151562000125565b16926200008f84151562000125565b60018060a01b0319923384600054161760005560805260a052816006541617600655600254161760025560016008556040516118f190816200015982396080518181816106fd01526108d4015260a0518181816103f7015281816109ca0152610a270152f35b600080fd5b634e487b7160e01b600052604160045260246000fd5b51906001600160a01b0382168203620000f557565b156200012d57565b60405162461bcd60e51b815260206004820152600360248201526204530360ec1b6044820152606490fdfe608080604052600436101561001357600080fd5b60003560e01c9081630f88c125146115625750806310be7d071461152b5780631129753f1461149557806311da40b21461146c5780631c82732d1461144357806325c1c08e146114175780633151609e146113a15780633719fd051461130b5780633c292eb4146112d75780633c5e7fe81461118d5780633ed089bb146111645780633f36f47f146110c7578063493f172614610f6f57806353e99f8c146107ec5780635a5dc015146107545780635b430110146107205780635c1c8a5e146106e55780636c19e004146106a757806376ed57bd146106125780637903a756146105f457806379ba5097146105af5780638b157ea4146105865780638da5cb5b1461055d5780638e3dfbbb146105315780638fc53c7f146104ef57806391329f4114610472578063916b9cbf14610443578063b172b2221461041a578063d4e3b0bd146103df578063e30c3978146103b6578063e3c76d2e14610336578063e681789d14610295578063ea42418b1461026c578063f00b29a914610238578063f2fde38b146101e15763f9072a56146101ab57600080fd5b346101dc5760203660031901126101dc57600435600052600d602052602060ff604060002054166040519015158152f35b600080fd5b346101dc5760203660031901126101dc576101fa611608565b6000546001600160a01b0391906102149083163314611640565b16610220811515611672565b6001600160601b0360a01b6001541617600155600080f35b346101dc5760203660031901126101dc57600435600052600f602052602060018060a01b0360406000205416604051908152f35b346101dc5760003660031901126101dc576003546040516001600160a01b039091168152602090f35b346101dc5760403660031901126101dc5760043560243560068110156101dc576102ca60018060a01b036005541633146117c6565b8160005260096020526102eb8160ff60056040600020015460101c166117f8565b1561030b576103099160005260096020526005604060002001611708565b005b60405162461bcd60e51b815260206004820152600360248201526245363760e81b6044820152606490fd5b346101dc5760203660031901126101dc576004356000526009602052604060002060058101549060ff8260101c169060068210156103a05760809261ffff91600460018060a01b036001830154169101549060405194855260208501526040840152166060820152f35b634e487b7160e01b600052602160045260246000fd5b346101dc5760003660031901126101dc576001546040516001600160a01b039091168152602090f35b346101dc5760003660031901126101dc5760206040517f00000000000000000000000000000000000000000000000000000000000000008152f35b346101dc5760003660031901126101dc576004546040516001600160a01b039091168152602090f35b346101dc5760203660031901126101dc5760043560005260096020526020600260406000200154604051908152f35b346101dc576020806003193601126101dc57600435600052600a6020526040600020906040519081602084549182815201936000526020600020916000905b8282106104d8576104d4856104c88189038261161e565b604051918291826115cc565b0390f35b8354865294850194600193840193909101906104b1565b346101dc5760403660031901126101dc5761051560018060a01b036005541633146117c6565b6004356000526009602052602435600360406000200155600080f35b346101dc5760203660031901126101dc57600435600052600e6020526020604060002054604051908152f35b346101dc5760003660031901126101dc576000546040516001600160a01b039091168152602090f35b346101dc5760003660031901126101dc576006546040516001600160a01b039091168152602090f35b346101dc5760003660031901126101dc576001546001600160a01b038116906105d9338314611640565b600080546001600160a01b0319908116909317905516600155005b346101dc5760003660031901126101dc576020600854604051908152f35b346101dc5760203660031901126101dc5761062b611608565b6000546001600160a01b039182916106469083163314611640565b1690610653821515611672565b60008051602061189c83398151915260a060055492604051906060825260096060830152686c6966656379636c6560b81b608083015284166020820152846040820152a16001600160a01b03191617600555005b346101dc5760203660031901126101dc57600435600052600960205260ff60056040600020015460101c1660405160068210156103a0576020918152f35b346101dc5760003660031901126101dc5760206040517f00000000000000000000000000000000000000000000000000000000000000008152f35b346101dc5760203660031901126101dc57600435600052600b602052602060018060a01b0360406000205416604051908152f35b346101dc5760203660031901126101dc5761076d611608565b6000546001600160a01b039182916107889083163314611640565b1690610795821515611672565b60008051602061189c83398151915260a0600754926040519060608252600c60608301526b313ab233b2ba2632b233b2b960a11b608083015284166020820152846040820152a16001600160a01b03191617600755005b60e03660031901126101dc57610800611608565b67ffffffffffffffff606435116101dc573660236064350112156101dc5767ffffffffffffffff60643560040135116101dc573660246064356004013560051b6064350101116101dc576084351515608435036101dc5760a4356001600160a01b03811681036101dc5760015460ff8160a01c16610f445760ff60a01b1916600160a01b17600155600254604051635c975abb60e01b815290602090829060049082906001600160a01b03165afa8015610c9557600090610f09575b6108c7915015611736565b6108d2341515611766565b7f000000000000000000000000000000000000000000000000000000000000000060443510610ede57602435151580610ed2575b15610ea75760086064356004013511610e7c5760065460405163145b2ed960e11b8152336004808301919091526001600160a01b0385811660248401526060604484015260648035909201359183018290529192909116906001600160fb1b03106101dc57816000916064356004013560051b6024606435016084840137816084816064356004013560051b81010301915afa928315610c9557600080600093600096610d8b575b5015610d6057600854926000198414610d4a57600184016008557f000000000000000000000000000000000000000000000000000000000000000043014311610d4a576040518060e081011067ffffffffffffffff60e083011117610c7f5760e0810160405233815260018060a01b03841660208201527f00000000000000000000000000000000000000000000000000000000000000004301604082015260006060820152604435608082015261ffff831660a0820152600060c082015284600052600960205260c060406000209160018060a01b038151166001600160601b0360a01b8454161783556001830160018060a01b036020830151166001600160601b0360a01b82541617905560408101516002840155606081015160038401556080810151600484015561ffff60a08201511661ffff19600585015416176005840155015160068110156103a0576005610b099201611708565b60643560040135610d08575b6000848152600b6020526040812080546001600160a01b0319166001600160a01b03909316929092179091555b8551811015610b955783600052600c6020526040600020908651811015610b7f57610b7960019260208360051b8a01015190611798565b01610b42565b634e487b7160e01b600052603260045260246000fd5b509092608435610cea575b6001600160a01b038116610ca1575b506007546001600160a01b031692833b156101dc5760006064946040519586809263854b73d760e01b8252876004830152346024830152602435604483015234905af18015610c9557610c65575b6020935061ffff6040519234845260243586850152604435604085015216606083015260018060a01b031690827f1962ec6d7de6e619bb05a0fbde69324a0833eb7d76082e8a83e96d91f528dd0560803393a46001805460ff60a01b19169055604051908152f35b67ffffffffffffffff8411610c7f57602093604052610bfd565b634e487b7160e01b600052604160045260246000fd5b6040513d6000823e3d90fd5b610cae60c4351515611766565b82600052600f60205260406000209060018060a01b03166001600160601b0360a01b825416179055601060205260c43560406000205583610baf565b82600052600d6020526040600020600160ff19825416179055610ba0565b60005b606435600401358110610d1e5750610b15565b60019085600052600a602052610d44604060002060248360051b60643501013590611798565b01610d0b565b634e487b7160e01b600052601160045260246000fd5b60405162461bcd60e51b8152602060048201526003602482015262229b1960e91b6044820152606490fd5b9550505090503d90816000853e610da2828561161e565b60808483810103126101dc57610db784611729565b9360208101519461ffff861686036101dc576040820151916001600160a01b03831683036101dc5760608101519467ffffffffffffffff86116101dc57808201601f8784010112156101dc57858201519567ffffffffffffffff8711610c7f578660051b60405197610e2c602083018a61161e565b8852602088019284016020828487010101116101dc5783820160200192915b60208282870101018410610e6857505050505094909294866109ae565b602080809486518152019401939250610e4b565b60405162461bcd60e51b8152602060048201526003602482015262229b1b60e91b6044820152606490fd5b60405162461bcd60e51b815260206004820152600360248201526222989960e91b6044820152606490fd5b50346024351115610906565b60405162461bcd60e51b815260206004820152600360248201526245323760e81b6044820152606490fd5b506020813d602011610f3c575b81610f236020938361161e565b810103126101dc57610f376108c791611729565b6108bc565b3d9150610f16565b60405162461bcd60e51b815260206004820152600360248201526245353760e81b6044820152606490fd5b346101dc576020806003193601126101dc57600254604051635c975abb60e01b81526004803593926001600160a01b0392918491839190829086165afa8015610c9557600090611091575b610fc5915015611736565b80600454163303611066576005908360005260098352610fee60406000209182541615156116a4565b019081549060ff8260101c1660068110156103a05761103c575062ff00001916620100001790557f141c887329aaf008f79cc3613bdf4b305d54d2f381909f35518966b3d6a79d56600080a2005b6064906040519062461bcd60e51b82526004820152600360248201526204532360ec1b6044820152fd5b60405162461bcd60e51b815260048101839052600360248201526245313960e81b6044820152606490fd5b508281813d83116110c0575b6110a7818361161e565b810103126101dc576110bb610fc591611729565b610fba565b503d61109d565b346101dc5760203660031901126101dc576110e0611608565b6000546001600160a01b039182916110fb9083163314611640565b1690611108821515611672565b60008051602061189c83398151915260a0600654926040519060608252601160608301527031b0b6b830b4b3b72b30b634b230ba37b960791b608083015284166020820152846040820152a16001600160a01b03191617600655005b346101dc5760003660031901126101dc576007546040516001600160a01b039091168152602090f35b346101dc5760403660031901126101dc5760043560243580151581036101dc5760008281526009602052604090208054600592906111e0906001600160a01b03166111d98115156116a4565b33146116d6565b1561125e5701805460ff8160101c1660068110156103a0576001036112335762ff00001916620200001790557fab1902ee37c92d1a78dda53814d64b815e7e3ee287d60843a3dbd6954e3206b4600080a2005b60405162461bcd60e51b815260206004820152600360248201526222991960e91b6044820152606490fd5b01805460ff8160101c1660068110156103a0576002036112ac5762ff00001916620100001790557f25128b02d37802123547e1526ab020238abf16bbc37a5bd0a918d5088b016e95600080a2005b60405162461bcd60e51b815260206004820152600360248201526245323360e81b6044820152606490fd5b346101dc5760203660031901126101dc576004356000526009602052602060018060a01b0360406000205416604051908152f35b346101dc5760203660031901126101dc57611324611608565b6000546001600160a01b0391829161133f9083163314611640565b169061134c821515611672565b60008051602061189c83398151915260a0600354926040519060608252600a6060830152691cd95d1d1b195b595b9d60b21b608083015284166020820152846040820152a16001600160a01b03191617600355005b346101dc5760403660031901126101dc576004357f496413280c9ae369a41c36a2dcbea255732cb1795fc743f9b2ba5bd8ef675a52602060243583600052600982526113ff60018060a01b03604060002054166111d98115156116a4565b83600052600e825280604060002055604051908152a2005b346101dc5760203660031901126101dc5760043560005260106020526020604060002054604051908152f35b346101dc5760003660031901126101dc576002546040516001600160a01b039091168152602090f35b346101dc5760003660031901126101dc576005546040516001600160a01b039091168152602090f35b346101dc5760203660031901126101dc576114ae611608565b6000546001600160a01b039182916114c99083163314611640565b16906114d6821515611672565b60008051602061189c83398151915260a0600454926040519060608252600a606083015269676f7665726e616e636560b01b608083015284166020820152846040820152a16001600160a01b03191617600455005b346101dc5760203660031901126101dc576004356000526009602052602060018060a01b0360016040600020015416604051908152f35b346101dc5760209060206003193601126101dc57600435600052600c602052604060002091825480835260208301936000526020600020916000905b8282106115b5576104d4856104c88189038261161e565b83548652948501946001938401939091019061159e565b602090602060408183019282815285518094520193019160005b8281106115f4575050505090565b8351855293810193928101926001016115e6565b600435906001600160a01b03821682036101dc57565b90601f8019910116810190811067ffffffffffffffff821117610c7f57604052565b1561164757565b60405162461bcd60e51b815260206004820152600360248201526208a62760eb1b6044820152606490fd5b1561167957565b60405162461bcd60e51b815260206004820152600360248201526204530360ec1b6044820152606490fd5b156116ab57565b60405162461bcd60e51b815260206004820152600360248201526245303160e81b6044820152606490fd5b156116dd57565b60405162461bcd60e51b815260206004820152600360248201526245323160e81b6044820152606490fd5b9060068110156103a05762ff000082549160101b169062ff00001916179055565b519081151582036101dc57565b1561173d57565b60405162461bcd60e51b81526020600482015260016024820152600560fc1b6044820152606490fd5b1561176d57565b60405162461bcd60e51b815260206004820152600360248201526245313160e81b6044820152606490fd5b80549068010000000000000000821015610c7f5760018201808255821015610b7f5760005260206000200155565b156117cd57565b60405162461bcd60e51b815260206004820152600360248201526245323560e81b6044820152606490fd5b60068110156103a057600181148080611888575b611880578061186d575b61185357600281148061185a575b6118535715908161183f575b5061183a57600090565b600190565b905060068110156103a05760051438611830565b5050600190565b5060068210156103a05760038214611824565b5060068210156103a05760048214611816565b505050600190565b5060068310156103a0576003831461180c56feebe74e19718ef75492bace9fc159e87f66e016e42705eec85971efa65967c9fca26469706673582212208f55f39ef8f8f74418fc795a2eaeed6873fcc70a5a2cd94c1dff72a6b51e261c64736f6c63430008180033",
  "linkReferences": {},
  "deployedLinkReferences": {}
}