{
  "_format": "hh-sol-artifact-1",
  "contractName": "DatumCampaigns",
  "sourceName": "contracts/DatumCampaigns.sol",
  "abi": [
    {
      "inputs": [
        {
          "internalType": "uint256",
          "name": "_minimumCpmFloor",
          "type": "uint256"
        },
        {
          "internalType": "uint256",
          "name": "_pendingTimeoutBlocks",
          "type": "uint256"
        },
        {
          "internalType": "address",
          "name": "_publishers",
          "type": "address"
        },
        {
          "internalType": "address",
          "name": "_pauseRegistry",
          "type": "address"
        }
      ],
      "stateMutability": "nonpayable",
      "type": "constructor"
    },
    {
      "anonymous": false,
      "inputs": [
        {
          "indexed": true,
          "internalType": "uint256",
          "name": "campaignId",
          "type": "uint256"
        }
      ],
      "name": "CampaignActivated",
      "type": "event"
    },
    {
      "anonymous": false,
      "inputs": [
        {
          "indexed": true,
          "internalType": "uint256",
          "name": "campaignId",
          "type": "uint256"
        },
        {
          "indexed": true,
          "internalType": "address",
          "name": "advertiser",
          "type": "address"
        },
        {
          "indexed": true,
          "internalType": "address",
          "name": "publisher",
          "type": "address"
        },
        {
          "indexed": false,
          "internalType": "uint256",
          "name": "budgetPlanck",
          "type": "uint256"
        },
        {
          "indexed": false,
          "internalType": "uint256",
          "name": "dailyCapPlanck",
          "type": "uint256"
        },
        {
          "indexed": false,
          "internalType": "uint256",
          "name": "bidCpmPlanck",
          "type": "uint256"
        },
        {
          "indexed": false,
          "internalType": "uint16",
          "name": "snapshotTakeRateBps",
          "type": "uint16"
        },
        {
          "indexed": false,
          "internalType": "uint8",
          "name": "categoryId",
          "type": "uint8"
        }
      ],
      "name": "CampaignCreated",
      "type": "event"
    },
    {
      "anonymous": false,
      "inputs": [
        {
          "indexed": true,
          "internalType": "uint256",
          "name": "campaignId",
          "type": "uint256"
        },
        {
          "indexed": false,
          "internalType": "bytes32",
          "name": "metadataHash",
          "type": "bytes32"
        }
      ],
      "name": "CampaignMetadataSet",
      "type": "event"
    },
    {
      "anonymous": false,
      "inputs": [
        {
          "indexed": true,
          "internalType": "uint256",
          "name": "campaignId",
          "type": "uint256"
        }
      ],
      "name": "CampaignPaused",
      "type": "event"
    },
    {
      "anonymous": false,
      "inputs": [
        {
          "indexed": true,
          "internalType": "uint256",
          "name": "campaignId",
          "type": "uint256"
        }
      ],
      "name": "CampaignResumed",
      "type": "event"
    },
    {
      "anonymous": false,
      "inputs": [
        {
          "indexed": false,
          "internalType": "string",
          "name": "name",
          "type": "string"
        },
        {
          "indexed": false,
          "internalType": "address",
          "name": "oldAddr",
          "type": "address"
        },
        {
          "indexed": false,
          "internalType": "address",
          "name": "newAddr",
          "type": "address"
        }
      ],
      "name": "ContractReferenceChanged",
      "type": "event"
    },
    {
      "inputs": [
        {
          "internalType": "uint256",
          "name": "campaignId",
          "type": "uint256"
        }
      ],
      "name": "activateCampaign",
      "outputs": [],
      "stateMutability": "nonpayable",
      "type": "function"
    },
    {
      "inputs": [],
      "name": "budgetLedger",
      "outputs": [
        {
          "internalType": "contract IDatumBudgetLedger",
          "name": "",
          "type": "address"
        }
      ],
      "stateMutability": "view",
      "type": "function"
    },
    {
      "inputs": [
        {
          "internalType": "address",
          "name": "publisher",
          "type": "address"
        },
        {
          "internalType": "uint256",
          "name": "dailyCapPlanck",
          "type": "uint256"
        },
        {
          "internalType": "uint256",
          "name": "bidCpmPlanck",
          "type": "uint256"
        },
        {
          "internalType": "uint8",
          "name": "categoryId",
          "type": "uint8"
        },
        {
          "internalType": "bytes32[]",
          "name": "requiredTags",
          "type": "bytes32[]"
        }
      ],
      "name": "createCampaign",
      "outputs": [
        {
          "internalType": "uint256",
          "name": "campaignId",
          "type": "uint256"
        }
      ],
      "stateMutability": "payable",
      "type": "function"
    },
    {
      "inputs": [
        {
          "internalType": "uint256",
          "name": "campaignId",
          "type": "uint256"
        }
      ],
      "name": "getCampaignTags",
      "outputs": [
        {
          "internalType": "bytes32[]",
          "name": "",
          "type": "bytes32[]"
        }
      ],
      "stateMutability": "view",
      "type": "function"
    },
    {
      "inputs": [
        {
          "internalType": "uint256",
          "name": "campaignId",
          "type": "uint256"
        }
      ],
      "name": "getCampaignAdvertiser",
      "outputs": [
        {
          "internalType": "address",
          "name": "",
          "type": "address"
        }
      ],
      "stateMutability": "view",
      "type": "function"
    },
    {
      "inputs": [
        {
          "internalType": "uint256",
          "name": "campaignId",
          "type": "uint256"
        }
      ],
      "name": "getCampaignForSettlement",
      "outputs": [
        {
          "internalType": "uint8",
          "name": "status",
          "type": "uint8"
        },
        {
          "internalType": "address",
          "name": "publisher",
          "type": "address"
        },
        {
          "internalType": "uint256",
          "name": "bidCpmPlanck",
          "type": "uint256"
        },
        {
          "internalType": "uint16",
          "name": "snapshotTakeRateBps",
          "type": "uint16"
        }
      ],
      "stateMutability": "view",
      "type": "function"
    },
    {
      "inputs": [
        {
          "internalType": "uint256",
          "name": "campaignId",
          "type": "uint256"
        }
      ],
      "name": "getCampaignPublisher",
      "outputs": [
        {
          "internalType": "address",
          "name": "",
          "type": "address"
        }
      ],
      "stateMutability": "view",
      "type": "function"
    },
    {
      "inputs": [
        {
          "internalType": "uint256",
          "name": "campaignId",
          "type": "uint256"
        }
      ],
      "name": "getCampaignStatus",
      "outputs": [
        {
          "internalType": "enum IDatumCampaigns.CampaignStatus",
          "name": "",
          "type": "uint8"
        }
      ],
      "stateMutability": "view",
      "type": "function"
    },
    {
      "inputs": [
        {
          "internalType": "uint256",
          "name": "campaignId",
          "type": "uint256"
        }
      ],
      "name": "getPendingExpiryBlock",
      "outputs": [
        {
          "internalType": "uint256",
          "name": "",
          "type": "uint256"
        }
      ],
      "stateMutability": "view",
      "type": "function"
    },
    {
      "inputs": [],
      "name": "governanceContract",
      "outputs": [
        {
          "internalType": "address",
          "name": "",
          "type": "address"
        }
      ],
      "stateMutability": "view",
      "type": "function"
    },
    {
      "inputs": [],
      "name": "lifecycleContract",
      "outputs": [
        {
          "internalType": "address",
          "name": "",
          "type": "address"
        }
      ],
      "stateMutability": "view",
      "type": "function"
    },
    {
      "inputs": [],
      "name": "minimumCpmFloor",
      "outputs": [
        {
          "internalType": "uint256",
          "name": "",
          "type": "uint256"
        }
      ],
      "stateMutability": "view",
      "type": "function"
    },
    {
      "inputs": [],
      "name": "nextCampaignId",
      "outputs": [
        {
          "internalType": "uint256",
          "name": "",
          "type": "uint256"
        }
      ],
      "stateMutability": "view",
      "type": "function"
    },
    {
      "inputs": [],
      "name": "owner",
      "outputs": [
        {
          "internalType": "address",
          "name": "",
          "type": "address"
        }
      ],
      "stateMutability": "view",
      "type": "function"
    },
    {
      "inputs": [],
      "name": "pauseRegistry",
      "outputs": [
        {
          "internalType": "contract IDatumPauseRegistry",
          "name": "",
          "type": "address"
        }
      ],
      "stateMutability": "view",
      "type": "function"
    },
    {
      "inputs": [],
      "name": "pendingTimeoutBlocks",
      "outputs": [
        {
          "internalType": "uint256",
          "name": "",
          "type": "uint256"
        }
      ],
      "stateMutability": "view",
      "type": "function"
    },
    {
      "inputs": [],
      "name": "publishers",
      "outputs": [
        {
          "internalType": "contract IDatumPublishers",
          "name": "",
          "type": "address"
        }
      ],
      "stateMutability": "view",
      "type": "function"
    },
    {
      "inputs": [
        {
          "internalType": "address",
          "name": "addr",
          "type": "address"
        }
      ],
      "name": "setBudgetLedger",
      "outputs": [],
      "stateMutability": "nonpayable",
      "type": "function"
    },
    {
      "inputs": [
        {
          "internalType": "uint256",
          "name": "campaignId",
          "type": "uint256"
        },
        {
          "internalType": "enum IDatumCampaigns.CampaignStatus",
          "name": "newStatus",
          "type": "uint8"
        }
      ],
      "name": "setCampaignStatus",
      "outputs": [],
      "stateMutability": "nonpayable",
      "type": "function"
    },
    {
      "inputs": [
        {
          "internalType": "address",
          "name": "addr",
          "type": "address"
        }
      ],
      "name": "setGovernanceContract",
      "outputs": [],
      "stateMutability": "nonpayable",
      "type": "function"
    },
    {
      "inputs": [
        {
          "internalType": "address",
          "name": "addr",
          "type": "address"
        }
      ],
      "name": "setLifecycleContract",
      "outputs": [],
      "stateMutability": "nonpayable",
      "type": "function"
    },
    {
      "inputs": [
        {
          "internalType": "uint256",
          "name": "campaignId",
          "type": "uint256"
        },
        {
          "internalType": "bytes32",
          "name": "metadataHash",
          "type": "bytes32"
        }
      ],
      "name": "setMetadata",
      "outputs": [],
      "stateMutability": "nonpayable",
      "type": "function"
    },
    {
      "inputs": [
        {
          "internalType": "address",
          "name": "addr",
          "type": "address"
        }
      ],
      "name": "setSettlementContract",
      "outputs": [],
      "stateMutability": "nonpayable",
      "type": "function"
    },
    {
      "inputs": [
        {
          "internalType": "uint256",
          "name": "campaignId",
          "type": "uint256"
        },
        {
          "internalType": "uint256",
          "name": "blockNum",
          "type": "uint256"
        }
      ],
      "name": "setTerminationBlock",
      "outputs": [],
      "stateMutability": "nonpayable",
      "type": "function"
    },
    {
      "inputs": [],
      "name": "settlementContract",
      "outputs": [
        {
          "internalType": "address",
          "name": "",
          "type": "address"
        }
      ],
      "stateMutability": "view",
      "type": "function"
    },
    {
      "inputs": [
        {
          "internalType": "uint256",
          "name": "campaignId",
          "type": "uint256"
        },
        {
          "internalType": "bool",
          "name": "pause",
          "type": "bool"
        }
      ],
      "name": "togglePause",
      "outputs": [],
      "stateMutability": "nonpayable",
      "type": "function"
    },
    {
      "inputs": [
        {
          "internalType": "address",
          "name": "newOwner",
          "type": "address"
        }
      ],
      "name": "transferOwnership",
      "outputs": [],
      "stateMutability": "nonpayable",
      "type": "function"
    }
  ],
  "bytecode": "0x60c0346100ea57601f620012e638819003918201601f19168301916001600160401b038311848410176100ef578084926080946040528339810103126100ea57805160208201519161005f606061005860408401610105565b9201610105565b6001600160a01b039182169190610077831515610119565b1692610084841515610119565b60018060a01b0319923384600054161760005560805260a0528160055416176005556001541617600155600160075560405161119a90816200014c823960805181818161049201526105b6015260a0518181816102a30152818161066401526106c40152f35b600080fd5b634e487b7160e01b600052604160045260246000fd5b51906001600160a01b03821682036100ea57565b1561012057565b60405162461bcd60e51b815260206004820152600360248201526204530360ec1b6044820152606490fdfe608080604052600436101561001357600080fd5b60003560e01c90816310be7d0714610f72575080631129753f14610edc57806311da40b214610eb357806316f114aa14610e8a5780631c82732d14610e615780633151609e14610df85780633719fd0514610d625780633c292eb414610d2e5780633c5e7fe814610be45780633ed089bb14610bbb578063493f172614610a635780634edef03b1461054d5780635a5dc015146104b55780635c1c8a5e1461047a5780636c19e0041461043c57806376ed57bd146103a75780637903a756146103895780638da5cb5b146103605780638fc53c7f1461031e578063916b9cbf146102ef578063b172b222146102c6578063d4e3b0bd1461028b578063e3c76d2e1461020b578063e681789d146101bb578063ea42418b146101925763f2fde38b1461013d57600080fd5b3461018d57602036600319011261018d57610156610fa5565b600054906001600160a01b03906101703383851614610fbb565b169061017d821515610fed565b6001600160a01b03191617600055005b600080fd5b3461018d57600036600319011261018d576002546040516001600160a01b039091168152602090f35b3461018d57604036600319011261018d57602435600681101561018d57610209906101f160018060a01b03600454163314611112565b60043560005260086020526005604060002001611083565b005b3461018d57602036600319011261018d576004356000526008602052604060002060058101549060ff8260101c169060068210156102755760809261ffff91600460018060a01b036001830154169101549060405194855260208501526040840152166060820152f35b634e487b7160e01b600052602160045260246000fd5b3461018d57600036600319011261018d5760206040517f00000000000000000000000000000000000000000000000000000000000000008152f35b3461018d57600036600319011261018d576003546040516001600160a01b039091168152602090f35b3461018d57602036600319011261018d5760043560005260086020526020600260406000200154604051908152f35b3461018d57604036600319011261018d5761034460018060a01b03600454163314611112565b6004356000526008602052602435600360406000200155600080f35b3461018d57600036600319011261018d576000546040516001600160a01b039091168152602090f35b3461018d57600036600319011261018d576020600754604051908152f35b3461018d57602036600319011261018d576103c0610fa5565b6000546001600160a01b039182916103db9083163314610fbb565b16906103e8821515610fed565b60008051602061114583398151915260a060045492604051906060825260096060830152686c6966656379636c6560b81b608083015284166020820152846040820152a16001600160a01b03191617600455005b3461018d57602036600319011261018d57600435600052600860205260ff60056040600020015460101c166040516006821015610275576020918152f35b3461018d57600036600319011261018d5760206040517f00000000000000000000000000000000000000000000000000000000000000008152f35b3461018d57602036600319011261018d576104ce610fa5565b6000546001600160a01b039182916104e99083163314610fbb565b16906104f6821515610fed565b60008051602061114583398151915260a0600654926040519060608252600c60608301526b313ab233b2ba2632b233b2b960a11b608083015284166020820152846040820152a16001600160a01b03191617600655005b608036600319011261018d57610561610fa5565b6064359060ff8216820361018d57600154604051635c975abb60e01b815290602090829060049082906001600160a01b03165afa801561089b57600090610a28575b6105ae9150156110d3565b34156109fd577f0000000000000000000000000000000000000000000000000000000000000000604435106109d2576024351515806109c6575b1561099b576001600160a01b038116156109935760055460405163116087c160e31b81526001600160a01b038381166004830152909160c09183916024918391165afa90811561089b576000916108e8575b5060a0810151156108bd576020015161ffff165b6007549160001983146108a757600183016007557f0000000000000000000000000000000000000000000000000000000000000000430143116108a7576040518061010081011067ffffffffffffffff6101008301111761088557610100810160405233815260018060a01b03821660208201527f00000000000000000000000000000000000000000000000000000000000000004301604082015260006060820152604435608082015261ffff831660a082015260c081016000815260e082019060ff8716825285600052600860205261ffff60a060056040600020600180841b038751166bffffffffffffffffffffffff841b90818354161782556001820190600180861b0360208a01511690825416179055604087015160028201556060870151600382015560808701516004820155019401511661ffff19845416178355516006811015610275576107a49083611083565b51815463ff000000191660189190911b63ff000000161790556006546001600160a01b0316803b1561018d5760006064916040519283809263854b73d760e01b8252886004830152346024830152602435604483015234905af1801561089b5761086c575b5060ff60209461ffff6040519434865260243588870152604435604087015216606085015216608083015260018060a01b031690827f1394d1204feae29437f65e7727db17277231174bdfd27a52881d29547750a5c260a03393a4604051908152f35b67ffffffffffffffff81116108855760405260ff610809565b634e487b7160e01b600052604160045260246000fd5b6040513d6000823e3d90fd5b634e487b7160e01b600052601160045260246000fd5b60405162461bcd60e51b815260206004820152600360248201526245313760e81b6044820152606490fd5b905060c0813d60c01161098b575b8161090360c093836110a4565b8101031261018d576040519060c0820182811067ffffffffffffffff8211176108855760405280516001600160a01b038116810361018d576109809160a091845261095060208201611103565b602085015261096160408201611103565b60408501526060810151606085015260808101516080850152016110c6565b60a08201528361063a565b3d91506108f6565b61138861064e565b60405162461bcd60e51b815260206004820152600360248201526222989960e91b6044820152606490fd5b503460243511156105e8565b60405162461bcd60e51b815260206004820152600360248201526245323760e81b6044820152606490fd5b60405162461bcd60e51b815260206004820152600360248201526245313160e81b6044820152606490fd5b506020813d602011610a5b575b81610a42602093836110a4565b8101031261018d57610a566105ae916110c6565b6105a3565b3d9150610a35565b3461018d5760208060031936011261018d57600154604051635c975abb60e01b81526004803593926001600160a01b0392918491839190829086165afa801561089b57600090610b85575b610ab99150156110d3565b80600354163303610b5a576005908360005260088352610ae2604060002091825416151561101f565b019081549060ff8260101c16600681101561027557610b30575062ff00001916620100001790557f141c887329aaf008f79cc3613bdf4b305d54d2f381909f35518966b3d6a79d56600080a2005b6064906040519062461bcd60e51b82526004820152600360248201526204532360ec1b6044820152fd5b60405162461bcd60e51b815260048101839052600360248201526245313960e81b6044820152606490fd5b508281813d8311610bb4575b610b9b81836110a4565b8101031261018d57610baf610ab9916110c6565b610aae565b503d610b91565b3461018d57600036600319011261018d576006546040516001600160a01b039091168152602090f35b3461018d57604036600319011261018d57600435602435801515810361018d576000828152600860205260409020805460059290610c37906001600160a01b0316610c3081151561101f565b3314611051565b15610cb55701805460ff8160101c16600681101561027557600103610c8a5762ff00001916620200001790557fab1902ee37c92d1a78dda53814d64b815e7e3ee287d60843a3dbd6954e3206b4600080a2005b60405162461bcd60e51b815260206004820152600360248201526222991960e91b6044820152606490fd5b01805460ff8160101c16600681101561027557600203610d035762ff00001916620100001790557f25128b02d37802123547e1526ab020238abf16bbc37a5bd0a918d5088b016e95600080a2005b60405162461bcd60e51b815260206004820152600360248201526245323360e81b6044820152606490fd5b3461018d57602036600319011261018d576004356000526008602052602060018060a01b0360406000205416604051908152f35b3461018d57602036600319011261018d57610d7b610fa5565b6000546001600160a01b03918291610d969083163314610fbb565b1690610da3821515610fed565b60008051602061114583398151915260a0600254926040519060608252600a6060830152691cd95d1d1b195b595b9d60b21b608083015284166020820152846040820152a16001600160a01b03191617600255005b3461018d57604036600319011261018d57600435600081815260086020526040902054610e33906001600160a01b0316610c3081151561101f565b7f496413280c9ae369a41c36a2dcbea255732cb1795fc743f9b2ba5bd8ef675a5260206040516024358152a2005b3461018d57600036600319011261018d576001546040516001600160a01b039091168152602090f35b3461018d57600036600319011261018d576005546040516001600160a01b039091168152602090f35b3461018d57600036600319011261018d576004546040516001600160a01b039091168152602090f35b3461018d57602036600319011261018d57610ef5610fa5565b6000546001600160a01b03918291610f109083163314610fbb565b1690610f1d821515610fed565b60008051602061114583398151915260a0600354926040519060608252600a606083015269676f7665726e616e636560b01b608083015284166020820152846040820152a16001600160a01b03191617600355005b3461018d57602036600319011261018d576020906004356000526008825260018060a01b03600160406000200154168152f35b600435906001600160a01b038216820361018d57565b15610fc257565b60405162461bcd60e51b815260206004820152600360248201526208a62760eb1b6044820152606490fd5b15610ff457565b60405162461bcd60e51b815260206004820152600360248201526204530360ec1b6044820152606490fd5b1561102657565b60405162461bcd60e51b815260206004820152600360248201526245303160e81b6044820152606490fd5b1561105857565b60405162461bcd60e51b815260206004820152600360248201526245323160e81b6044820152606490fd5b9060068110156102755762ff000082549160101b169062ff00001916179055565b90601f8019910116810190811067ffffffffffffffff82111761088557604052565b5190811515820361018d57565b156110da57565b60405162461bcd60e51b81526020600482015260016024820152600560fc1b6044820152606490fd5b519061ffff8216820361018d57565b1561111957565b60405162461bcd60e51b815260206004820152600360248201526245323560e81b6044820152606490fdfeebe74e19718ef75492bace9fc159e87f66e016e42705eec85971efa65967c9fca264697066735822122004e7240cd1bbd9145e28d74d667ebd05fdd1733e4fab30ecc74ab2d47deb830d64736f6c63430008180033",
  "linkReferences": {},
  "deployedLinkReferences": {}
}