{
  "_format": "hh-sol-artifact-1",
  "contractName": "DatumSettlement",
  "sourceName": "contracts/DatumSettlement.sol",
  "abi": [
    {
      "inputs": [
        {
          "internalType": "address",
          "name": "_pauseRegistry",
          "type": "address"
        }
      ],
      "stateMutability": "nonpayable",
      "type": "constructor"
    },
    {
      "inputs": [
        {
          "internalType": "address",
          "name": "owner",
          "type": "address"
        }
      ],
      "name": "OwnableInvalidOwner",
      "type": "error"
    },
    {
      "inputs": [
        {
          "internalType": "address",
          "name": "account",
          "type": "address"
        }
      ],
      "name": "OwnableUnauthorizedAccount",
      "type": "error"
    },
    {
      "inputs": [],
      "name": "ReentrancyGuardReentrantCall",
      "type": "error"
    },
    {
      "anonymous": false,
      "inputs": [
        {
          "indexed": true,
          "internalType": "uint256",
          "name": "campaignId",
          "type": "uint256"
        },
        {
          "indexed": true,
          "internalType": "address",
          "name": "user",
          "type": "address"
        },
        {
          "indexed": false,
          "internalType": "uint256",
          "name": "nonce",
          "type": "uint256"
        },
        {
          "indexed": false,
          "internalType": "uint8",
          "name": "reasonCode",
          "type": "uint8"
        }
      ],
      "name": "ClaimRejected",
      "type": "event"
    },
    {
      "anonymous": false,
      "inputs": [
        {
          "indexed": true,
          "internalType": "uint256",
          "name": "campaignId",
          "type": "uint256"
        },
        {
          "indexed": true,
          "internalType": "address",
          "name": "user",
          "type": "address"
        },
        {
          "indexed": true,
          "internalType": "address",
          "name": "publisher",
          "type": "address"
        },
        {
          "indexed": false,
          "internalType": "uint256",
          "name": "eventCount",
          "type": "uint256"
        },
        {
          "indexed": false,
          "internalType": "uint256",
          "name": "ratePlanck",
          "type": "uint256"
        },
        {
          "indexed": false,
          "internalType": "uint8",
          "name": "actionType",
          "type": "uint8"
        },
        {
          "indexed": false,
          "internalType": "uint256",
          "name": "nonce",
          "type": "uint256"
        },
        {
          "indexed": false,
          "internalType": "uint256",
          "name": "publisherPayment",
          "type": "uint256"
        },
        {
          "indexed": false,
          "internalType": "uint256",
          "name": "userPayment",
          "type": "uint256"
        },
        {
          "indexed": false,
          "internalType": "uint256",
          "name": "protocolFee",
          "type": "uint256"
        }
      ],
      "name": "ClaimSettled",
      "type": "event"
    },
    {
      "anonymous": false,
      "inputs": [
        {
          "indexed": true,
          "internalType": "address",
          "name": "previousOwner",
          "type": "address"
        },
        {
          "indexed": true,
          "internalType": "address",
          "name": "newOwner",
          "type": "address"
        }
      ],
      "name": "OwnershipTransferStarted",
      "type": "event"
    },
    {
      "anonymous": false,
      "inputs": [
        {
          "indexed": true,
          "internalType": "address",
          "name": "previousOwner",
          "type": "address"
        },
        {
          "indexed": true,
          "internalType": "address",
          "name": "newOwner",
          "type": "address"
        }
      ],
      "name": "OwnershipTransferred",
      "type": "event"
    },
    {
      "anonymous": false,
      "inputs": [
        {
          "indexed": false,
          "internalType": "address",
          "name": "budgetLedger",
          "type": "address"
        },
        {
          "indexed": false,
          "internalType": "address",
          "name": "paymentVault",
          "type": "address"
        },
        {
          "indexed": false,
          "internalType": "address",
          "name": "lifecycle",
          "type": "address"
        },
        {
          "indexed": false,
          "internalType": "address",
          "name": "relay",
          "type": "address"
        }
      ],
      "name": "SettlementConfigured",
      "type": "event"
    },
    {
      "inputs": [],
      "name": "MAX_USER_EVENTS",
      "outputs": [
        {
          "internalType": "uint256",
          "name": "",
          "type": "uint256"
        }
      ],
      "stateMutability": "view",
      "type": "function"
    },
    {
      "inputs": [],
      "name": "acceptOwnership",
      "outputs": [],
      "stateMutability": "nonpayable",
      "type": "function"
    },
    {
      "inputs": [],
      "name": "attestationVerifier",
      "outputs": [
        {
          "internalType": "address",
          "name": "",
          "type": "address"
        }
      ],
      "stateMutability": "view",
      "type": "function"
    },
    {
      "inputs": [],
      "name": "budgetLedger",
      "outputs": [
        {
          "internalType": "address",
          "name": "",
          "type": "address"
        }
      ],
      "stateMutability": "view",
      "type": "function"
    },
    {
      "inputs": [],
      "name": "campaigns",
      "outputs": [
        {
          "internalType": "address",
          "name": "",
          "type": "address"
        }
      ],
      "stateMutability": "view",
      "type": "function"
    },
    {
      "inputs": [],
      "name": "claimValidator",
      "outputs": [
        {
          "internalType": "address",
          "name": "",
          "type": "address"
        }
      ],
      "stateMutability": "view",
      "type": "function"
    },
    {
      "inputs": [],
      "name": "clickRegistry",
      "outputs": [
        {
          "internalType": "address",
          "name": "",
          "type": "address"
        }
      ],
      "stateMutability": "view",
      "type": "function"
    },
    {
      "inputs": [
        {
          "internalType": "address",
          "name": "_budgetLedger",
          "type": "address"
        },
        {
          "internalType": "address",
          "name": "_paymentVault",
          "type": "address"
        },
        {
          "internalType": "address",
          "name": "_lifecycle",
          "type": "address"
        },
        {
          "internalType": "address",
          "name": "_relay",
          "type": "address"
        }
      ],
      "name": "configure",
      "outputs": [],
      "stateMutability": "nonpayable",
      "type": "function"
    },
    {
      "inputs": [
        {
          "internalType": "address",
          "name": "",
          "type": "address"
        },
        {
          "internalType": "uint256",
          "name": "",
          "type": "uint256"
        },
        {
          "internalType": "uint8",
          "name": "",
          "type": "uint8"
        }
      ],
      "name": "lastClaimHash",
      "outputs": [
        {
          "internalType": "bytes32",
          "name": "",
          "type": "bytes32"
        }
      ],
      "stateMutability": "view",
      "type": "function"
    },
    {
      "inputs": [
        {
          "internalType": "address",
          "name": "",
          "type": "address"
        },
        {
          "internalType": "uint256",
          "name": "",
          "type": "uint256"
        },
        {
          "internalType": "uint8",
          "name": "",
          "type": "uint8"
        }
      ],
      "name": "lastNonce",
      "outputs": [
        {
          "internalType": "uint256",
          "name": "",
          "type": "uint256"
        }
      ],
      "stateMutability": "view",
      "type": "function"
    },
    {
      "inputs": [
        {
          "internalType": "address",
          "name": "",
          "type": "address"
        },
        {
          "internalType": "uint256",
          "name": "",
          "type": "uint256"
        },
        {
          "internalType": "uint8",
          "name": "",
          "type": "uint8"
        }
      ],
      "name": "lastSettlementBlock",
      "outputs": [
        {
          "internalType": "uint256",
          "name": "",
          "type": "uint256"
        }
      ],
      "stateMutability": "view",
      "type": "function"
    },
    {
      "inputs": [],
      "name": "lifecycle",
      "outputs": [
        {
          "internalType": "address",
          "name": "",
          "type": "address"
        }
      ],
      "stateMutability": "view",
      "type": "function"
    },
    {
      "inputs": [],
      "name": "maxSettlementPerBlock",
      "outputs": [
        {
          "internalType": "uint256",
          "name": "",
          "type": "uint256"
        }
      ],
      "stateMutability": "view",
      "type": "function"
    },
    {
      "inputs": [],
      "name": "minClaimInterval",
      "outputs": [
        {
          "internalType": "uint16",
          "name": "",
          "type": "uint16"
        }
      ],
      "stateMutability": "view",
      "type": "function"
    },
    {
      "inputs": [],
      "name": "minReputationScore",
      "outputs": [
        {
          "internalType": "uint16",
          "name": "",
          "type": "uint16"
        }
      ],
      "stateMutability": "view",
      "type": "function"
    },
    {
      "inputs": [],
      "name": "nullifierRegistry",
      "outputs": [
        {
          "internalType": "address",
          "name": "",
          "type": "address"
        }
      ],
      "stateMutability": "view",
      "type": "function"
    },
    {
      "inputs": [],
      "name": "owner",
      "outputs": [
        {
          "internalType": "address",
          "name": "",
          "type": "address"
        }
      ],
      "stateMutability": "view",
      "type": "function"
    },
    {
      "inputs": [],
      "name": "pauseRegistry",
      "outputs": [
        {
          "internalType": "contract IDatumPauseRegistry",
          "name": "",
          "type": "address"
        }
      ],
      "stateMutability": "view",
      "type": "function"
    },
    {
      "inputs": [],
      "name": "paymentVault",
      "outputs": [
        {
          "internalType": "address",
          "name": "",
          "type": "address"
        }
      ],
      "stateMutability": "view",
      "type": "function"
    },
    {
      "inputs": [],
      "name": "pendingOwner",
      "outputs": [
        {
          "internalType": "address",
          "name": "",
          "type": "address"
        }
      ],
      "stateMutability": "view",
      "type": "function"
    },
    {
      "inputs": [],
      "name": "publisherReputation",
      "outputs": [
        {
          "internalType": "address",
          "name": "",
          "type": "address"
        }
      ],
      "stateMutability": "view",
      "type": "function"
    },
    {
      "inputs": [],
      "name": "publisherStake",
      "outputs": [
        {
          "internalType": "address",
          "name": "",
          "type": "address"
        }
      ],
      "stateMutability": "view",
      "type": "function"
    },
    {
      "inputs": [],
      "name": "publishers",
      "outputs": [
        {
          "internalType": "address",
          "name": "",
          "type": "address"
        }
      ],
      "stateMutability": "view",
      "type": "function"
    },
    {
      "inputs": [],
      "name": "rateLimiter",
      "outputs": [
        {
          "internalType": "address",
          "name": "",
          "type": "address"
        }
      ],
      "stateMutability": "view",
      "type": "function"
    },
    {
      "inputs": [],
      "name": "relayContract",
      "outputs": [
        {
          "internalType": "address",
          "name": "",
          "type": "address"
        }
      ],
      "stateMutability": "view",
      "type": "function"
    },
    {
      "inputs": [],
      "name": "renounceOwnership",
      "outputs": [],
      "stateMutability": "nonpayable",
      "type": "function"
    },
    {
      "inputs": [
        {
          "internalType": "address",
          "name": "addr",
          "type": "address"
        }
      ],
      "name": "setAttestationVerifier",
      "outputs": [],
      "stateMutability": "nonpayable",
      "type": "function"
    },
    {
      "inputs": [
        {
          "internalType": "address",
          "name": "addr",
          "type": "address"
        }
      ],
      "name": "setCampaigns",
      "outputs": [],
      "stateMutability": "nonpayable",
      "type": "function"
    },
    {
      "inputs": [
        {
          "internalType": "address",
          "name": "addr",
          "type": "address"
        }
      ],
      "name": "setClaimValidator",
      "outputs": [],
      "stateMutability": "nonpayable",
      "type": "function"
    },
    {
      "inputs": [
        {
          "internalType": "address",
          "name": "addr",
          "type": "address"
        }
      ],
      "name": "setClickRegistry",
      "outputs": [],
      "stateMutability": "nonpayable",
      "type": "function"
    },
    {
      "inputs": [
        {
          "internalType": "uint256",
          "name": "cap",
          "type": "uint256"
        }
      ],
      "name": "setMaxSettlementPerBlock",
      "outputs": [],
      "stateMutability": "nonpayable",
      "type": "function"
    },
    {
      "inputs": [
        {
          "internalType": "uint16",
          "name": "interval",
          "type": "uint16"
        }
      ],
      "name": "setMinClaimInterval",
      "outputs": [],
      "stateMutability": "nonpayable",
      "type": "function"
    },
    {
      "inputs": [
        {
          "internalType": "uint16",
          "name": "score",
          "type": "uint16"
        }
      ],
      "name": "setMinReputationScore",
      "outputs": [],
      "stateMutability": "nonpayable",
      "type": "function"
    },
    {
      "inputs": [
        {
          "internalType": "address",
          "name": "addr",
          "type": "address"
        }
      ],
      "name": "setNullifierRegistry",
      "outputs": [],
      "stateMutability": "nonpayable",
      "type": "function"
    },
    {
      "inputs": [
        {
          "internalType": "address",
          "name": "addr",
          "type": "address"
        }
      ],
      "name": "setPublisherReputation",
      "outputs": [],
      "stateMutability": "nonpayable",
      "type": "function"
    },
    {
      "inputs": [
        {
          "internalType": "address",
          "name": "addr",
          "type": "address"
        }
      ],
      "name": "setPublisherStake",
      "outputs": [],
      "stateMutability": "nonpayable",
      "type": "function"
    },
    {
      "inputs": [
        {
          "internalType": "address",
          "name": "addr",
          "type": "address"
        }
      ],
      "name": "setPublishers",
      "outputs": [],
      "stateMutability": "nonpayable",
      "type": "function"
    },
    {
      "inputs": [
        {
          "internalType": "address",
          "name": "addr",
          "type": "address"
        }
      ],
      "name": "setRateLimiter",
      "outputs": [],
      "stateMutability": "nonpayable",
      "type": "function"
    },
    {
      "inputs": [
        {
          "internalType": "address",
          "name": "addr",
          "type": "address"
        }
      ],
      "name": "setTokenRewardVault",
      "outputs": [],
      "stateMutability": "nonpayable",
      "type": "function"
    },
    {
      "inputs": [
        {
          "components": [
            {
              "internalType": "address",
              "name": "user",
              "type": "address"
            },
            {
              "internalType": "uint256",
              "name": "campaignId",
              "type": "uint256"
            },
            {
              "components": [
                {
                  "internalType": "uint256",
                  "name": "campaignId",
                  "type": "uint256"
                },
                {
                  "internalType": "address",
                  "name": "publisher",
                  "type": "address"
                },
                {
                  "internalType": "uint256",
                  "name": "eventCount",
                  "type": "uint256"
                },
                {
                  "internalType": "uint256",
                  "name": "ratePlanck",
                  "type": "uint256"
                },
                {
                  "internalType": "uint8",
                  "name": "actionType",
                  "type": "uint8"
                },
                {
                  "internalType": "bytes32",
                  "name": "clickSessionHash",
                  "type": "bytes32"
                },
                {
                  "internalType": "uint256",
                  "name": "nonce",
                  "type": "uint256"
                },
                {
                  "internalType": "bytes32",
                  "name": "previousClaimHash",
                  "type": "bytes32"
                },
                {
                  "internalType": "bytes32",
                  "name": "claimHash",
                  "type": "bytes32"
                },
                {
                  "internalType": "bytes32[8]",
                  "name": "zkProof",
                  "type": "bytes32[8]"
                },
                {
                  "internalType": "bytes32",
                  "name": "nullifier",
                  "type": "bytes32"
                },
                {
                  "internalType": "bytes32[3]",
                  "name": "actionSig",
                  "type": "bytes32[3]"
                }
              ],
              "internalType": "struct IDatumSettlement.Claim[]",
              "name": "claims",
              "type": "tuple[]"
            }
          ],
          "internalType": "struct IDatumSettlement.ClaimBatch[]",
          "name": "batches",
          "type": "tuple[]"
        }
      ],
      "name": "settleClaims",
      "outputs": [
        {
          "components": [
            {
              "internalType": "uint256",
              "name": "settledCount",
              "type": "uint256"
            },
            {
              "internalType": "uint256",
              "name": "rejectedCount",
              "type": "uint256"
            },
            {
              "internalType": "uint256",
              "name": "totalPaid",
              "type": "uint256"
            }
          ],
          "internalType": "struct IDatumSettlement.SettlementResult",
          "name": "result",
          "type": "tuple"
        }
      ],
      "stateMutability": "nonpayable",
      "type": "function"
    },
    {
      "inputs": [
        {
          "components": [
            {
              "internalType": "address",
              "name": "user",
              "type": "address"
            },
            {
              "components": [
                {
                  "internalType": "uint256",
                  "name": "campaignId",
                  "type": "uint256"
                },
                {
                  "components": [
                    {
                      "internalType": "uint256",
                      "name": "campaignId",
                      "type": "uint256"
                    },
                    {
                      "internalType": "address",
                      "name": "publisher",
                      "type": "address"
                    },
                    {
                      "internalType": "uint256",
                      "name": "eventCount",
                      "type": "uint256"
                    },
                    {
                      "internalType": "uint256",
                      "name": "ratePlanck",
                      "type": "uint256"
                    },
                    {
                      "internalType": "uint8",
                      "name": "actionType",
                      "type": "uint8"
                    },
                    {
                      "internalType": "bytes32",
                      "name": "clickSessionHash",
                      "type": "bytes32"
                    },
                    {
                      "internalType": "uint256",
                      "name": "nonce",
                      "type": "uint256"
                    },
                    {
                      "internalType": "bytes32",
                      "name": "previousClaimHash",
                      "type": "bytes32"
                    },
                    {
                      "internalType": "bytes32",
                      "name": "claimHash",
                      "type": "bytes32"
                    },
                    {
                      "internalType": "bytes32[8]",
                      "name": "zkProof",
                      "type": "bytes32[8]"
                    },
                    {
                      "internalType": "bytes32",
                      "name": "nullifier",
                      "type": "bytes32"
                    },
                    {
                      "internalType": "bytes32[3]",
                      "name": "actionSig",
                      "type": "bytes32[3]"
                    }
                  ],
                  "internalType": "struct IDatumSettlement.Claim[]",
                  "name": "claims",
                  "type": "tuple[]"
                }
              ],
              "internalType": "struct IDatumSettlement.CampaignClaims[]",
              "name": "campaigns",
              "type": "tuple[]"
            }
          ],
          "internalType": "struct IDatumSettlement.UserClaimBatch[]",
          "name": "batches",
          "type": "tuple[]"
        }
      ],
      "name": "settleClaimsMulti",
      "outputs": [
        {
          "components": [
            {
              "internalType": "uint256",
              "name": "settledCount",
              "type": "uint256"
            },
            {
              "internalType": "uint256",
              "name": "rejectedCount",
              "type": "uint256"
            },
            {
              "internalType": "uint256",
              "name": "totalPaid",
              "type": "uint256"
            }
          ],
          "internalType": "struct IDatumSettlement.SettlementResult",
          "name": "result",
          "type": "tuple"
        }
      ],
      "stateMutability": "nonpayable",
      "type": "function"
    },
    {
      "inputs": [],
      "name": "tokenRewardVault",
      "outputs": [
        {
          "internalType": "address",
          "name": "",
          "type": "address"
        }
      ],
      "stateMutability": "view",
      "type": "function"
    },
    {
      "inputs": [
        {
          "internalType": "address",
          "name": "newOwner",
          "type": "address"
        }
      ],
      "name": "transferOwnership",
      "outputs": [],
      "stateMutability": "nonpayable",
      "type": "function"
    },
    {
      "inputs": [
        {
          "internalType": "address",
          "name": "",
          "type": "address"
        },
        {
          "internalType": "uint256",
          "name": "",
          "type": "uint256"
        },
        {
          "internalType": "uint8",
          "name": "",
          "type": "uint8"
        }
      ],
      "name": "userCampaignSettled",
      "outputs": [
        {
          "internalType": "uint256",
          "name": "",
          "type": "uint256"
        }
      ],
      "stateMutability": "view",
      "type": "function"
    },
    {
      "inputs": [],
      "name": "validateConfiguration",
      "outputs": [
        {
          "internalType": "bool",
          "name": "valid",
          "type": "bool"
        },
        {
          "internalType": "string",
          "name": "missingField",
          "type": "string"
        }
      ],
      "stateMutability": "view",
      "type": "function"
    },
    {
      "stateMutability": "payable",
      "type": "receive"
    }
  ],
  "bytecode": "0x6080346200012b57601f62002f8338819003918201601f19168301916001600160401b0383118484101762000130578084926020946040528339810103126200012b57516001600160a01b03808216918290036200012b5760017f9b779b17422d0df92223018b32b4d1fa46e071723d6817e2486d003becc55f00553315620001125760018060a01b03199081600154166001556000543383821617600055604051913391167f8be0079c531659141344cd1fd0a4f28419497f9722a3daafe3b4186f6b6457e0600080a38215620000ea57506006541617600655604051612e3c9081620001478239f35b62461bcd60e51b815260206004820152600360248201526204530360ec1b6044820152606490fd5b604051631e4fbdf760e01b815260006004820152602490fd5b600080fd5b634e487b7160e01b600052604160045260246000fdfe61010060409080825260049081361015610048575b50361561002057600080fd5b6020606492519162461bcd60e51b8352820152600360248201526245303360e81b6044820152fd5b600090813560e01c908162db4bd3146112c257508063046b1d831461128057806316f114aa146112575780631afcd0e6146112345780631c82732d1461120b5780631e9313dc146111e25780631f339943146111b957806326622abc146111775780632f9e3b291461112d57806336fd78df14610e1a578063395ecfcc14610dd05780633bffb35414610db25780633ed089bb14610d8957806345d6b16a14610d46578063536f3eda14610cfc57806353d4fe3314610cd357806357227e6214610c665780635a022eac14610c3d5780635acb508214610b3d5780635c550ac214610b145780636a92430714610aca5780636e7cf85d14610aa1578063715018a614610a4657806379ba5097146109dc57806382f6f608146109875780638a4e6daa146109325780638da5cb5b1461090a578063a2edca8b146108e1578063a66bc4cc1461088c578063ac0cc86814610863578063b32ea11214610835578063b4b3c5a01461080c578063b870676c146107e3578063bdb3c7f6146107bd578063c8c9b9bd146104d5578063c96794e714610480578063cb5697f914610457578063d76dd84314610415578063dcdab22a146103f6578063e30c3978146103cd578063ea6aa57b14610383578063ed3916f714610356578063f018d7c01461030c578063f2fde38b1461028b5763fa61a96a03610014573461028857602036600319011261028857610258611301565b81546001600160a01b03919061027190831633146117b9565b166001600160601b0360a01b600b541617600b5580f35b80fd5b5034610288576020366003190112610288576102a5611301565b60018060a01b036102d38184541691338314936102c1856117b9565b16926102ce84151561141b565b6117b9565b600180546001600160a01b031916831790557f38d16b8cac22d99fc7c124b9cd0de2d3fa1faef420bfe791d8c362d765e227008380a380f35b503461028857602036600319011261028857610326611301565b81546001600160a01b03919061033f90831633146117b9565b166001600160601b0360a01b600954161760095580f35b50823461037f578160031936011261037f5760035490516001600160a01b039091168152602090f35b5080fd5b50346102885760203660031901126102885761039d611301565b81546001600160a01b0391906103b690831633146117b9565b166001600160601b0360a01b600d541617600d5580f35b50823461037f578160031936011261037f5760015490516001600160a01b039091168152602090f35b50823461037f578160031936011261037f576020906016549051908152f35b50823461037f57806020926104293661131c565b6001600160a01b03909216835260118652838320908352855282822060ff9091168252845220549051908152f35b50823461037f578160031936011261037f57600c5490516001600160a01b039091168152602090f35b50346102885760203660031901126102885761049a611301565b81546001600160a01b0391906104b390831633146117b9565b166104bf81151561141b565b6001600160601b0360a01b600854161760085580f35b50823461037f576020806003193601126107b95783356001600160401b0381116107a4576105069036908601611350565b91909383519461051586611380565b8186528183870152818587015261052a6117eb565b6008546001600160a01b0390610543908216151561141b565b87848260065416885192838092635c975abb60e01b82525afa80156107af578490610775575b61057491501561145a565b600a90610584600a87111561148a565b835b8681106105d05760017f9b779b17422d0df92223018b32b4d1fa46e071723d6817e2486d003becc55f00558751895181526020808b0151908201526040808b015190820152606090f35b600581811b850135605e1986360301811215610771578a91889187019088868854168d811515908161075a575b50610689575b509161063e61065f94926001979694898061061d86611570565b16331492831561067c575b5050811561066d575b8115610665575b506115e2565b8c61065461064b83611570565b91830183611529565b9390920135906118ce565b01610586565b905038610638565b90508860075416331490610631565b5416331491508938610628565b91935091935061069b8c850185611529565b15610747579361063e61065f948f948f8d8f9681908d936106c08a60019f9e01611570565b90518a810191635b7ed12160e01b835286602491168183015281526106e481611380565b51915afa6106f0611584565b908061073c575b61070b575b50509294969750929450610603565b61071f9192508680825183010191016115c3565b168015159081610732575b5089386106fc565b905033143861072a565b5086815110156106f7565b634e487b7160e01b8a5260328f5260248afd5b6107679150850185611529565b905015158e6105fd565b8680fd5b508481813d83116107a8575b61078b81836113fa565b810103126107a45761079f6105749161144d565b610569565b8380fd5b503d610781565b87513d86823e3d90fd5b8280fd5b50823461037f578160031936011261037f5760209061ffff600f5460a01c169051908152f35b50823461037f578160031936011261037f57600e5490516001600160a01b039091168152602090f35b50823461037f578160031936011261037f5760075490516001600160a01b039091168152602090f35b50903461037f57602036600319011261037f5761085c60018060a01b0383541633146117b9565b3560165580f35b509190346107b957826003193601126107b9575490516001600160a01b03909116815260209150f35b5034610288576020366003190112610288576108a6611301565b81546001600160a01b0391906108bf90831633146117b9565b166108cb81151561141b565b6001600160601b0360a01b600c541617600c5580f35b50823461037f578160031936011261037f57600b5490516001600160a01b039091168152602090f35b50823461037f578160031936011261037f57905490516001600160a01b039091168152602090f35b50903461037f57602036600319011261037f573561ffff8116810361037f5761096560018060a01b0383541633146117b9565b600f805461ffff60a01b191660a09290921b61ffff60a01b1691909117905580f35b5034610288576020366003190112610288576109a1611301565b81546001600160a01b0391906109ba90831633146117b9565b166109c681151561141b565b6001600160601b0360a01b600754161760075580f35b50346102885780600319360112610288576001546001600160a01b03610a0533828416146117b9565b6001600160a01b031991821660015582543392811683178455167f8be0079c531659141344cd1fd0a4f28419497f9722a3daafe3b4186f6b6457e08380a380f35b5091346107b957826003193601126107b957610a70610a9d9360018060a01b0390541633146117b9565b5191829162461bcd60e51b8352820160609060208152600360208201526208a62760eb1b60408201520190565b0390fd5b50823461037f578160031936011261037f5760085490516001600160a01b039091168152602090f35b503461028857602036600319011261028857610ae4611301565b81546001600160a01b039190610afd90831633146117b9565b166001600160601b0360a01b601054161760105580f35b50823461037f578160031936011261037f5760055490516001600160a01b039091168152602090f35b5091346107b95760803660031901126107b957610b58611301565b916001600160a01b03916024358381169190829003610c3957604435908482168092036107715760643592858416809403610c355783867fef25bf6a196fbb49517561b4055065781c0b3c78fb399b02a46eb5edf9b4165598610bc16080998c541633146117b9565b1695610bce87151561141b565b610bd983151561141b565b610be485151561141b565b610bef82151561141b565b6001600160601b0360a01b90878260025416176002558382600354161760035585828254161790556005541617600555815194855260208501528301526060820152a180f35b8780fd5b8580fd5b50823461037f578160031936011261037f57600d5490516001600160a01b039091168152602090f35b50823461037f578160031936011261037f57610c80611614565b91805193849215158352602082602085015284518093850152815b838110610cbc57505060608094508284010152601f80199101168101030190f35b808601820151878201606001528694508101610c9b565b50823461037f578160031936011261037f5760095490516001600160a01b039091168152602090f35b503461028857602036600319011261028857610d16611301565b81546001600160a01b039190610d2f90831633146117b9565b166001600160601b0360a01b600f541617600f5580f35b50903461037f57602036600319011261037f573561ffff811680910361037f57610d7a60018060a01b0383541633146117b9565b61ffff19601454161760145580f35b50823461037f578160031936011261037f5760025490516001600160a01b039091168152602090f35b50823461037f578160031936011261037f5760209051620186a08152f35b503461028857602036600319011261028857610dea611301565b81546001600160a01b039190610e0390831633146117b9565b166001600160601b0360a01b600a541617600a5580f35b50823461037f57602091826003193601126102885783356001600160401b03811161037f57610e4c9036908601611350565b939091835194610e5b86611380565b81865281838701528185870152610e706117eb565b6008546001600160a01b039190610e8a908316151561141b565b87848360065416885192838092635c975abb60e01b82525afa80156107af5784906110f7575b610ebf9150959291951561145a565b610ecc600a86111561148a565b82945b808610610f195760017f9b779b17422d0df92223018b32b4d1fa46e071723d6817e2486d003becc55f00558651885181526020808a0151908201526040808a015190820152606090f35b610f2b8682859697989a9994956114bc565b93610f46600a610f3d898801886114f4565b9050111561148a565b855b610f54888701876114f4565b90508110156110e45788610f7482610f6e8b8a018a6114f4565b906114bc565b8887600a5416801515806110ce575b611000575b5091610fdc91610fbc600195948a610f9f8d611570565b163314908115610ff1575b8115610fe257811561066557506115e2565b610fc58a611570565b90610fd28d820182611529565b92909135906118ce565b01610f48565b90508a60075416331490610631565b90508a60055416331490610faa565b909192506110108b840184611529565b156110bb5792610fbc610fdc938a8f948f908f80918e6110348560019e9d01611570565b905185810191635b7ed12160e01b8352876024911681830152815261105881611380565b51915afa90611065611584565b91806110b0575b61107f575b505050929495505091610f88565b61109292935080825183010191016115c3565b1680151590816110a6575b508a388f611071565b905033143861109d565b50808251101561106c565b634e487b7160e01b8b5260328f5260248bfd5b506110db8c840184611529565b90501515610f83565b5095949350909596600101949190610ecf565b508481813d8311611126575b61110d81836113fa565b810103126107a457611121610ebf9161144d565b610eb0565b503d611103565b503461028857602036600319011261028857611147611301565b81546001600160a01b03919061116090831633146117b9565b166001600160601b0360a01b600e541617600e5580f35b50823461037f578060209261118b3661131c565b6001600160a01b03909216835260128652838320908352855282822060ff9091168252845220549051908152f35b50823461037f578160031936011261037f57600f5490516001600160a01b039091168152602090f35b50823461037f578160031936011261037f5760105490516001600160a01b039091168152602090f35b50823461037f578160031936011261037f5760065490516001600160a01b039091168152602090f35b50823461037f578160031936011261037f5760209061ffff601454169051908152f35b50823461037f578160031936011261037f57600a5490516001600160a01b039091168152602090f35b50823461037f57806020926112943661131c565b6001600160a01b03909216835260138652838320908352855282822060ff9091168252845220549051908152f35b905083346107b9576020926112d63661131c565b6001600160a01b03909216835260158652838320908352855282822060ff9091168252845220548152f35b600435906001600160a01b038216820361131757565b600080fd5b6060906003190112611317576004356001600160a01b038116810361131757906024359060443560ff811681036113175790565b9181601f84011215611317578235916001600160401b038311611317576020808501948460051b01011161131757565b606081019081106001600160401b0382111761139b57604052565b634e487b7160e01b600052604160045260246000fd5b6001600160401b03811161139b57604052565b604081019081106001600160401b0382111761139b57604052565b60c081019081106001600160401b0382111761139b57604052565b90601f801991011681019081106001600160401b0382111761139b57604052565b1561142257565b60405162461bcd60e51b815260206004820152600360248201526204530360ec1b6044820152606490fd5b5190811515820361131757565b1561146157565b60405162461bcd60e51b81526020600482015260016024820152600560fc1b6044820152606490fd5b1561149157565b60405162461bcd60e51b815260206004820152600360248201526208a64760eb1b6044820152606490fd5b91908110156114de5760051b81013590603e1981360301821215611317570190565b634e487b7160e01b600052603260045260246000fd5b903590601e198136030182121561131757018035906001600160401b03821161131757602001918160051b3603831361131757565b903590601e198136030182121561131757018035906001600160401b03821161131757602001916102a082023603831361131757565b91908110156114de576102a0020190565b356001600160a01b03811681036113175790565b3d156115be573d906001600160401b03821161139b57604051916115b2601f8201601f1916602001846113fa565b82523d6000602084013e565b606090565b9081602091031261131757516001600160a01b03811681036113175790565b156115e957565b60405162461bcd60e51b815260206004820152600360248201526222999960e91b6044820152606490fd5b6002546001600160a01b039081161561178d57806003541615611761578060045416156117385780600554161561170b578060065416156116de578060085416156116b057600c54161561168857600190604051602081018181106001600160401b0382111761139b576040526000815290565b600090604051611697816113c4565b600981526863616d706169676e7360b81b602082015290565b506000906040516116c0816113c4565b600e81526d31b630b4b6ab30b634b230ba37b960911b602082015290565b506000906040516116ee816113c4565b600d81526c7061757365526567697374727960981b602082015290565b5060009060405161171b816113c4565b600d81526c1c995b185e50dbdb9d1c9858dd609a1b602082015290565b50600090604051611748816113c4565b60098152686c6966656379636c6560b81b602082015290565b50600090604051611771816113c4565b600c81526b1c185e5b595b9d15985d5b1d60a21b602082015290565b5060009060405161179d816113c4565b600c81526b313ab233b2ba2632b233b2b960a11b602082015290565b156117c057565b60405162461bcd60e51b815260206004820152600360248201526208a62760eb1b6044820152606490fd5b7f9b779b17422d0df92223018b32b4d1fa46e071723d6817e2486d003becc55f00600281541461181b5760029055565b604051633ee5aeb560e01b8152600490fd5b3560ff811681036113175790565b9190820180921161184857565b634e487b7160e01b600052601160045260246000fd5b60001981146118485760010190565b519061ffff8216820361131757565b8181029291811591840414171561184857565b9190820391821161184857565b156118a357565b60405162461bcd60e51b815260206004820152600360248201526222981960e91b6044820152606490fd5b60c05260e05291906118e3600a82111561148a565b80158015939080600081612dde57506114de576119026080830161182d565b945b601461ffff6014541660a05260a051612d12575b600f5460a081901c61ffff16936001600160a01b03909116928315159081612d08575b81612d00575b50612bf1575b505050508251608052602083015190600060405193846101608101106001600160401b0361016087011117612bdd5761016085016040528185528160208601528160408601528160608601528160808601528160a08601528160c08601528160e086015281610100860152816101208601528161014086015260018060a01b03600b5416151580612bc9575b80612bbe575b612abd575b81905b808310611db65750505050815180151580611dab575b611d4a575b508151611cb6575b60a082015180611c45575b50600d546001600160a01b031680151580611c37575b80611c21575b611bbd575b50600f546001600160a01b03169081151580611ba7575b611b0c575b5050610100810151611ab7575b5060a05115159060a051611aa9575b50611a705750565b60018060a01b0360c051166000526015602052604060002060e05160005260205260ff6040600020911660005260205243604060002055565b905060805190511138611a68565b600080611b069261012060018060a01b036004541691015182604051602081019263012aa7e360e71b8452602482015260248152611af481611380565b51925af1611b00611584565b5061189c565b38611a59565b611b27611b1c608051865161188f565b91602086015161188f565b918115801590611b9e575b611b3d575b50611a4c565b60009283809360018060a01b0360808801511692604051916020830194631314e21760e11b8652602484015260e05160448401526064830152608482015260848152611b88816113df565b51925af150611b95611584565b50388080611b37565b50821515611b32565b5060808301516001600160a01b03161515611a47565b60018060a01b03608084015116610140840151823b15611317576044600092836040519586948593630c8689dd60e01b8552600485015260248401525af18015611c155715611a3057611c0f906113b1565b38611a30565b6040513d6000823e3d90fd5b5060808301516001600160a01b03161515611a2b565b506101408301511515611a25565b600b5460c08481015160405163089f070f60e11b6020820190815260e05160248301526001600160a01b039283166044830152925182166064820152608480820195909552938452600093849390911691908390611ca2816113df565b51925af150611caf611584565b5038611a0f565b6003546080830151602080850151604080870151606088015191516336e5b12960e21b9481019485526001600160a01b039586166024820152604481019390935260c05185166064840152608483015260a4808301919091528152909260e0820192166001600160401b0383118284101761139b57611d45936000809493819460405251925af1611b00611584565b611a04565b611d60906017544303611d9d575b60185461183b565b8060185560165410611d7257386119fc565b60405162461bcd60e51b815260206004820152600360248201526204538360ec1b6044820152606490fd5b436017556000601855611d58565b5060165415156119f7565b611dc183828661155f565b9260e051843503612a715782612a2657600a546001600160a01b03168061293f575b5060018060a01b0360c05116600052601160205260406000208435600052602052604060002060ff611e176080870161182d565b16600052602052604060002054936001850185116118485760018060a01b0360c05116600052601260205260406000208135600052602052604060002060ff611e626080840161182d565b1660005260205260406000205460018060a01b0360085416906040519663ea8dd34360e01b885283356004890152602084013560018060a01b038116809103611317576024890152604084013560448901526060840135606489015260808401359060ff82168092036113175760809389936001859361030495608486015260a089013560a486015260c089013560c486015260e089013560e48601526101008901356101048601526101006101208a0161012487013761022089013561022486015260606102408a01610244870137818060a01b0360c051166102a4860152016102c48401526102e48301525afa8015611c1557600080809781936128da575b5015612874575060018060a01b0360c05116600052601360205260406000208235600052602052604060002060ff611f9d6080850161182d565b16600052602052611fb7604083013560406000205461183b565b620186a081116128215760018060a01b0360c05116600052601360205260406000208335600052602052604060002060ff611ff46080860161182d565b1660005260205260406000205560018060a01b036009541680612723575b50600d546001600160a01b031680612648575b5060ff6120346080840161182d565b161580612634575b80612626575b61254d575b60018060a01b0360c05116600052601260205260406000208235600052602052604060002060ff61207a6080850161182d565b1660005260205260406000205560018060a01b0360c05116600052601160205260406000208135600052602052604060002060ff6120ba6080840161182d565b1660005260205260c081013560406000205560ff6120da6080830161182d565b161580612539575b8061252b575b6124cd575b600160ff6120fd6080840161182d565b1614806124b9575b806124ac575b61243b575b60ff61211e6080830161182d565b1661241a5761271061214b61ffff6103e86121416040860135606087013561187c565b04975b168761187c565b0490612157828761188f565b611d4c818181020481148215171561184857612179612710828402048361188f565b908860008060018060a01b036002541687826121976080830161182d565b60039660018060a01b038854169060ff60405193602085019663022bfd6b60e31b885235602486015216604484015260648301526084820152608481526121dd816113df565b51925af1906121ea611584565b918061240e575b156123e45750602081805181010312611317578c6122128f9260200161144d565b6123ca575b996122ce604061271094938d61223360019d9e9f86905161183b565b81526122438b602083015161183b565b602082015261225987878b02048483015161183b565b8382015261226b88606083015161183b565b60608201528c8060a01b03608082015116156123ad575b60ff61229060808c0161182d565b161580612399575b8061238c575b612364575b6101406122b6848c01358284015161183b565b9101526122c3815161185e565b81520191825161183b565b90526122dc60208601611570565b936122e96080870161182d565b9660ff6040519860408901358a52606089013560208b015216604089015260c087013560608901526080880152020460a085015260c0840152848060a01b0316917f2e1e50fb5400f6c881d06f963063bee50fd9db9431686ed0374a2ea71e1ed0c160e0868060a01b0360c05116933592a45b0191906119e1565b61238261237860e0830151858d013561187c565b60a083015161183b565b60a08201526122a3565b5060e0810151151561229e565b508c8060a01b0360c0820151161515612298565b8c8060a01b036123bf60208c01611570565b166080820152612282565b6001610100820181905260e0516101208301529950612217565b6064906040519062461bcd60e51b82526020600483015260248201526222989b60e91b6044820152fd5b506020825110156121f1565b61271061214b61ffff6124356040850135606086013561187c565b97612144565b6010546001600160a01b0316803b15611317576040516373ce7f8d60e11b815260c0516001600160a01b031660048201528235602482015260a08301356044820152906000908290606490829084905af18015611c155761249d575b50612110565b6124a6906113b1565b38612497565b5060a0810135151561210b565b506010546001600160a01b03161515612105565b600e546001600160a01b0316803b156113175760008091604460405180948193637248e91d60e11b83526102208801356004840152873560248401525af18015611c155761251c575b506120ed565b612525906113b1565b38612516565b5061022081013515156120e8565b50600e546001600160a01b031615156120e2565b600e546040516328d74a5d60e21b815283356004820152610220840135602482015290602090829060449082906001600160a01b03165afa908115611c15576000916125ec575b5015612047575091925092506125ad602088015161185e565b602088015260405160c0820135815260136020820152600080516020612de7833981519152604060018060a01b0360c05116933592a36001809261235c565b906020823d60201161261e575b81612606602093836113fa565b8101031261028857506126189061144d565b38612594565b3d91506125f9565b506102208201351515612042565b50600e546001600160a01b0316151561203c565b6020612655818501611570565b60405163a7f624f360e01b81526001600160a01b03909116600482015291829060249082905afa908115611c15576000916126e9575b50156126975738612025565b5091925092506126aa602088015161185e565b602088015260405160c08201358152600f6020820152600080516020612de7833981519152604060018060a01b0360c05116933592a36001809261235c565b906020823d60201161271b575b81612703602093836113fa565b8101031261028857506127159061144d565b3861268b565b3d91506126f6565b602060ff916064612735838701611570565b60006127436080890161182d565b60408051631ebfcc7f60e01b81526001600160a01b03909416600485015289013560248401529590951660448201529384928391905af1908115611c15576000916127e7575b50156127955738612012565b5091925092506127a8602088015161185e565b602088015260405160c08201358152600e6020820152600080516020612de7833981519152604060018060a01b0360c05116933592a36001809261235c565b906020823d602011612819575b81612801602093836113fa565b8101031261028857506128139061144d565b38612789565b3d91506127f4565b50509192509250612835602088015161185e565b602088015260405160c08201358152600d6020820152600080516020612de7833981519152604060018060a01b0360c05116933592a36001809261235c565b955050600760ff8616146128d1575b600192939461289560208b015161185e565b60208b015260ff6040519160c08401358352166020820152600080516020612de78339815191526040858060a01b0360c05116933592a361235c565b60019350612883565b97509150506080863d608011612937575b816128f8608093836113fa565b81010312610288576129098661144d565b9560208101519160ff83168303610288575060606129296040830161186d565b910151969190969138611f63565b3d91506128eb565b6000809161294f60208801611570565b60405163fbac395160e01b602082019081526001600160a01b03909216602480830191909152815261298081611380565b51915afa61298c611584565b9015908115612a19575b81156129f8575b506129a85738611de3565b929091506129b9602088015161185e565b602088015260405160c08201358152600b6020820152600080516020612de7833981519152604060018060a01b0360c05116933592a36001809261235c565b9050602081805181010312611317576020612a13910161144d565b3861299d565b9050602081511090612996565b6001919293612a3860208a015161185e565b60208a015260405160c08201358152836020820152600080516020612de78339815191526040858060a01b0360c05116933592a361235c565b6001919293612a8360208a015161185e565b60208a015260405160c0820135815260006020820152600080516020612de78339815191526040858060a01b0360c05116933592a361235c565b8160018060a01b03600c54168180604051602081019063f00b29a960e01b825260e051602482015260248152612af281611380565b5190845afa612aff611584565b9080612bb2575b612b13575b5050506119de565b80516001600160a01b0391612b30918101602090810191016115c3565b168060c0890152612b42575b80612b0b565b819060405160208101906312e0e04760e11b825260e051602482015260248152612b6b81611380565b51915afa612b77611584565b9080612ba6575b612b8a575b8290612b3c565b6020818051810103126107b9576020015160e086015238612b83565b50602081511015612b7e565b50602081511015612b06565b5060ff8716156119d9565b50600c546001600160a01b031615156119d3565b634e487b7160e01b82526041600452602482fd5b6114de57602092600080612c06868801611570565b9460409560405188810191630d47875d60e41b835260018060a01b0316602482015260248152612c3581611380565b51915afa90612c42611584565b82612cf3575b82612ccd575b5050612c5a5780611947565b91949550919260005b818110612c735750505050505050565b600190868801612c83815161185e565b9052612c9081848861155f565b3560c0612c9e83868a61155f565b01359086519182528589830152600080516020612de783398151915287858060a01b0360c0511693a301612c63565b909150848180518101031261131757612cea8561ffff920161186d565b16103880612c4e565b9150848251101591612c48565b905038611941565b851515915061193b565b60018060a01b0360c05116806000526020601560205260408060002060e051600052602052604060002060ff8b166000526020526040600020548015159081612dc8575b50612d6357505050611918565b9593509593509596505060005b828110612d805750505050505050565b600190858801612d90815161185e565b90528660c0612da083878761155f565b01358651908152601288820152600080516020612de78339815191528760e05192a301612d70565b612dd6915060a0519061183b565b431038612d56565b90509461190456fe9ffeb4efbd312aa0a3272b4bcd4600a2c961b679f80e437c30ace1296ce714a3a26469706673582212205a4716353b4b91555afaa5ad17b35e61961d523a2f6c2688b63844c624b8261f64736f6c63430008180033",
  "linkReferences": {},
  "deployedLinkReferences": {}
}