{
  "_format": "hh-sol-artifact-1",
  "contractName": "DatumBudgetLedger",
  "sourceName": "contracts/DatumBudgetLedger.sol",
  "abi": [
    {
      "inputs": [],
      "stateMutability": "nonpayable",
      "type": "constructor"
    },
    {
      "anonymous": false,
      "inputs": [
        {
          "indexed": true,
          "internalType": "uint256",
          "name": "campaignId",
          "type": "uint256"
        },
        {
          "indexed": false,
          "internalType": "uint256",
          "name": "amount",
          "type": "uint256"
        },
        {
          "indexed": false,
          "internalType": "uint256",
          "name": "remaining",
          "type": "uint256"
        }
      ],
      "name": "BudgetDeducted",
      "type": "event"
    },
    {
      "anonymous": false,
      "inputs": [
        {
          "indexed": true,
          "internalType": "uint256",
          "name": "campaignId",
          "type": "uint256"
        },
        {
          "indexed": true,
          "internalType": "address",
          "name": "advertiser",
          "type": "address"
        },
        {
          "indexed": false,
          "internalType": "uint256",
          "name": "amount",
          "type": "uint256"
        }
      ],
      "name": "BudgetDrained",
      "type": "event"
    },
    {
      "anonymous": false,
      "inputs": [
        {
          "indexed": true,
          "internalType": "uint256",
          "name": "campaignId",
          "type": "uint256"
        },
        {
          "indexed": false,
          "internalType": "uint256",
          "name": "budget",
          "type": "uint256"
        },
        {
          "indexed": false,
          "internalType": "uint256",
          "name": "dailyCap",
          "type": "uint256"
        }
      ],
      "name": "BudgetInitialized",
      "type": "event"
    },
    {
      "inputs": [],
      "name": "campaigns",
      "outputs": [
        {
          "internalType": "address",
          "name": "",
          "type": "address"
        }
      ],
      "stateMutability": "view",
      "type": "function"
    },
    {
      "inputs": [
        {
          "internalType": "uint256",
          "name": "campaignId",
          "type": "uint256"
        },
        {
          "internalType": "uint256",
          "name": "amount",
          "type": "uint256"
        },
        {
          "internalType": "address",
          "name": "recipient",
          "type": "address"
        }
      ],
      "name": "deductAndTransfer",
      "outputs": [
        {
          "internalType": "bool",
          "name": "exhausted",
          "type": "bool"
        }
      ],
      "stateMutability": "nonpayable",
      "type": "function"
    },
    {
      "inputs": [
        {
          "internalType": "uint256",
          "name": "campaignId",
          "type": "uint256"
        },
        {
          "internalType": "address",
          "name": "recipient",
          "type": "address"
        },
        {
          "internalType": "uint256",
          "name": "bps",
          "type": "uint256"
        }
      ],
      "name": "drainFraction",
      "outputs": [
        {
          "internalType": "uint256",
          "name": "amount",
          "type": "uint256"
        }
      ],
      "stateMutability": "nonpayable",
      "type": "function"
    },
    {
      "inputs": [
        {
          "internalType": "uint256",
          "name": "campaignId",
          "type": "uint256"
        },
        {
          "internalType": "address",
          "name": "advertiser",
          "type": "address"
        }
      ],
      "name": "drainToAdvertiser",
      "outputs": [
        {
          "internalType": "uint256",
          "name": "drained",
          "type": "uint256"
        }
      ],
      "stateMutability": "nonpayable",
      "type": "function"
    },
    {
      "inputs": [
        {
          "internalType": "uint256",
          "name": "campaignId",
          "type": "uint256"
        }
      ],
      "name": "getDailyCap",
      "outputs": [
        {
          "internalType": "uint256",
          "name": "",
          "type": "uint256"
        }
      ],
      "stateMutability": "view",
      "type": "function"
    },
    {
      "inputs": [
        {
          "internalType": "uint256",
          "name": "campaignId",
          "type": "uint256"
        }
      ],
      "name": "getRemainingBudget",
      "outputs": [
        {
          "internalType": "uint256",
          "name": "",
          "type": "uint256"
        }
      ],
      "stateMutability": "view",
      "type": "function"
    },
    {
      "inputs": [
        {
          "internalType": "uint256",
          "name": "campaignId",
          "type": "uint256"
        },
        {
          "internalType": "uint256",
          "name": "budget",
          "type": "uint256"
        },
        {
          "internalType": "uint256",
          "name": "dailyCap",
          "type": "uint256"
        }
      ],
      "name": "initializeBudget",
      "outputs": [],
      "stateMutability": "payable",
      "type": "function"
    },
    {
      "inputs": [],
      "name": "lifecycle",
      "outputs": [
        {
          "internalType": "address",
          "name": "",
          "type": "address"
        }
      ],
      "stateMutability": "view",
      "type": "function"
    },
    {
      "inputs": [],
      "name": "owner",
      "outputs": [
        {
          "internalType": "address",
          "name": "",
          "type": "address"
        }
      ],
      "stateMutability": "view",
      "type": "function"
    },
    {
      "inputs": [
        {
          "internalType": "address",
          "name": "addr",
          "type": "address"
        }
      ],
      "name": "setCampaigns",
      "outputs": [],
      "stateMutability": "nonpayable",
      "type": "function"
    },
    {
      "inputs": [
        {
          "internalType": "address",
          "name": "addr",
          "type": "address"
        }
      ],
      "name": "setLifecycle",
      "outputs": [],
      "stateMutability": "nonpayable",
      "type": "function"
    },
    {
      "inputs": [
        {
          "internalType": "address",
          "name": "addr",
          "type": "address"
        }
      ],
      "name": "setSettlement",
      "outputs": [],
      "stateMutability": "nonpayable",
      "type": "function"
    },
    {
      "inputs": [],
      "name": "settlement",
      "outputs": [
        {
          "internalType": "address",
          "name": "",
          "type": "address"
        }
      ],
      "stateMutability": "view",
      "type": "function"
    },
    {
      "inputs": [
        {
          "internalType": "address",
          "name": "newOwner",
          "type": "address"
        }
      ],
      "name": "transferOwnership",
      "outputs": [],
      "stateMutability": "nonpayable",
      "type": "function"
    },
    {
      "stateMutability": "payable",
      "type": "receive"
    }
  ],
  "bytecode": "0x6080806040523461002857600080546001600160a01b03191633179055610885908161002e8239f35b600080fdfe608060409080825260049182361015610023575b505050361561002157600080fd5b005b600092833560e01c9283630d2f03741461064657508263511606301461061d5782635b665683146105c8578263854b73d7146104c05782638da5cb5b146104985782638f4e6f3714610443578263a66bc4cc146103ee578263ac0cc868146103c5578263b9f1515714610329578263cb5697f914610300578263cdbb1755146101e1578263ec0c80021461014d578263efaa79b11461012157505063f2fde38b146100cf578080610013565b3461011e57602036600319011261011e576100e8610670565b8154906001600160a01b039061010133838516146106a1565b169061010e8215156106d3565b6001600160a01b03191617815580f35b80fd5b9091503461014957602036600319011261014957602092818392358252845220549051908152f35b8280fd5b8382346101dd57806003193601126101dd5782602093359061016d61068b565b9160018060a01b039161018583600354163314610705565b818652865283852094855495557f5e9066387d61081c2d1bce8ffe2d2069afcf8bc33488bb7d6c9da97565983f9886855193878552851693a382806101cd575b505051908152f35b6101d691610799565b83826101c5565b5080fd5b833461011e57606036600319011261011e5760243590604435908335906001600160a01b0380841684036101dd5761021e90600254163314610705565b818152846020528581209485549161023883871115610737565b620151804204906003880190815483036102f2575b5050506002860190815490610262878361078c565b6001890154106102c95750856102c2959381959361028660209b9961028d9561078c565b9055610769565b8096557fcad3a3a2265e7dceccbc31f415bdbf12c00ae6fb6755d576524c2713e9904d2b858051858152888a820152a2610799565b5190158152f35b60649060208a519162461bcd60e51b8352820152600360248201526222991b60e91b6044820152fd5b60028901555587808061024d565b8382346101dd57816003193601126101dd5760015490516001600160a01b039091168152602090f35b8382346101dd5760603660031901126101dd57823561034661068b565b906044359361036060018060a01b03600354163314610705565b61271061036f81871115610737565b8282528660205284822054958087029087820414871517156103b2579661039d869392602099048098610769565b9382528752205582806101cd57505051908152f35b634e487b7160e01b835260118852602483fd5b8382346101dd57816003193601126101dd5760035490516001600160a01b039091168152602090f35b833461011e57602036600319011261011e57610408610670565b81546001600160a01b03919061042190831633146106a1565b1661042d8115156106d3565b6001600160601b0360a01b600154161760015580f35b833461011e57602036600319011261011e5761045d610670565b81546001600160a01b03919061047690831633146106a1565b166104828115156106d3565b6001600160601b0360a01b600254161760025580f35b8382346101dd57816003193601126101dd57905490516001600160a01b039091168152602090f35b838260603660031901126101dd578235906024356044356104ec60018060a01b03600154163314610705565b6104f7823414610737565b838552856020528285205461059f5782516080810181811067ffffffffffffffff82111761058c577f7a823af6b910700d67b16fd66acb5fe74cc12002b334c2035ea674a99bf79d3b959697600391865284835260208301848152868401908a825260608501928b84528a8c52602052878b20945185555160018501555160028401555191015582519182526020820152a280f35b634e487b7160e01b875260418852602487fd5b825162461bcd60e51b81526020818801526003602482015262114c4d60ea1b6044820152606490fd5b833461011e57602036600319011261011e576105e2610670565b81546001600160a01b0391906105fb90831633146106a1565b166106078115156106d3565b6001600160601b0360a01b600354161760035580f35b8382346101dd57816003193601126101dd5760025490516001600160a01b039091168152602090f35b92503461066c57602036600319011261066c578035845260209081529220600101548152f35b8380fd5b600435906001600160a01b038216820361068657565b600080fd5b602435906001600160a01b038216820361068657565b156106a857565b60405162461bcd60e51b815260206004820152600360248201526208a62760eb1b6044820152606490fd5b156106da57565b60405162461bcd60e51b815260206004820152600360248201526204530360ec1b6044820152606490fd5b1561070c57565b60405162461bcd60e51b815260206004820152600360248201526245323560e81b6044820152606490fd5b1561073e57565b60405162461bcd60e51b815260206004820152600360248201526222989b60e91b6044820152606490fd5b9190820391821161077657565b634e487b7160e01b600052601160045260246000fd5b9190820180921161077657565b600080808094819460018060a01b03165af1903d156108495767ffffffffffffffff903d8281116108355760405192601f8201601f19908116603f011684019081118482101761082157604052825260203d92013e5b156107f657565b60405162461bcd60e51b815260206004820152600360248201526222981960e91b6044820152606490fd5b634e487b7160e01b83526041600452602483fd5b634e487b7160e01b82526041600452602482fd5b506107ef56fea26469706673582212204b2a401abbd75d4738a926a8fcfd2d37c3cba9c3a25fdfa31164132eee12948164736f6c63430008180033",
  "linkReferences": {},
  "deployedLinkReferences": {}
}