{
  "_format": "hh-sol-artifact-1",
  "contractName": "DatumTimelock",
  "sourceName": "contracts/DatumTimelock.sol",
  "abi": [
    {
      "inputs": [],
      "stateMutability": "nonpayable",
      "type": "constructor"
    },
    {
      "anonymous": false,
      "inputs": [
        {
          "indexed": true,
          "internalType": "address",
          "name": "target",
          "type": "address"
        }
      ],
      "name": "ChangeCancelled",
      "type": "event"
    },
    {
      "anonymous": false,
      "inputs": [
        {
          "indexed": true,
          "internalType": "address",
          "name": "target",
          "type": "address"
        },
        {
          "indexed": false,
          "internalType": "bytes",
          "name": "data",
          "type": "bytes"
        }
      ],
      "name": "ChangeExecuted",
      "type": "event"
    },
    {
      "anonymous": false,
      "inputs": [
        {
          "indexed": true,
          "internalType": "address",
          "name": "target",
          "type": "address"
        },
        {
          "indexed": false,
          "internalType": "bytes",
          "name": "data",
          "type": "bytes"
        },
        {
          "indexed": false,
          "internalType": "uint256",
          "name": "effectiveTime",
          "type": "uint256"
        }
      ],
      "name": "ChangeProposed",
      "type": "event"
    },
    {
      "inputs": [],
      "name": "TIMELOCK_DELAY",
      "outputs": [
        {
          "internalType": "uint256",
          "name": "",
          "type": "uint256"
        }
      ],
      "stateMutability": "view",
      "type": "function"
    },
    {
      "inputs": [],
      "name": "cancel",
      "outputs": [],
      "stateMutability": "nonpayable",
      "type": "function"
    },
    {
      "inputs": [],
      "name": "execute",
      "outputs": [],
      "stateMutability": "nonpayable",
      "type": "function"
    },
    {
      "inputs": [],
      "name": "owner",
      "outputs": [
        {
          "internalType": "address",
          "name": "",
          "type": "address"
        }
      ],
      "stateMutability": "view",
      "type": "function"
    },
    {
      "inputs": [],
      "name": "pendingData",
      "outputs": [
        {
          "internalType": "bytes",
          "name": "",
          "type": "bytes"
        }
      ],
      "stateMutability": "view",
      "type": "function"
    },
    {
      "inputs": [],
      "name": "pendingTarget",
      "outputs": [
        {
          "internalType": "address",
          "name": "",
          "type": "address"
        }
      ],
      "stateMutability": "view",
      "type": "function"
    },
    {
      "inputs": [],
      "name": "pendingTimestamp",
      "outputs": [
        {
          "internalType": "uint256",
          "name": "",
          "type": "uint256"
        }
      ],
      "stateMutability": "view",
      "type": "function"
    },
    {
      "inputs": [
        {
          "internalType": "address",
          "name": "target",
          "type": "address"
        },
        {
          "internalType": "bytes",
          "name": "data",
          "type": "bytes"
        }
      ],
      "name": "propose",
      "outputs": [],
      "stateMutability": "nonpayable",
      "type": "function"
    },
    {
      "inputs": [
        {
          "internalType": "address",
          "name": "newOwner",
          "type": "address"
        }
      ],
      "name": "transferOwnership",
      "outputs": [],
      "stateMutability": "nonpayable",
      "type": "function"
    }
  ],
  "bytecode": "0x6080806040523461002857600080546001600160a01b03191633179055610892908161002e8239f35b600080fdfe60806040908082526004918236101561001757600080fd5b600092833560e01c928363105e203c146105ef5750826358ea52a5146105c65782635ba1c1a9146105a857826361461954146104145782638da5cb5b146103ec5782639d481848146101cc578263b0118df91461019b578263ea8a1af0146100dc57505063f2fde38b1461008a57600080fd5b346100d95760203660031901126100d9576100a361060b565b8154906001600160a01b03906100bc33838516146107d8565b16906100c982151561080a565b6001600160a01b03191617815580f35b80fd5b9091503461019757826003193601126101975782546001600160a01b03919061010890831633146107d8565b60015491821692831561016e5750506bffffffffffffffffffffffff60a01b1660015561013e610139600254610626565b610795565b6000600255816003557f2d112f361eee7929ebc8e262ac5fa859bf4680abe280594bb789615551f850818280a280f35b906020606492519162461bcd60e51b8352820152600360248201526245333560e81b6044820152fd5b8280fd5b8382346101c857816003193601126101c8576101c4906101b9610698565b90519182918261074c565b0390f35b5080fd5b8390346101c857826003193601126101c8576101e661060b565b60249384359267ffffffffffffffff928385116103e857366023860112156103e857848201359384116103e857368785870101116103e85785546001600160a01b03919061023790831633146107d8565b169361024485151561080a565b600180546001600160a01b0319168617815560025461026290610626565b601f8111610394575b5084879189601f831160011461031f57899383610312575b50501b906000198660031b1c1916176002555b426003556202a3004201918242116103005750918360609281897fc9c3706cca80f31c1ba2e837105095d9b62bddf51766e2368dd2762b6718504e97968551978689978852870152018585013782820184018890526020830152601f01601f19168101030190a280f35b634e487b7160e01b8752601190528686fd5b850101359250898b610283565b50600289529160008051602061083d833981519152915086601f1981168a5b858d83831061037a575050501061035e575b505084811b01600255610296565b8301890135600019600388901b60f8161c191690558880610350565b88860101358655909401936020938401938a93500161033e565b6002885260008051602061083d833981519152601f870160051c810191602088106103de575b601f0160051c019082905b8281106103d357505061026b565b8981550182906103c5565b90915081906103ba565b8580fd5b8382346101c857816003193601126101c857905490516001600160a01b039091168152602090f35b9150346101975782600319360112610197576001546001600160a01b038116929091908315610580576003546202a300810180911161056d5742106105455761045b610698565b926bffffffffffffffffffffffff60a01b1660015561047e610139600254610626565b600060025584600355848084516020860182885af13d15610540573d67ffffffffffffffff811161052d578351906104c0601f8201601f191660200183610660565b81528660203d92013e5b156105055750517f0db00f0c766627cf728ea020ade5d7e6938374fdef85631ed34bdca49563f74e9181906104ff908261074c565b0390a280f35b6020606492519162461bcd60e51b8352820152600360248201526222981960e91b6044820152fd5b634e487b7160e01b875260418352602487fd5b6104ca565b6020606492519162461bcd60e51b8352820152600360248201526245333760e81b6044820152fd5b634e487b7160e01b865260118252602486fd5b6020606492519162461bcd60e51b8352820152600360248201526222999b60e91b6044820152fd5b8382346101c857816003193601126101c857602090516202a3008152f35b8382346101c857816003193601126101c85760015490516001600160a01b039091168152602090f35b8490346101c857816003193601126101c8576020906003548152f35b600435906001600160a01b038216820361062157565b600080fd5b90600182811c92168015610656575b602083101461064057565b634e487b7160e01b600052602260045260246000fd5b91607f1691610635565b90601f8019910116810190811067ffffffffffffffff82111761068257604052565b634e487b7160e01b600052604160045260246000fd5b60405190600082600254916106ac83610626565b8083529260209060019081811690811561072857506001146106d9575b50506106d792500383610660565b565b915092600260005260008051602061083d833981519152936000925b82841061071057506106d794505050810160200138806106c9565b855488850183015294850194879450928101926106f5565b915050602092506106d794915060ff191682840152151560051b82010138806106c9565b6020808252825181830181905290939260005b82811061078157505060409293506000838284010152601f8019910116010190565b81810186015184820160400152850161075f565b601f81116107a05750565b60006002600052601f60008051602061083d833981519152920160051c8201915b8281106107cd57505050565b8181556001016107c1565b156107df57565b60405162461bcd60e51b815260206004820152600360248201526208a62760eb1b6044820152606490fd5b1561081157565b60405162461bcd60e51b815260206004820152600360248201526204530360ec1b6044820152606490fdfe405787fa12a823e0f2b7631cc41b3ba8828b3321ca811111fa75cd3aa3bb5acea2646970667358221220af3810c9a90508eb0bb9e9811494824abccfd0e5a5bc30125a11846ef0ebf25264736f6c63430008180033",
  "linkReferences": {},
  "deployedLinkReferences": {}
}