{
  "_format": "hh-sol-artifact-1",
  "contractName": "DatumPublishers",
  "sourceName": "contracts/DatumPublishers.sol",
  "abi": [
    {
      "inputs": [
        {
          "internalType": "uint256",
          "name": "_takeRateUpdateDelayBlocks",
          "type": "uint256"
        }
      ],
      "stateMutability": "nonpayable",
      "type": "constructor"
    },
    {
      "inputs": [],
      "name": "EnforcedPause",
      "type": "error"
    },
    {
      "inputs": [],
      "name": "ExpectedPause",
      "type": "error"
    },
    {
      "inputs": [
        {
          "internalType": "address",
          "name": "owner",
          "type": "address"
        }
      ],
      "name": "OwnableInvalidOwner",
      "type": "error"
    },
    {
      "inputs": [
        {
          "internalType": "address",
          "name": "account",
          "type": "address"
        }
      ],
      "name": "OwnableUnauthorizedAccount",
      "type": "error"
    },
    {
      "inputs": [],
      "name": "ReentrancyGuardReentrantCall",
      "type": "error"
    },
    {
      "anonymous": false,
      "inputs": [
        {
          "indexed": true,
          "internalType": "address",
          "name": "publisher",
          "type": "address"
        },
        {
          "indexed": false,
          "internalType": "uint256",
          "name": "bitmask",
          "type": "uint256"
        }
      ],
      "name": "CategoriesUpdated",
      "type": "event"
    },
    {
      "anonymous": false,
      "inputs": [
        {
          "indexed": true,
          "internalType": "address",
          "name": "previousOwner",
          "type": "address"
        },
        {
          "indexed": true,
          "internalType": "address",
          "name": "newOwner",
          "type": "address"
        }
      ],
      "name": "OwnershipTransferred",
      "type": "event"
    },
    {
      "anonymous": false,
      "inputs": [
        {
          "indexed": false,
          "internalType": "address",
          "name": "account",
          "type": "address"
        }
      ],
      "name": "Paused",
      "type": "event"
    },
    {
      "anonymous": false,
      "inputs": [
        {
          "indexed": true,
          "internalType": "address",
          "name": "publisher",
          "type": "address"
        },
        {
          "indexed": false,
          "internalType": "uint16",
          "name": "takeRateBps",
          "type": "uint16"
        }
      ],
      "name": "PublisherRegistered",
      "type": "event"
    },
    {
      "anonymous": false,
      "inputs": [
        {
          "indexed": true,
          "internalType": "address",
          "name": "publisher",
          "type": "address"
        },
        {
          "indexed": false,
          "internalType": "uint16",
          "name": "newTakeRateBps",
          "type": "uint16"
        }
      ],
      "name": "PublisherTakeRateApplied",
      "type": "event"
    },
    {
      "anonymous": false,
      "inputs": [
        {
          "indexed": true,
          "internalType": "address",
          "name": "publisher",
          "type": "address"
        },
        {
          "indexed": false,
          "internalType": "uint16",
          "name": "newTakeRateBps",
          "type": "uint16"
        },
        {
          "indexed": false,
          "internalType": "uint256",
          "name": "effectiveBlock",
          "type": "uint256"
        }
      ],
      "name": "PublisherTakeRateQueued",
      "type": "event"
    },
    {
      "anonymous": false,
      "inputs": [
        {
          "indexed": false,
          "internalType": "address",
          "name": "account",
          "type": "address"
        }
      ],
      "name": "Unpaused",
      "type": "event"
    },
    {
      "inputs": [],
      "name": "DEFAULT_TAKE_RATE_BPS",
      "outputs": [
        {
          "internalType": "uint16",
          "name": "",
          "type": "uint16"
        }
      ],
      "stateMutability": "view",
      "type": "function"
    },
    {
      "inputs": [],
      "name": "MAX_TAKE_RATE_BPS",
      "outputs": [
        {
          "internalType": "uint16",
          "name": "",
          "type": "uint16"
        }
      ],
      "stateMutability": "view",
      "type": "function"
    },
    {
      "inputs": [],
      "name": "MIN_TAKE_RATE_BPS",
      "outputs": [
        {
          "internalType": "uint16",
          "name": "",
          "type": "uint16"
        }
      ],
      "stateMutability": "view",
      "type": "function"
    },
    {
      "inputs": [],
      "name": "applyTakeRateUpdate",
      "outputs": [],
      "stateMutability": "nonpayable",
      "type": "function"
    },
    {
      "inputs": [
        {
          "internalType": "address",
          "name": "publisher",
          "type": "address"
        }
      ],
      "name": "getCategories",
      "outputs": [
        {
          "internalType": "uint256",
          "name": "",
          "type": "uint256"
        }
      ],
      "stateMutability": "view",
      "type": "function"
    },
    {
      "inputs": [
        {
          "internalType": "address",
          "name": "publisher",
          "type": "address"
        }
      ],
      "name": "getPublisher",
      "outputs": [
        {
          "components": [
            {
              "internalType": "address",
              "name": "addr",
              "type": "address"
            },
            {
              "internalType": "uint16",
              "name": "takeRateBps",
              "type": "uint16"
            },
            {
              "internalType": "uint16",
              "name": "pendingTakeRateBps",
              "type": "uint16"
            },
            {
              "internalType": "uint256",
              "name": "takeRateEffectiveBlock",
              "type": "uint256"
            },
            {
              "internalType": "uint256",
              "name": "categoryBitmask",
              "type": "uint256"
            },
            {
              "internalType": "bool",
              "name": "registered",
              "type": "bool"
            }
          ],
          "internalType": "struct IDatumPublishers.Publisher",
          "name": "",
          "type": "tuple"
        }
      ],
      "stateMutability": "view",
      "type": "function"
    },
    {
      "inputs": [
        {
          "internalType": "address",
          "name": "publisher",
          "type": "address"
        }
      ],
      "name": "isRegisteredWithRate",
      "outputs": [
        {
          "internalType": "bool",
          "name": "",
          "type": "bool"
        },
        {
          "internalType": "uint16",
          "name": "",
          "type": "uint16"
        }
      ],
      "stateMutability": "view",
      "type": "function"
    },
    {
      "inputs": [],
      "name": "owner",
      "outputs": [
        {
          "internalType": "address",
          "name": "",
          "type": "address"
        }
      ],
      "stateMutability": "view",
      "type": "function"
    },
    {
      "inputs": [],
      "name": "pause",
      "outputs": [],
      "stateMutability": "nonpayable",
      "type": "function"
    },
    {
      "inputs": [],
      "name": "paused",
      "outputs": [
        {
          "internalType": "bool",
          "name": "",
          "type": "bool"
        }
      ],
      "stateMutability": "view",
      "type": "function"
    },
    {
      "inputs": [
        {
          "internalType": "uint16",
          "name": "takeRateBps",
          "type": "uint16"
        }
      ],
      "name": "registerPublisher",
      "outputs": [],
      "stateMutability": "nonpayable",
      "type": "function"
    },
    {
      "inputs": [],
      "name": "renounceOwnership",
      "outputs": [],
      "stateMutability": "nonpayable",
      "type": "function"
    },
    {
      "inputs": [
        {
          "internalType": "uint256",
          "name": "bitmask",
          "type": "uint256"
        }
      ],
      "name": "setCategories",
      "outputs": [],
      "stateMutability": "nonpayable",
      "type": "function"
    },
    {
      "inputs": [],
      "name": "takeRateUpdateDelayBlocks",
      "outputs": [
        {
          "internalType": "uint256",
          "name": "",
          "type": "uint256"
        }
      ],
      "stateMutability": "view",
      "type": "function"
    },
    {
      "inputs": [
        {
          "internalType": "address",
          "name": "newOwner",
          "type": "address"
        }
      ],
      "name": "transferOwnership",
      "outputs": [],
      "stateMutability": "nonpayable",
      "type": "function"
    },
    {
      "inputs": [],
      "name": "unpause",
      "outputs": [],
      "stateMutability": "nonpayable",
      "type": "function"
    },
    {
      "inputs": [
        {
          "internalType": "uint16",
          "name": "newTakeRateBps",
          "type": "uint16"
        }
      ],
      "name": "updateTakeRate",
      "outputs": [],
      "stateMutability": "nonpayable",
      "type": "function"
    }
  ],
  "bytecode": "0x6080346100da57601f610b8a38819003918201601f19168301916001600160401b038311848410176100df578084926020946040528339810103126100da575160017f9b779b17422d0df92223018b32b4d1fa46e071723d6817e2486d003becc55f005533156100c15760008054336001600160a01b0319821681178355604051939290916001600160a01b0316907f8be0079c531659141344cd1fd0a4f28419497f9722a3daafe3b4186f6b6457e09080a3600155610a9490816100f68239f35b604051631e4fbdf760e01b815260006004820152602490fd5b600080fd5b634e487b7160e01b600052604160045260246000fdfe608060408181526004908136101561001657600080fd5b600092833560e01c9081631368ae34146108ed575080633f4ba83a1461087f57806346fa51061461080b578063561dec5e146106d25780635c975abb146106ad578063681ceea114610671578063710f5f4d14610654578063715018a6146105f757806371505cb7146104685780638456cb5914610409578063882071a5146103ea5780638b043e081461030e5780638da5cb5b146102e6578063be56f7d6146101e0578063c64bf093146101bf578063dddab7931461016f5763f2fde38b146100df57600080fd5b3461016b57602036600319011261016b576001600160a01b03823581811693919290849003610167576101106109c1565b831561015157505082546001600160a01b0319811683178455167f8be0079c531659141344cd1fd0a4f28419497f9722a3daafe3b4186f6b6457e08380a380f35b51631e4fbdf760e01b8152908101849052602490fd5b8480fd5b8280fd5b50903461016b57602036600319011261016b57356001600160a01b0381169081900361016b57918192815260026020522061ffff60ff600383015416915460a01c16825191151582526020820152f35b8382346101dc57816003193601126101dc5760209051610bb88152f35b5080fd5b508290346101dc5760203660031901126101dc5782359061ffff8216918281036102e25761020c610a0e565b6102146109ed565b338452600260205261022e60ff6003848720015416610909565b610bb8831015806102d6575b61024390610946565b3384526002602052818420805461ffff60b01b191660b09290921b61ffff60b01b169190911781556001544301908143116102c357908060017fdf5c1f06c9ba0334249ab31d6384406fe4ee294f200c0574e34f79cbd85b417794930155815193845260208401523392a26001600080516020610a3f8339815191525580f35b634e487b7160e01b855260118652602485fd5b50611f4083111561023a565b8380fd5b8382346101dc57816003193601126101dc57905490516001600160a01b039091168152602090f35b50903461016b57602036600319011261016b576001600160a01b039035818116908190036102e25783839160c09560a061034661098b565b82815282602082015282868201528260608201528260808201520152815260026020522061037261098b565b9181549081169384845261ffff6020850192818160a01c168452818387019160b01c168152816001860154946060880195865260a060ff600360028a01549960808c019a8b520154169801971515885284519889525116602088015251169085015251606084015251608083015251151560a0820152f35b8382346101dc57816003193601126101dc576020906001549051908152f35b8382346101dc57816003193601126101dc5760207f62e78cea01bee320cd4e420270b5ea74000d11b0c9f74754ebdbfc544b05a258916104476109c1565b61044f6109ed565b835460ff60a01b1916600160a01b17845551338152a180f35b503461016b57602090816003193601126102e25782359261ffff908185168095036105f357610495610a0e565b61049d6109ed565b3386526002845260ff60038488200154166105bb575090600160037f6b430258662a417ff5971ca033f7ae145cc60eab68a9f69b4e5c9a896e5695da9493610bb8871015806105af575b6104f090610946565b84886105766104fd61098b565b338082528482018c8152898301858152606084018681526080850187815260a08087019c8d529488526002909852958b9020935184549251915161ffff60b01b908a1660b01b166001600160c01b03199093166001600160a01b039091161761ffff60a01b9890911690921b9690961617949094178455565b516001830155516002820155019051151560ff80198354169116179055519283523392a26001600080516020610a3f8339815191525580f35b50611f408711156104e7565b825162461bcd60e51b81529081018490526012602482015271105b1c9958591e481c9959da5cdd195c995960721b6044820152606490fd5b8580fd5b83346106515780600319360112610651576106106109c1565b80546001600160a01b03198116825581906001600160a01b03167f8be0079c531659141344cd1fd0a4f28419497f9722a3daafe3b4186f6b6457e08280a380f35b80fd5b8382346101dc57816003193601126101dc57602090516113888152f35b50903461016b57602036600319011261016b57356001600160a01b0381169081900361016b578183600292602095528285522001549051908152f35b8382346101dc57816003193601126101dc5760ff6020925460a01c1690519015158152f35b50903461016b578260031936011261016b576106ec610a0e565b6106f46109ed565b33835260026020528183209161071060ff600385015416610909565b61ffff9182845460b01c1680156107d45760018501918254431061079d5750845461ffff60a01b191660a09190911b61ffff60a01b16178455849084549461ffff60b01b198616905555519160a01c1681527fd8e99edc4aac9bf2d30f2aca1ebb0d165e96d9e0c007a2d763cf293a2d2f453160203392a26001600080516020610a3f8339815191525580f35b606490602085519162461bcd60e51b8352820152601160248201527011195b185e481b9bdd08195b185c1cd959607a1b6044820152fd5b506020606492519162461bcd60e51b835282015260116024820152704e6f2070656e64696e672075706461746560781b6044820152fd5b50903461016b57602036600319011261016b5735906108286109ed565b338352600260205261084260ff6003838620015416610909565b33835260026020528160028285200155519081527f5070753510ae9eedbfa1960d59904cb45512bce3047a7ddc7537eef09ec917dd60203392a280f35b50903461016b578260031936011261016b576108996109c1565b82549060ff8260a01c16156108df575060ff60a01b19168255513381527f5db9ee0a495bf2e6ff9c91a7834c1ba4fdd244a5e8aa4e537bd38aeae4b073aa90602090a180f35b8251638dfc202b60e01b8152fd5b8490346101dc57816003193601126101dc5780611f4060209252f35b1561091057565b60405162461bcd60e51b815260206004820152600e60248201526d139bdd081c9959da5cdd195c995960921b6044820152606490fd5b1561094d57565b60405162461bcd60e51b815260206004820152601660248201527554616b652072617465206f7574206f662072616e676560501b6044820152606490fd5b6040519060c0820182811067ffffffffffffffff8211176109ab57604052565b634e487b7160e01b600052604160045260246000fd5b6000546001600160a01b031633036109d557565b60405163118cdaa760e01b8152336004820152602490fd5b60ff60005460a01c166109fc57565b60405163d93c066560e01b8152600490fd5b600080516020610a3f8339815191526002815414610a2c5760029055565b604051633ee5aeb560e01b8152600490fdfe9b779b17422d0df92223018b32b4d1fa46e071723d6817e2486d003becc55f00a2646970667358221220c309472375684e4e28239d9b931b897d2c162263abd389ff5da89f29268b849064736f6c63430008180033",
  "linkReferences": {},
  "deployedLinkReferences": {}
}