{
  "_format": "hh-sol-artifact-1",
  "contractName": "DatumSettlement",
  "sourceName": "contracts/DatumSettlement.sol",
  "abi": [
    {
      "inputs": [
        {
          "internalType": "address",
          "name": "_campaigns",
          "type": "address"
        },
        {
          "internalType": "address",
          "name": "_pauseRegistry",
          "type": "address"
        }
      ],
      "stateMutability": "nonpayable",
      "type": "constructor"
    },
    {
      "inputs": [],
      "name": "ReentrancyGuardReentrantCall",
      "type": "error"
    },
    {
      "anonymous": false,
      "inputs": [
        {
          "indexed": true,
          "internalType": "uint256",
          "name": "campaignId",
          "type": "uint256"
        },
        {
          "indexed": true,
          "internalType": "address",
          "name": "user",
          "type": "address"
        },
        {
          "indexed": false,
          "internalType": "uint256",
          "name": "nonce",
          "type": "uint256"
        },
        {
          "indexed": false,
          "internalType": "uint8",
          "name": "reasonCode",
          "type": "uint8"
        }
      ],
      "name": "ClaimRejected",
      "type": "event"
    },
    {
      "anonymous": false,
      "inputs": [
        {
          "indexed": true,
          "internalType": "uint256",
          "name": "campaignId",
          "type": "uint256"
        },
        {
          "indexed": true,
          "internalType": "address",
          "name": "user",
          "type": "address"
        },
        {
          "indexed": true,
          "internalType": "address",
          "name": "publisher",
          "type": "address"
        },
        {
          "indexed": false,
          "internalType": "uint256",
          "name": "impressionCount",
          "type": "uint256"
        },
        {
          "indexed": false,
          "internalType": "uint256",
          "name": "clearingCpmPlanck",
          "type": "uint256"
        },
        {
          "indexed": false,
          "internalType": "uint256",
          "name": "nonce",
          "type": "uint256"
        },
        {
          "indexed": false,
          "internalType": "uint256",
          "name": "publisherPayment",
          "type": "uint256"
        },
        {
          "indexed": false,
          "internalType": "uint256",
          "name": "userPayment",
          "type": "uint256"
        },
        {
          "indexed": false,
          "internalType": "uint256",
          "name": "protocolFee",
          "type": "uint256"
        }
      ],
      "name": "ClaimSettled",
      "type": "event"
    },
    {
      "inputs": [],
      "name": "budgetLedger",
      "outputs": [
        {
          "internalType": "address",
          "name": "",
          "type": "address"
        }
      ],
      "stateMutability": "view",
      "type": "function"
    },
    {
      "inputs": [],
      "name": "campaigns",
      "outputs": [
        {
          "internalType": "address",
          "name": "",
          "type": "address"
        }
      ],
      "stateMutability": "view",
      "type": "function"
    },
    {
      "inputs": [
        {
          "internalType": "address",
          "name": "_budgetLedger",
          "type": "address"
        },
        {
          "internalType": "address",
          "name": "_paymentVault",
          "type": "address"
        },
        {
          "internalType": "address",
          "name": "_lifecycle",
          "type": "address"
        }
      ],
      "name": "configure",
      "outputs": [],
      "stateMutability": "nonpayable",
      "type": "function"
    },
    {
      "inputs": [
        {
          "internalType": "address",
          "name": "",
          "type": "address"
        },
        {
          "internalType": "uint256",
          "name": "",
          "type": "uint256"
        }
      ],
      "name": "lastClaimHash",
      "outputs": [
        {
          "internalType": "bytes32",
          "name": "",
          "type": "bytes32"
        }
      ],
      "stateMutability": "view",
      "type": "function"
    },
    {
      "inputs": [
        {
          "internalType": "address",
          "name": "",
          "type": "address"
        },
        {
          "internalType": "uint256",
          "name": "",
          "type": "uint256"
        }
      ],
      "name": "lastNonce",
      "outputs": [
        {
          "internalType": "uint256",
          "name": "",
          "type": "uint256"
        }
      ],
      "stateMutability": "view",
      "type": "function"
    },
    {
      "inputs": [],
      "name": "lifecycle",
      "outputs": [
        {
          "internalType": "address",
          "name": "",
          "type": "address"
        }
      ],
      "stateMutability": "view",
      "type": "function"
    },
    {
      "inputs": [],
      "name": "owner",
      "outputs": [
        {
          "internalType": "address",
          "name": "",
          "type": "address"
        }
      ],
      "stateMutability": "view",
      "type": "function"
    },
    {
      "inputs": [],
      "name": "pauseRegistry",
      "outputs": [
        {
          "internalType": "address",
          "name": "",
          "type": "address"
        }
      ],
      "stateMutability": "view",
      "type": "function"
    },
    {
      "inputs": [],
      "name": "paymentVault",
      "outputs": [
        {
          "internalType": "address",
          "name": "",
          "type": "address"
        }
      ],
      "stateMutability": "view",
      "type": "function"
    },
    {
      "inputs": [],
      "name": "relayContract",
      "outputs": [
        {
          "internalType": "address",
          "name": "",
          "type": "address"
        }
      ],
      "stateMutability": "view",
      "type": "function"
    },
    {
      "inputs": [
        {
          "internalType": "address",
          "name": "addr",
          "type": "address"
        }
      ],
      "name": "setRelayContract",
      "outputs": [],
      "stateMutability": "nonpayable",
      "type": "function"
    },
    {
      "inputs": [
        {
          "components": [
            {
              "internalType": "address",
              "name": "user",
              "type": "address"
            },
            {
              "internalType": "uint256",
              "name": "campaignId",
              "type": "uint256"
            },
            {
              "components": [
                {
                  "internalType": "uint256",
                  "name": "campaignId",
                  "type": "uint256"
                },
                {
                  "internalType": "address",
                  "name": "publisher",
                  "type": "address"
                },
                {
                  "internalType": "uint256",
                  "name": "impressionCount",
                  "type": "uint256"
                },
                {
                  "internalType": "uint256",
                  "name": "clearingCpmPlanck",
                  "type": "uint256"
                },
                {
                  "internalType": "uint256",
                  "name": "nonce",
                  "type": "uint256"
                },
                {
                  "internalType": "bytes32",
                  "name": "previousClaimHash",
                  "type": "bytes32"
                },
                {
                  "internalType": "bytes32",
                  "name": "claimHash",
                  "type": "bytes32"
                },
                {
                  "internalType": "bytes",
                  "name": "zkProof",
                  "type": "bytes"
                }
              ],
              "internalType": "struct IDatumSettlement.Claim[]",
              "name": "claims",
              "type": "tuple[]"
            }
          ],
          "internalType": "struct IDatumSettlement.ClaimBatch[]",
          "name": "batches",
          "type": "tuple[]"
        }
      ],
      "name": "settleClaims",
      "outputs": [
        {
          "components": [
            {
              "internalType": "uint256",
              "name": "settledCount",
              "type": "uint256"
            },
            {
              "internalType": "uint256",
              "name": "rejectedCount",
              "type": "uint256"
            },
            {
              "internalType": "uint256",
              "name": "totalPaid",
              "type": "uint256"
            }
          ],
          "internalType": "struct IDatumSettlement.SettlementResult",
          "name": "result",
          "type": "tuple"
        }
      ],
      "stateMutability": "nonpayable",
      "type": "function"
    },
    {
      "inputs": [
        {
          "internalType": "address",
          "name": "newOwner",
          "type": "address"
        }
      ],
      "name": "transferOwnership",
      "outputs": [],
      "stateMutability": "nonpayable",
      "type": "function"
    }
  ],
  "bytecode": "0x6080346100ce57601f61122d38819003918201601f19168301916001600160401b038311848410176100d35780849260409485528339810103126100ce57610052602061004b836100e9565b92016100e9565b60017f9b779b17422d0df92223018b32b4d1fa46e071723d6817e2486d003becc55f00556001600160a01b03918216919061008e8315156100fd565b169061009b8215156100fd565b60018060a01b0319903382600054161760005581600154161760015560065416176006556040516110fd90816101308239f35b600080fd5b634e487b7160e01b600052604160045260246000fd5b51906001600160a01b03821682036100ce57565b1561010457565b60405162461bcd60e51b815260206004820152600360248201526204530360ec1b6044820152606490fdfe608080604052600436101561001357600080fd5b60003560e01c9081631c82732d14610c6f575080633ed089bb14610c4657806355d28f2014610bac5780635c550ac214610b835780638da5cb5b14610b5a578063ac0cc86814610b31578063bf5fa94f14610ae9578063c45233ec146101e9578063c60011bf146101a1578063cb5697f914610178578063ed3916f71461014f578063f2fde38b146100ff5763fdfa2bfd146100ae57600080fd5b346100fa5760203660031901126100fa576100c7610c93565b6000546001600160a01b0391906100e19083163314610ca9565b166001600160601b0360a01b6005541617600555600080f35b600080fd5b346100fa5760203660031901126100fa57610118610c93565b600054906001600160a01b03906101323383851614610ca9565b169061013f821515610cdb565b6001600160a01b03191617600055005b346100fa5760003660031901126100fa576003546040516001600160a01b039091168152602090f35b346100fa5760003660031901126100fa576001546040516001600160a01b039091168152602090f35b346100fa5760403660031901126100fa576001600160a01b036101c2610c93565b16600052600860205260406000206024356000526020526020604060002054604051908152f35b346100fa5760203660031901126100fa5767ffffffffffffffff600435116100fa573660236004350112156100fa5767ffffffffffffffff60043560040135116100fa573660246004356004013560051b6004350101116100fa576040516060810181811067ffffffffffffffff8211176108595760405260008152600060208201526000604082015260027f9b779b17422d0df92223018b32b4d1fa46e071723d6817e2486d003becc55f005414610ad75760027f9b779b17422d0df92223018b32b4d1fa46e071723d6817e2486d003becc55f005560065460408051635c975abb60e01b60208201908152600482529092918301916001600160a01b03169067ffffffffffffffff83118484101761085957600093849360405251915afa610311610d29565b81610ac9575b81610aae575b5015610a855760005b6004356004013581106103765760608260017f9b779b17422d0df92223018b32b4d1fa46e071723d6817e2486d003becc55f00556040805191805183526020810151602084015201516040820152f35b60248160051b6004350101356082196004353603018112156100fa5760043581016024016001600160a01b036103ab82610d8c565b1633148015610a71575b15610a46576103c390610d8c565b6004358201368190036042190160649091013512156100fa5767ffffffffffffffff600435830160648101350160240135116100fa576004358201606481013501602481013560051b36036044909101136100fa57600560043583016064810135016024013511610a1b5760009060005b60043584016064810135016024013581106104555750505050600101610326565b6004358401606481013501368190036101421901600583901b9091016044013512156100fa57600435840160648101358101600583901b810160449081013590910181019291859101358335036109a15761092b576104b48383610daf565b93911561089a57506127106104fa61ffff6103e86104f16004358b01606481013501600588901b8101604401350160848101359060a40135611075565b04951685611075565b04926105068482611088565b93611d4c9185838102048314861517156108435761052a6127108488020487611088565b60025460035460405163cdbb175560e01b602082015287356024820152604481018590526001600160a01b039182166064808301919091528152911667ffffffffffffffff60a083019081119083111761085957816000929160a084930160405282602083519301915af161059d610d29565b901561086f57806020806105b693518301019101610d74565b6003549094906001600160a01b03166105e86004358d0160648181013590910160058b901b8101604401350101610d8c565b6040516336e5b12960e21b60208201526001600160a01b03918216602482015260448101879052908b1660648201526127108a840204608482015260a4808201859052815267ffffffffffffffff60e08201908111908211176108595760008161066c9360e083940160405282602083519301915af1610666610d29565b50611095565b60018060a01b03891660005260076020526040600020863560005260205260c460448860051b8d60648160043501013590600435010101013560648d6004350101358d600435010101013560406000205560018060a01b03891660005260086020526040600020863560005260205261010460448860051b8d60648160043501013590600435010101013560648d6004350101358d60043501010101356040600020556107198d51610da0565b8d5260408d015190838201821161084357920160408d01526001968a92612710916001600160a01b03610765600435870160648181013590910160058d901b8101604401350101610d8c565b6040805160043590980160648101350160058d901b810160440135016084810135895260a481013560208a015260c40135908801526060870197909752910291909104608084015260a0808401929092529092169186901b8690038716908435907fa5eadf6804094ce74c0270522d42806aaed851ce85be631979887dc934169e7a9060c090a46107f9575b505b01610434565b60008061083d92858060a01b03600454169082604051602081019263012aa7e360e71b84523560248201526024815261083181610d0d565b51925af1610666610d29565b876107f1565b634e487b7160e01b600052601160045260246000fd5b634e487b7160e01b600052604160045260246000fd5b60405162461bcd60e51b815260206004820152600360248201526222989b60e91b6044820152606490fd5b60ff169493925060078514610922575b60019293946108bc60208a0151610da0565b60208a810191909152604080516004358a01606481013501600587901b8101604401350160c4013581529182019290925260a085901b85900386169235917f9ffeb4efbd312aa0a3272b4bcd4600a2c961b679f80e437c30ace1296ce714a391a36107f3565b600193506108aa565b60019161093b6020890151610da0565b602089810191909152604080516004358901606481013501600586901b8101604401350160c40135815291820185905260a085901b85900386169235917f9ffeb4efbd312aa0a3272b4bcd4600a2c961b679f80e437c30ace1296ce714a39190a36107f3565b506001916109b26020890151610da0565b602089810191909152604080516004358901606481013501600586901b8101604401350160c40135815260009281019290925260a085901b85900386169235917f9ffeb4efbd312aa0a3272b4bcd4600a2c961b679f80e437c30ace1296ce714a39190a36107f3565b60405162461bcd60e51b815260206004820152600360248201526208a64760eb1b6044820152606490fd5b60405162461bcd60e51b815260206004820152600360248201526222999960e91b6044820152606490fd5b506005546001600160a01b031633146103b5565b60405162461bcd60e51b81526020600482015260016024820152600560fc1b6044820152606490fd5b610ac2915060208082518301019101610d74565b158261031d565b905060208151101590610317565b604051633ee5aeb560e01b8152600490fd5b346100fa5760403660031901126100fa576001600160a01b03610b0a610c93565b16600052600760205260406000206024356000526020526020604060002054604051908152f35b346100fa5760003660031901126100fa576004546040516001600160a01b039091168152602090f35b346100fa5760003660031901126100fa576000546040516001600160a01b039091168152602090f35b346100fa5760003660031901126100fa576005546040516001600160a01b039091168152602090f35b346100fa5760603660031901126100fa57610bc5610c93565b6024356001600160a01b03818116918290036100fa57604435928184168094036100fa57610bf882600054163314610ca9565b1690610c05821515610cdb565b610c10811515610cdb565b610c1b831515610cdb565b6001600160601b0360a01b918260025416176002558160035416176003556004541617600455600080f35b346100fa5760003660031901126100fa576002546040516001600160a01b039091168152602090f35b346100fa5760003660031901126100fa576006546001600160a01b03168152602090f35b600435906001600160a01b03821682036100fa57565b15610cb057565b60405162461bcd60e51b815260206004820152600360248201526208a62760eb1b6044820152606490fd5b15610ce257565b60405162461bcd60e51b815260206004820152600360248201526204530360ec1b6044820152606490fd5b6060810190811067ffffffffffffffff82111761085957604052565b3d15610d6f5767ffffffffffffffff903d8281116108595760405192601f8201601f19908116603f01168401908111848210176108595760405282523d6000602084013e565b606090565b908160209103126100fa575180151581036100fa5790565b356001600160a01b03811681036100fa5790565b60001981146108435760010190565b91604092838101359283156110655760018060a01b0393846001541695833592815192602093848101906371e3b69760e11b825286602482015260248152610df681610d0d565b60009a8b92839251915afa90610e0a610d29565b911561103b5760808280518101031261103757848201519860ff8a16809a03611033578483015181811680910361102f57608060608501519401519a61ffff8c168c0361102b57841561101857600103611006578015610fe35781610e70888b01610d8c565b1603610fd2575b6060880135928311610fc157831692838b5260078652848b20878c528652848b20549360018501809511610fad576080890135948503610f9b578b5260088652848b20878c528652848b205460018503610f80575060a0880135610f6f575b610ee1868901610d8c565b9085519687019788526001600160601b0319809260601b168688015260601b1660548601526068850152608884015260a883015260a084013560c883015260c8825261010082019082821067ffffffffffffffff831117610f5b575251902060c0919091013503610f53576001929190565b600a91508290565b634e487b7160e01b88526041600452602488fd5b506008985089979650505050505050565b60a089013514610ed657506009985089979650505050505050565b50600799508a98975050505050505050565b634e487b7160e01b8c52601160045260248cfd5b506006985089979650505050505050565b506005985089979650505050505050565b5080610ff0878a01610d8c565b16610e7757506005985089979650505050505050565b50600499508a98975050505050505050565b5060039a508b9998505050505050505050565b8c80fd5b8b80fd5b8a80fd5b8980fd5b835162461bcd60e51b815260048101869052600360248201526245303160e81b6044820152606490fd5b5050915050600090600290600090565b8181029291811591840414171561084357565b9190820391821161084357565b1561109c57565b60405162461bcd60e51b815260206004820152600360248201526222981960e91b6044820152606490fdfea2646970667358221220980d2c353f6ea58017dbe3b996397c4ace62cd84bfd00629a20c30b2e17c77a464736f6c63430008180033",
  "linkReferences": {},
  "deployedLinkReferences": {}
}