{
  "_format": "hh-sol-artifact-1",
  "contractName": "DatumPaymentVault",
  "sourceName": "contracts/DatumPaymentVault.sol",
  "abi": [
    {
      "inputs": [],
      "stateMutability": "nonpayable",
      "type": "constructor"
    },
    {
      "inputs": [
        {
          "internalType": "address",
          "name": "owner",
          "type": "address"
        }
      ],
      "name": "OwnableInvalidOwner",
      "type": "error"
    },
    {
      "inputs": [
        {
          "internalType": "address",
          "name": "account",
          "type": "address"
        }
      ],
      "name": "OwnableUnauthorizedAccount",
      "type": "error"
    },
    {
      "inputs": [],
      "name": "ReentrancyGuardReentrantCall",
      "type": "error"
    },
    {
      "anonymous": false,
      "inputs": [
        {
          "indexed": true,
          "internalType": "address",
          "name": "previousOwner",
          "type": "address"
        },
        {
          "indexed": true,
          "internalType": "address",
          "name": "newOwner",
          "type": "address"
        }
      ],
      "name": "OwnershipTransferred",
      "type": "event"
    },
    {
      "anonymous": false,
      "inputs": [
        {
          "indexed": true,
          "internalType": "address",
          "name": "recipient",
          "type": "address"
        },
        {
          "indexed": false,
          "internalType": "uint256",
          "name": "amount",
          "type": "uint256"
        }
      ],
      "name": "ProtocolWithdrawal",
      "type": "event"
    },
    {
      "anonymous": false,
      "inputs": [
        {
          "indexed": true,
          "internalType": "address",
          "name": "publisher",
          "type": "address"
        },
        {
          "indexed": false,
          "internalType": "uint256",
          "name": "amount",
          "type": "uint256"
        }
      ],
      "name": "PublisherWithdrawal",
      "type": "event"
    },
    {
      "anonymous": false,
      "inputs": [
        {
          "indexed": true,
          "internalType": "address",
          "name": "publisher",
          "type": "address"
        },
        {
          "indexed": true,
          "internalType": "address",
          "name": "user",
          "type": "address"
        },
        {
          "indexed": false,
          "internalType": "uint256",
          "name": "total",
          "type": "uint256"
        }
      ],
      "name": "SettlementCredited",
      "type": "event"
    },
    {
      "anonymous": false,
      "inputs": [
        {
          "indexed": true,
          "internalType": "address",
          "name": "user",
          "type": "address"
        },
        {
          "indexed": false,
          "internalType": "uint256",
          "name": "amount",
          "type": "uint256"
        }
      ],
      "name": "UserWithdrawal",
      "type": "event"
    },
    {
      "inputs": [
        {
          "internalType": "address",
          "name": "publisher",
          "type": "address"
        },
        {
          "internalType": "uint256",
          "name": "pubAmount",
          "type": "uint256"
        },
        {
          "internalType": "address",
          "name": "user",
          "type": "address"
        },
        {
          "internalType": "uint256",
          "name": "userAmount",
          "type": "uint256"
        },
        {
          "internalType": "uint256",
          "name": "protocolAmount",
          "type": "uint256"
        }
      ],
      "name": "creditSettlement",
      "outputs": [],
      "stateMutability": "nonpayable",
      "type": "function"
    },
    {
      "inputs": [],
      "name": "owner",
      "outputs": [
        {
          "internalType": "address",
          "name": "",
          "type": "address"
        }
      ],
      "stateMutability": "view",
      "type": "function"
    },
    {
      "inputs": [],
      "name": "protocolBalance",
      "outputs": [
        {
          "internalType": "uint256",
          "name": "",
          "type": "uint256"
        }
      ],
      "stateMutability": "view",
      "type": "function"
    },
    {
      "inputs": [
        {
          "internalType": "address",
          "name": "",
          "type": "address"
        }
      ],
      "name": "publisherBalance",
      "outputs": [
        {
          "internalType": "uint256",
          "name": "",
          "type": "uint256"
        }
      ],
      "stateMutability": "view",
      "type": "function"
    },
    {
      "inputs": [],
      "name": "renounceOwnership",
      "outputs": [],
      "stateMutability": "nonpayable",
      "type": "function"
    },
    {
      "inputs": [
        {
          "internalType": "address",
          "name": "addr",
          "type": "address"
        }
      ],
      "name": "setSettlement",
      "outputs": [],
      "stateMutability": "nonpayable",
      "type": "function"
    },
    {
      "inputs": [],
      "name": "settlement",
      "outputs": [
        {
          "internalType": "address",
          "name": "",
          "type": "address"
        }
      ],
      "stateMutability": "view",
      "type": "function"
    },
    {
      "inputs": [
        {
          "internalType": "address",
          "name": "newOwner",
          "type": "address"
        }
      ],
      "name": "transferOwnership",
      "outputs": [],
      "stateMutability": "nonpayable",
      "type": "function"
    },
    {
      "inputs": [
        {
          "internalType": "address",
          "name": "",
          "type": "address"
        }
      ],
      "name": "userBalance",
      "outputs": [
        {
          "internalType": "uint256",
          "name": "",
          "type": "uint256"
        }
      ],
      "stateMutability": "view",
      "type": "function"
    },
    {
      "inputs": [
        {
          "internalType": "address",
          "name": "recipient",
          "type": "address"
        }
      ],
      "name": "withdrawProtocol",
      "outputs": [],
      "stateMutability": "nonpayable",
      "type": "function"
    },
    {
      "inputs": [],
      "name": "withdrawPublisher",
      "outputs": [],
      "stateMutability": "nonpayable",
      "type": "function"
    },
    {
      "inputs": [],
      "name": "withdrawUser",
      "outputs": [],
      "stateMutability": "nonpayable",
      "type": "function"
    },
    {
      "stateMutability": "payable",
      "type": "receive"
    }
  ],
  "bytecode": "0x6080806040523461009e5760017f9b779b17422d0df92223018b32b4d1fa46e071723d6817e2486d003becc55f005533156100885760008054336001600160a01b03198216811783556040519290916001600160a01b0316907f8be0079c531659141344cd1fd0a4f28419497f9722a3daafe3b4186f6b6457e09080a361075690816100a48239f35b631e4fbdf760e01b815260006004820152602490fd5b600080fdfe60806040818152600480361015610021575b505050361561001f57600080fd5b005b600092833560e01c9081630103c92b14610526575080630a6613d8146104a35780632624a57f14610430578063511606301461040757806361e98db8146103ea578063715018a6146103905780638da5cb5b146103685780638f4e6f3714610314578063abcbb55f1461027a578063db96c4a414610185578063de45db4f146101495763f2fde38b036100115734610145576020366003190112610145576100c761055a565b906100d06105fc565b6001600160a01b039182169283156100e88115610575565b6100f06105fc565b61012f57505082546001600160a01b0319811683178455167f8be0079c531659141344cd1fd0a4f28419497f9722a3daafe3b4186f6b6457e08380a380f35b51631e4fbdf760e01b8152908101849052602490fd5b8280fd5b5050346101815760203660031901126101815760209181906001600160a01b0361017161055a565b1681526002845220549051908152f35b5080fd5b50346101455760a03660031901126101455761019f61055a565b6044356001600160a01b03818116949291602435908690036102765760643591608435938160015416330361024d577fc55bfffc98791580c1b9ed7ebe27f9c58b76dd1e8eeb564feebac3adaa2381e79593610244936020969361023f931698898c5260028852868c206102148382546105d9565b90558a8c5260038852868c2061022b8482546105d9565b90556102388582546105d9565b90556105d9565b6105d9565b9051908152a380f35b855162461bcd60e51b8152602081890152600360248201526245323560e81b6044820152606490fd5b8680fd5b5050346101815781600319360112610181576102ed90610298610628565b338352600360205280832054906102b08215156105a7565b33845260036020528381812055518181527fc7c8ab309277169a63ed070feed2a9c7de84e71be9d50f6f06c898458562561c60203392a23361066a565b60017f9b779b17422d0df92223018b32b4d1fa46e071723d6817e2486d003becc55f005580f35b83346103655760203660031901126103655761032e61055a565b6103366105fc565b6001600160a01b031661034a811515610575565b6bffffffffffffffffffffffff60a01b600154161760015580f35b80fd5b505034610181578160031936011261018157905490516001600160a01b039091168152602090f35b83346103655780600319360112610365576103a96105fc565b80546001600160a01b03198116825581906001600160a01b03167f8be0079c531659141344cd1fd0a4f28419497f9722a3daafe3b4186f6b6457e08280a380f35b503461014557826003193601126101455760209250549051908152f35b50503461018157816003193601126101815760015490516001600160a01b039091168152602090f35b5050346101815781600319360112610181576102ed9061044e610628565b338352600260205280832054906104668215156105a7565b33845260026020528381812055518181527f61136c8a797391fcd52c5552ea96089e2814d10eb84c76d221f58761125c438260203392a23361066a565b5034610145576020366003190112610145576102ed916104c161055a565b906104ca6105fc565b6104d2610628565b6001600160a01b038216907e1905bb24c703671d6398a7d030fa5f3adde8e8a4e95d68b2cea1043a16f1bf9060209061050c841515610575565b8786549661051b8815156105a7565b5551858152a261066a565b84908434610145576020366003190112610145576020926001600160a01b0361054d61055a565b1681526003845220548152f35b600435906001600160a01b038216820361057057565b600080fd5b1561057c57565b60405162461bcd60e51b815260206004820152600360248201526204530360ec1b6044820152606490fd5b156105ae57565b60405162461bcd60e51b815260206004820152600360248201526245303360e81b6044820152606490fd5b919082018092116105e657565b634e487b7160e01b600052601160045260246000fd5b6000546001600160a01b0316330361061057565b60405163118cdaa760e01b8152336004820152602490fd5b7f9b779b17422d0df92223018b32b4d1fa46e071723d6817e2486d003becc55f0060028154146106585760029055565b604051633ee5aeb560e01b8152600490fd5b600080808094819460018060a01b03165af1903d1561071a5767ffffffffffffffff903d8281116107065760405192601f8201601f19908116603f01168401908111848210176106f257604052825260203d92013e5b156106c757565b60405162461bcd60e51b815260206004820152600360248201526222981960e91b6044820152606490fd5b634e487b7160e01b83526041600452602483fd5b634e487b7160e01b82526041600452602482fd5b506106c056fea2646970667358221220fdc4110fd58a0556a3b60bd8c4eb197380492a72f69cffdd462ef281ad0a335864736f6c63430008180033",
  "linkReferences": {},
  "deployedLinkReferences": {}
}