{
  "_format": "hh-sol-artifact-1",
  "contractName": "DatumCampaignLifecycle",
  "sourceName": "contracts/DatumCampaignLifecycle.sol",
  "abi": [
    {
      "inputs": [
        {
          "internalType": "address",
          "name": "_pauseRegistry",
          "type": "address"
        }
      ],
      "stateMutability": "nonpayable",
      "type": "constructor"
    },
    {
      "inputs": [],
      "name": "ReentrancyGuardReentrantCall",
      "type": "error"
    },
    {
      "anonymous": false,
      "inputs": [
        {
          "indexed": true,
          "internalType": "uint256",
          "name": "campaignId",
          "type": "uint256"
        }
      ],
      "name": "CampaignCompleted",
      "type": "event"
    },
    {
      "anonymous": false,
      "inputs": [
        {
          "indexed": true,
          "internalType": "uint256",
          "name": "campaignId",
          "type": "uint256"
        }
      ],
      "name": "CampaignExpired",
      "type": "event"
    },
    {
      "anonymous": false,
      "inputs": [
        {
          "indexed": true,
          "internalType": "uint256",
          "name": "campaignId",
          "type": "uint256"
        },
        {
          "indexed": false,
          "internalType": "uint256",
          "name": "terminationBlock",
          "type": "uint256"
        }
      ],
      "name": "CampaignTerminated",
      "type": "event"
    },
    {
      "inputs": [],
      "name": "budgetLedger",
      "outputs": [
        {
          "internalType": "contract IDatumBudgetLedger",
          "name": "",
          "type": "address"
        }
      ],
      "stateMutability": "view",
      "type": "function"
    },
    {
      "inputs": [],
      "name": "campaigns",
      "outputs": [
        {
          "internalType": "contract IDatumCampaigns",
          "name": "",
          "type": "address"
        }
      ],
      "stateMutability": "view",
      "type": "function"
    },
    {
      "inputs": [
        {
          "internalType": "uint256",
          "name": "campaignId",
          "type": "uint256"
        }
      ],
      "name": "completeCampaign",
      "outputs": [],
      "stateMutability": "nonpayable",
      "type": "function"
    },
    {
      "inputs": [
        {
          "internalType": "uint256",
          "name": "campaignId",
          "type": "uint256"
        }
      ],
      "name": "expirePendingCampaign",
      "outputs": [],
      "stateMutability": "nonpayable",
      "type": "function"
    },
    {
      "inputs": [],
      "name": "governanceContract",
      "outputs": [
        {
          "internalType": "address",
          "name": "",
          "type": "address"
        }
      ],
      "stateMutability": "view",
      "type": "function"
    },
    {
      "inputs": [],
      "name": "owner",
      "outputs": [
        {
          "internalType": "address",
          "name": "",
          "type": "address"
        }
      ],
      "stateMutability": "view",
      "type": "function"
    },
    {
      "inputs": [],
      "name": "pauseRegistry",
      "outputs": [
        {
          "internalType": "contract IDatumPauseRegistry",
          "name": "",
          "type": "address"
        }
      ],
      "stateMutability": "view",
      "type": "function"
    },
    {
      "inputs": [
        {
          "internalType": "address",
          "name": "addr",
          "type": "address"
        }
      ],
      "name": "setBudgetLedger",
      "outputs": [],
      "stateMutability": "nonpayable",
      "type": "function"
    },
    {
      "inputs": [
        {
          "internalType": "address",
          "name": "addr",
          "type": "address"
        }
      ],
      "name": "setCampaigns",
      "outputs": [],
      "stateMutability": "nonpayable",
      "type": "function"
    },
    {
      "inputs": [
        {
          "internalType": "address",
          "name": "addr",
          "type": "address"
        }
      ],
      "name": "setGovernanceContract",
      "outputs": [],
      "stateMutability": "nonpayable",
      "type": "function"
    },
    {
      "inputs": [
        {
          "internalType": "address",
          "name": "addr",
          "type": "address"
        }
      ],
      "name": "setSettlementContract",
      "outputs": [],
      "stateMutability": "nonpayable",
      "type": "function"
    },
    {
      "inputs": [],
      "name": "settlementContract",
      "outputs": [
        {
          "internalType": "address",
          "name": "",
          "type": "address"
        }
      ],
      "stateMutability": "view",
      "type": "function"
    },
    {
      "inputs": [
        {
          "internalType": "uint256",
          "name": "campaignId",
          "type": "uint256"
        }
      ],
      "name": "terminateCampaign",
      "outputs": [],
      "stateMutability": "nonpayable",
      "type": "function"
    },
    {
      "inputs": [
        {
          "internalType": "address",
          "name": "newOwner",
          "type": "address"
        }
      ],
      "name": "transferOwnership",
      "outputs": [],
      "stateMutability": "nonpayable",
      "type": "function"
    }
  ],
  "bytecode": "0x6080346100cf57601f610f2838819003918201601f19168301916001600160401b038311848410176100d4578084926020946040528339810103126100cf57516001600160a01b038116908190036100cf5760017f9b779b17422d0df92223018b32b4d1fa46e071723d6817e2486d003becc55f005580156100a45760018060a01b0319338160005416176000556003541617600355604051610e3d90816100eb8239f35b60405162461bcd60e51b815260206004820152600360248201526204530360ec1b6044820152606490fd5b600080fd5b634e487b7160e01b600052604160045260246000fdfe60406080815260048036101561001457600080fd5b600091823560e01c908163043a0e74146109b45781631129753f146109615781631c82732d146109385781633719fd05146108e25781633ed089bb146108b95781635a5dc015146108635781638da5cb5b1461083b5781639553f180146105d1578163a66bc4cc1461057b578163b172b22214610552578163cb5697f914610529578163db62877f1461013c578163ea42418b14610113575063f2fde38b146100bc57600080fd5b3461010f57602036600319011261010f57356001600160a01b038181169182900361010b576100f083549182163314610d21565b6100fb821515610d53565b6001600160a01b03191617815580f35b8280fd5b5080fd5b83903461010f578160031936011261010f5760055490516001600160a01b039091168152602090f35b90503461010b576020806003193601126105255782359261015b610db7565b6003548351635c975abb60e01b81526001600160a01b0391849082908590829086165afa90811561051b5787916104e1575b506104bb5780825416330361049357806001541691845191630f0a4bad60e21b8352868284015260249385848681845afa93841561048957899461045a575b506101da8285161515610cd7565b8651631b06780160e21b815283810189905286818781855afa908115610450578a91610423575b50600681101561041157906102248260018c959414908115610406575b50610d85565b803b1561010b5782809160448b8b519485938492638fc53c7f60e01b84528a840152438c8401525af180156103e8579083916103f2575b50508060015416803b1561010b5782809160448b8b51948593849263e681789d60e01b84528a840152898c8401525af180156103e8579083916103d4575b50508581600254169560648a8585885416998c519a8b95869463b9f1515760e01b86528b8601528401526103e860448401525af180156103ca5791889187959493610398575b6002548951637606400160e11b81529485019384526001600160a01b03959095166020840152929550859391849003604001928492165af1801561038e5761035f575b507fc92bca14a417bef5d386fd74ad7293e9f39893a981c997f2213f829746dfc3439151438152a26001600080516020610de88339815191525580f35b8190813d8311610387575b6103748183610c96565b810103126103825738610322565b600080fd5b503d61036a565b83513d87823e3d90fd5b949295915050813d83116103c3575b6103b18183610c96565b810103126103825782868886946102df565b503d6103a7565b87513d84823e3d90fd5b6103dd90610c6c565b61010f578138610299565b88513d85823e3d90fd5b6103fb90610c6c565b61010f57813861025b565b60029150143861021e565b634e487b7160e01b8a5260218452858afd5b6104439150873d8911610449575b61043b8183610c96565b810190610d09565b38610201565b503d610431565b88513d8c823e3d90fd5b61047b919450863d8811610482575b6104738183610c96565b810190610cb8565b92386101cc565b503d610469565b87513d8b823e3d90fd5b50915162461bcd60e51b815291820152600360248201526245313960e81b6044820152606490fd5b50915162461bcd60e51b81529182015260016024820152600560fc1b6044820152606490fd5b90508381813d8311610514575b6104f88183610c96565b8101031261051057518015158103610510573861018d565b8680fd5b503d6104ee565b85513d89823e3d90fd5b8380fd5b83903461010f578160031936011261010f5760015490516001600160a01b039091168152602090f35b9190503461010b578260031936011261010b575490516001600160a01b03909116815260209150f35b50503461010f57602036600319011261010f57356001600160a01b038181169182900361010b576105b0908354163314610d21565b6105bb811515610d53565b6001600160601b0360a01b600154161760015580f35b9190503461010b5760209081600319360112610525578035926105f2610db7565b6001548151630f0a4bad60e21b81528084018690526001600160a01b0393909184168583602481845afa928315610831578893610812575b50848316610639811515610cd7565b33148015610805575b156107dc578351631b06780160e21b81528281018890528681602481855afa9081156107d25789916107b5575b5060068110156107a257906106908260018b94149081156104065750610d85565b803b1561010f57818091604487518094819363e681789d60e01b83528d89840152600360248401525af18015610798579188918895949361077d575b506002548651637606400160e11b81529384019283526001600160a01b0390941660208301529195869316918391829060400103925af1908115610774575061074b575b50507fbdef6a2e3aa892961a2dab48272f72f2bc1c7121eb1c0ed7e4a58e081c1e4be08280a26001600080516020610de88339815191525580f35b813d831161076d575b61075e8183610c96565b81010312610382573880610710565b503d610754565b513d86823e3d90fd5b81955061078b919250610c6c565b61010b57868693386106cc565b85513d84823e3d90fd5b634e487b7160e01b895260218352602489fd5b6107cc9150873d89116104495761043b8183610c96565b3861066f565b85513d8b823e3d90fd5b835162461bcd60e51b8152808301879052600360248201526245313360e81b6044820152606490fd5b5084600554163314610642565b61082a919350863d8811610482576104738183610c96565b913861062a565b84513d8a823e3d90fd5b83903461010f578160031936011261010f57905490516001600160a01b039091168152602090f35b50503461010f57602036600319011261010f57356001600160a01b038181169182900361010b57610898908354163314610d21565b6108a3811515610d53565b6001600160601b0360a01b600254161760025580f35b83903461010f578160031936011261010f5760025490516001600160a01b039091168152602090f35b50503461010f57602036600319011261010f57356001600160a01b038181169182900361010b57610917908354163314610d21565b610922811515610d53565b6001600160601b0360a01b600554161760055580f35b83903461010f578160031936011261010f5760035490516001600160a01b039091168152602090f35b50503461010f57602036600319011261010f5780356001600160a01b038181169182900361052557610997908454163314610d21565b6109a2811515610d53565b81546001600160a01b03191617905580f35b90503461010b5760209081600319360112610525578235926109d4610db7565b6001548251630f0a4bad60e21b815280830186905291906001600160a01b03908116602486858281855afa948515610c62578995610c43575b50610a1b8386161515610cd7565b8551631b06780160e21b815284810189905287818381865afa908115610be3578a91610c26575b506006811015610c1457610bed57855163916b9cbf60e01b815284810189905287818381865afa908115610be3578a91610bb2575b50431115610b8b578890823b1561010f57604489836005958a51968795869463e681789d60e01b86528b8601528401525af18015610b8157610b62575b506002548451637606400160e11b81529283018781526001600160a01b0390941660208501529193928592859216908290899082906040015b03925af19081156107745750610b39575b50507f36acbb226e849f80d0c27005d5e754a550fbba46e3b8b7efe37d99dbbd0427fb8280a26001600080516020610de88339815191525580f35b813d8311610b5b575b610b4c8183610c96565b81010312610382573880610afe565b503d610b42565b9186610aed95949298610b758895610c6c565b98929495505091610ab4565b85513d8a823e3d90fd5b8360036064928989519362461bcd60e51b855284015282015262114c8d60ea1b6044820152fd5b90508781813d8311610bdc575b610bc98183610c96565b81010312610bd8575138610a77565b8980fd5b503d610bbf565b87513d8c823e3d90fd5b8360036064928989519362461bcd60e51b85528401528201526204532360ec1b6044820152fd5b50634e487b7160e01b89526021845288fd5b610c3d9150883d8a116104495761043b8183610c96565b38610a42565b610c5b919550873d8911610482576104738183610c96565b9338610a0d565b86513d8b823e3d90fd5b67ffffffffffffffff8111610c8057604052565b634e487b7160e01b600052604160045260246000fd5b90601f8019910116810190811067ffffffffffffffff821117610c8057604052565b9081602091031261038257516001600160a01b03811681036103825790565b15610cde57565b60405162461bcd60e51b815260206004820152600360248201526245303160e81b6044820152606490fd5b90816020910312610382575160068110156103825790565b15610d2857565b60405162461bcd60e51b815260206004820152600360248201526208a62760eb1b6044820152606490fd5b15610d5a57565b60405162461bcd60e51b815260206004820152600360248201526204530360ec1b6044820152606490fd5b15610d8c57565b60405162461bcd60e51b8152602060048201526003602482015262114c4d60ea1b6044820152606490fd5b600080516020610de88339815191526002815414610dd55760029055565b604051633ee5aeb560e01b8152600490fdfe9b779b17422d0df92223018b32b4d1fa46e071723d6817e2486d003becc55f00a26469706673582212200f71d286d06ebd5c5fa2bfe1ce889f11fe80af33fecaa01f606c9bb9112c2e9c64736f6c63430008180033",
  "linkReferences": {},
  "deployedLinkReferences": {}
}