{
  "_format": "hh-sol-artifact-1",
  "contractName": "DatumPauseRegistry",
  "sourceName": "contracts/DatumPauseRegistry.sol",
  "abi": [
    {
      "inputs": [],
      "stateMutability": "nonpayable",
      "type": "constructor"
    },
    {
      "anonymous": false,
      "inputs": [
        {
          "indexed": true,
          "internalType": "address",
          "name": "by",
          "type": "address"
        }
      ],
      "name": "Paused",
      "type": "event"
    },
    {
      "anonymous": false,
      "inputs": [
        {
          "indexed": true,
          "internalType": "address",
          "name": "by",
          "type": "address"
        }
      ],
      "name": "Unpaused",
      "type": "event"
    },
    {
      "inputs": [],
      "name": "owner",
      "outputs": [
        {
          "internalType": "address",
          "name": "",
          "type": "address"
        }
      ],
      "stateMutability": "view",
      "type": "function"
    },
    {
      "inputs": [],
      "name": "pause",
      "outputs": [],
      "stateMutability": "nonpayable",
      "type": "function"
    },
    {
      "inputs": [],
      "name": "paused",
      "outputs": [
        {
          "internalType": "bool",
          "name": "",
          "type": "bool"
        }
      ],
      "stateMutability": "view",
      "type": "function"
    },
    {
      "inputs": [],
      "name": "unpause",
      "outputs": [],
      "stateMutability": "nonpayable",
      "type": "function"
    }
  ],
  "bytecode": "0x6080806040523461002857600080546001600160a01b031916331790556101b5908161002e8239f35b600080fdfe6080604052600436101561001257600080fd5b6000803560e01c80633f4ba83a146100f55780635c975abb146100d05780638456cb591461007257638da5cb5b1461004957600080fd5b3461006f578060031936011261006f57546040516001600160a01b039091168152602090f35b80fd5b503461006f578060031936011261006f578054610099336001600160a01b0383161461014d565b60ff60a01b1916600160a01b178155337f62e78cea01bee320cd4e420270b5ea74000d11b0c9f74754ebdbfc544b05a2588280a280f35b503461006f578060031936011261006f5760ff6020915460a01c166040519015158152f35b503461006f578060031936011261006f57805461011c336001600160a01b0383161461014d565b60ff60a01b19168155337f5db9ee0a495bf2e6ff9c91a7834c1ba4fdd244a5e8aa4e537bd38aeae4b073aa8280a280f35b1561015457565b60405162461bcd60e51b815260206004820152600360248201526208a62760eb1b6044820152606490fdfea26469706673582212200a8d3b74681d06e59b554495b309b32507994aedfebeab5b26b57a23b03a836764736f6c63430008180033",
  "linkReferences": {},
  "deployedLinkReferences": {}
}