{
  "_format": "hh-sol-artifact-1",
  "contractName": "DatumGovernanceV2",
  "sourceName": "contracts/DatumGovernanceV2.sol",
  "abi": [
    {
      "inputs": [
        {
          "internalType": "address",
          "name": "_campaigns",
          "type": "address"
        },
        {
          "internalType": "uint256",
          "name": "_quorum",
          "type": "uint256"
        },
        {
          "internalType": "uint256",
          "name": "_slashBps",
          "type": "uint256"
        },
        {
          "internalType": "uint256",
          "name": "_terminationQuorum",
          "type": "uint256"
        },
        {
          "internalType": "uint256",
          "name": "_baseGrace",
          "type": "uint256"
        },
        {
          "internalType": "uint256",
          "name": "_gracePerQuorum",
          "type": "uint256"
        },
        {
          "internalType": "uint256",
          "name": "_maxGrace",
          "type": "uint256"
        }
      ],
      "stateMutability": "nonpayable",
      "type": "constructor"
    },
    {
      "anonymous": false,
      "inputs": [
        {
          "indexed": true,
          "internalType": "uint256",
          "name": "campaignId",
          "type": "uint256"
        },
        {
          "indexed": false,
          "internalType": "uint8",
          "name": "result",
          "type": "uint8"
        }
      ],
      "name": "CampaignEvaluated",
      "type": "event"
    },
    {
      "anonymous": false,
      "inputs": [
        {
          "indexed": true,
          "internalType": "uint256",
          "name": "campaignId",
          "type": "uint256"
        },
        {
          "indexed": true,
          "internalType": "address",
          "name": "voter",
          "type": "address"
        },
        {
          "indexed": false,
          "internalType": "bool",
          "name": "aye",
          "type": "bool"
        },
        {
          "indexed": false,
          "internalType": "uint256",
          "name": "amount",
          "type": "uint256"
        },
        {
          "indexed": false,
          "internalType": "uint8",
          "name": "conviction",
          "type": "uint8"
        }
      ],
      "name": "VoteCast",
      "type": "event"
    },
    {
      "anonymous": false,
      "inputs": [
        {
          "indexed": true,
          "internalType": "uint256",
          "name": "campaignId",
          "type": "uint256"
        },
        {
          "indexed": true,
          "internalType": "address",
          "name": "voter",
          "type": "address"
        },
        {
          "indexed": false,
          "internalType": "uint256",
          "name": "returned",
          "type": "uint256"
        },
        {
          "indexed": false,
          "internalType": "uint256",
          "name": "slashed",
          "type": "uint256"
        }
      ],
      "name": "VoteWithdrawn",
      "type": "event"
    },
    {
      "inputs": [],
      "name": "MAX_CONVICTION",
      "outputs": [
        {
          "internalType": "uint8",
          "name": "",
          "type": "uint8"
        }
      ],
      "stateMutability": "view",
      "type": "function"
    },
    {
      "inputs": [
        {
          "internalType": "uint256",
          "name": "",
          "type": "uint256"
        }
      ],
      "name": "ayeWeighted",
      "outputs": [
        {
          "internalType": "uint256",
          "name": "",
          "type": "uint256"
        }
      ],
      "stateMutability": "view",
      "type": "function"
    },
    {
      "inputs": [],
      "name": "baseGraceBlocks",
      "outputs": [
        {
          "internalType": "uint256",
          "name": "",
          "type": "uint256"
        }
      ],
      "stateMutability": "view",
      "type": "function"
    },
    {
      "inputs": [],
      "name": "campaigns",
      "outputs": [
        {
          "internalType": "address",
          "name": "",
          "type": "address"
        }
      ],
      "stateMutability": "view",
      "type": "function"
    },
    {
      "inputs": [
        {
          "internalType": "uint8",
          "name": "conviction",
          "type": "uint8"
        }
      ],
      "name": "convictionWeight",
      "outputs": [
        {
          "internalType": "uint256",
          "name": "",
          "type": "uint256"
        }
      ],
      "stateMutability": "pure",
      "type": "function"
    },
    {
      "inputs": [
        {
          "internalType": "uint256",
          "name": "campaignId",
          "type": "uint256"
        }
      ],
      "name": "evaluateCampaign",
      "outputs": [],
      "stateMutability": "nonpayable",
      "type": "function"
    },
    {
      "inputs": [
        {
          "internalType": "uint256",
          "name": "",
          "type": "uint256"
        }
      ],
      "name": "firstNayBlock",
      "outputs": [
        {
          "internalType": "uint256",
          "name": "",
          "type": "uint256"
        }
      ],
      "stateMutability": "view",
      "type": "function"
    },
    {
      "inputs": [
        {
          "internalType": "uint256",
          "name": "campaignId",
          "type": "uint256"
        },
        {
          "internalType": "address",
          "name": "voter",
          "type": "address"
        }
      ],
      "name": "getVote",
      "outputs": [
        {
          "internalType": "uint8",
          "name": "direction",
          "type": "uint8"
        },
        {
          "internalType": "uint256",
          "name": "lockAmount",
          "type": "uint256"
        },
        {
          "internalType": "uint8",
          "name": "conviction",
          "type": "uint8"
        },
        {
          "internalType": "uint256",
          "name": "lockedUntilBlock",
          "type": "uint256"
        }
      ],
      "stateMutability": "view",
      "type": "function"
    },
    {
      "inputs": [],
      "name": "gracePerQuorum",
      "outputs": [
        {
          "internalType": "uint256",
          "name": "",
          "type": "uint256"
        }
      ],
      "stateMutability": "view",
      "type": "function"
    },
    {
      "inputs": [],
      "name": "lifecycle",
      "outputs": [
        {
          "internalType": "contract IDatumCampaignLifecycle",
          "name": "",
          "type": "address"
        }
      ],
      "stateMutability": "view",
      "type": "function"
    },
    {
      "inputs": [],
      "name": "maxGraceBlocks",
      "outputs": [
        {
          "internalType": "uint256",
          "name": "",
          "type": "uint256"
        }
      ],
      "stateMutability": "view",
      "type": "function"
    },
    {
      "inputs": [
        {
          "internalType": "uint256",
          "name": "",
          "type": "uint256"
        }
      ],
      "name": "nayWeighted",
      "outputs": [
        {
          "internalType": "uint256",
          "name": "",
          "type": "uint256"
        }
      ],
      "stateMutability": "view",
      "type": "function"
    },
    {
      "inputs": [],
      "name": "owner",
      "outputs": [
        {
          "internalType": "address",
          "name": "",
          "type": "address"
        }
      ],
      "stateMutability": "view",
      "type": "function"
    },
    {
      "inputs": [],
      "name": "quorumWeighted",
      "outputs": [
        {
          "internalType": "uint256",
          "name": "",
          "type": "uint256"
        }
      ],
      "stateMutability": "view",
      "type": "function"
    },
    {
      "inputs": [
        {
          "internalType": "uint256",
          "name": "",
          "type": "uint256"
        }
      ],
      "name": "resolved",
      "outputs": [
        {
          "internalType": "bool",
          "name": "",
          "type": "bool"
        }
      ],
      "stateMutability": "view",
      "type": "function"
    },
    {
      "inputs": [
        {
          "internalType": "address",
          "name": "_lifecycle",
          "type": "address"
        }
      ],
      "name": "setLifecycle",
      "outputs": [],
      "stateMutability": "nonpayable",
      "type": "function"
    },
    {
      "inputs": [
        {
          "internalType": "address",
          "name": "_slash",
          "type": "address"
        }
      ],
      "name": "setSlashContract",
      "outputs": [],
      "stateMutability": "nonpayable",
      "type": "function"
    },
    {
      "inputs": [
        {
          "internalType": "uint8",
          "name": "action",
          "type": "uint8"
        },
        {
          "internalType": "uint256",
          "name": "",
          "type": "uint256"
        },
        {
          "internalType": "address",
          "name": "target",
          "type": "address"
        },
        {
          "internalType": "uint256",
          "name": "value",
          "type": "uint256"
        }
      ],
      "name": "slashAction",
      "outputs": [],
      "stateMutability": "nonpayable",
      "type": "function"
    },
    {
      "inputs": [],
      "name": "slashBps",
      "outputs": [
        {
          "internalType": "uint256",
          "name": "",
          "type": "uint256"
        }
      ],
      "stateMutability": "view",
      "type": "function"
    },
    {
      "inputs": [
        {
          "internalType": "uint256",
          "name": "",
          "type": "uint256"
        }
      ],
      "name": "slashCollected",
      "outputs": [
        {
          "internalType": "uint256",
          "name": "",
          "type": "uint256"
        }
      ],
      "stateMutability": "view",
      "type": "function"
    },
    {
      "inputs": [],
      "name": "slashContract",
      "outputs": [
        {
          "internalType": "address",
          "name": "",
          "type": "address"
        }
      ],
      "stateMutability": "view",
      "type": "function"
    },
    {
      "inputs": [],
      "name": "terminationQuorum",
      "outputs": [
        {
          "internalType": "uint256",
          "name": "",
          "type": "uint256"
        }
      ],
      "stateMutability": "view",
      "type": "function"
    },
    {
      "inputs": [
        {
          "internalType": "uint256",
          "name": "campaignId",
          "type": "uint256"
        },
        {
          "internalType": "bool",
          "name": "aye",
          "type": "bool"
        },
        {
          "internalType": "uint8",
          "name": "conviction",
          "type": "uint8"
        }
      ],
      "name": "vote",
      "outputs": [],
      "stateMutability": "payable",
      "type": "function"
    },
    {
      "inputs": [
        {
          "internalType": "uint256",
          "name": "campaignId",
          "type": "uint256"
        }
      ],
      "name": "withdraw",
      "outputs": [],
      "stateMutability": "nonpayable",
      "type": "function"
    },
    {
      "stateMutability": "payable",
      "type": "receive"
    }
  ],
  "bytecode": "0x6080346100c657601f61151538819003918201601f19168301916001600160401b038311848410176100cb5780849260e0946040528339810103126100c65780516001600160a01b03811691908290036100c6576020810151604082015160608301519060808401519260c060a08601519501519561007f8115156100e1565b61008b858810156100e1565b60018060a01b031933816000541617600055600154161760015560045560055560065560075560085560095560405161140190816101148239f35b600080fd5b634e487b7160e01b600052604160045260246000fd5b156100e857565b60405162461bcd60e51b815260206004820152600360248201526204530360ec1b6044820152606490fdfe6080604081815260049081361015610022575b505050361561002057600080fd5b005b600092833560e01c908162f9b2f414611058575080630681e651146110395780632e1a7d4d14610d245780633bad121f14610d055780633d65d1b514610ca65780634324909c14610c7e57806346d7407414610c415780635b66568314610bbf5780635cdf82b614610ba057806370f3dcb114610b775780638da5cb5b14610b4f5780638e96db3914610b27578063965401fe14610aff5780639dee5ea51461062d578063a4d016b91461060e578063ac0cc868146105e5578063af79f46b146105c9578063b9b7efb61461059c578063bc3f931f1461052c578063c9f866281461050e578063cb5697f9146104e5578063d09f575d146103bc578063ebe94ea4146103995763fa348663036100125760603660031901126103955781359060243590811515938483036103915760443560ff81169384820361038c5761016c6008861115611283565b341561036357858852602092600e8452848920336000528452846000209081549060ff821661033a5760015487516371e3b69760e11b81528281018b905290608090829060249082906001600160a01b03165afa908115610330579060ff918d916102fe575b501680159081156102f3575b50156102ca575061023560039160ff6102086102026101fc896112b5565b346110a3565b97611329565b9186156102c35760015b82199283911691161785553460018601558960028601918254161790554361116e565b9101551561028b57848752600a825261025283882091825461116e565b90555b815194855234908501528301527fad7937615d4f470151b4b0850661ee33bdd908b4064137a4f99ba78d92e0146360603393a380f35b848752600b82526102a083882091825461116e565b9055838652600f81528186208054156102ba575b50610255565b439055386102b4565b6002610212565b865162461bcd60e51b8152908101869052600360248201526245343360e81b6044820152606490fd5b6001915014386101de565b610320915060803d608011610329575b6103188183611103565b810190611125565b505050386101d2565b503d61030e565b88513d8e823e3d90fd5b865162461bcd60e51b81529081018690526003602482015262229a1960e91b6044820152606490fd5b835162461bcd60e51b8152602081850152600360248201526245343160e81b6044820152606490fd5b600080fd5b8580fd5b8280fd5b8382346103b857816003193601126103b8576020906008549051908152f35b5080fd5b5034610395576080366003190112610395576103d6611093565b604435926001600160a01b039291838516850361038c57606435936002541633036104bc579060ff86949392161561040c578380f35b610900803b61043a575b50505081808092610431955af161042b6111ad565b506111ed565b38818180808380f35b60209083519283809263b9d1d49b60e01b82525afa9182156104b35750839161047c575b508282610431956104748395948495101561117b565b955092610416565b9250506020823d6020116104ab575b8161049860209383611103565b8101031261038c5790518391908261045e565b3d915061048b565b513d85823e3d90fd5b506020606492519162461bcd60e51b8352820152600360248201526245313960e81b6044820152fd5b8382346103b857816003193601126103b85760015490516001600160a01b039091168152602090f35b50903461039557826003193601126103955760209250549051908152f35b5090346103955781600319360112610395576024356001600160a01b038116919082900361038c576080938391358152600e6020522090600052602052806000209060ff82541691600181015491600360ff60028401541692015492815194855260208501528301526060820152f35b509034610395576020366003190112610395578160209360ff92358152600c855220541690519015158152f35b8382346103b857816003193601126103b8576020905160088152f35b8382346103b857816003193601126103b85760035490516001600160a01b039091168152602090f35b8382346103b857816003193601126103b8576020906006549051908152f35b50346103955760208060031936011261075a576001805483516371e3b69760e11b8152853581870181905295916024916001600160a01b039160809082908590829086165afa908115610af5578991610ad3575b50878952600a865260ff6106a0888b2054600b8952898c20549061116e565b9116806107c057508354811061079857878952600a86528689205461271090818102918183041490151715610786576113889182810292818404149015171561078657111561075e579087929184541691823b1561075a5783918891838951958694859363249f8b9360e11b85528401525af1801561075057610738575b50506000805160206113ac8339815191529251908152a280f35b610741906110d9565b61074c57843861071e565b8480fd5b85513d84823e3d90fd5b8380fd5b855162461bcd60e51b81528084018690526003818401526245343760e81b6044820152606490fd5b634e487b7160e01b8a5260118552838afd5b865162461bcd60e51b815280850187905260038185015262229a1b60e91b6044820152606490fd5b85819a999895969a148015610ac9575b156109d2575080156107e28115611251565b878952600b875284892054612710908181029181830414901517156109c05761138891828402928484041417156109c0571061099957868852600b865283882054600654116109725760075490855490811590811561093a575b505050600954808211610932575b50868852600f86528388205490811515918261091e575b5050156108f8576003541690813b156108f4578691829184518094819363db62877f60e01b83528a898401525af180156108ea576108c9575b508495846000805160206113ac833981519152959652600c84528187209060ff1982541617905551908152a280f35b946108e36000805160206113ac83398151915295966110d9565b949361089a565b82513d88823e3d90fd5b8680fd5b50606493600392519362461bcd60e51b85528401528201526245353360e81b6044820152fd5b610928925061116e565b4310153880610861565b90503861084a565b600854610946916110a3565b9061096057906109589291049061116e565b38808061083c565b634e487b7160e01b8a5260128752848afd5b5050606493600392519362461bcd60e51b855284015282015262229a9960e91b6044820152fd5b5050606493600392519362461bcd60e51b85528401528201526208a68760eb1b6044820152fd5b634e487b7160e01b8a5260118752848afd5b929893949291505060038103610a4e5750848652600c845260ff8387205416610a265750849550836000805160206113ac833981519152949552600c83528186209060ff198254161790555160038152a280f35b825162461bcd60e51b81529081018490526003818801526245343960e81b6044820152606490fd5b9080939297911480610ab4575b15610a8f57508495846000805160206113ac833981519152959652600c84528187209060ff1982541617905551908152a280f35b606493600392519362461bcd60e51b85528401528201526204535360ec1b6044820152fd5b50848652600c845260ff828720541615610a5b565b50600281146107d0565b610aec915060803d608011610329576103188183611103565b50505038610681565b87513d8b823e3d90fd5b509034610395576020366003190112610395576020928291358152600b845220549051908152f35b509034610395576020366003190112610395576020928291358152600a845220549051908152f35b8382346103b857816003193601126103b857905490516001600160a01b039091168152602090f35b8382346103b857816003193601126103b85760025490516001600160a01b039091168152602090f35b8382346103b857816003193601126103b8576020906009549051908152f35b50903461039557602036600319011261039557610bda61107d565b83546001600160a01b039190610bf3908316331461121f565b16918215610c185750506bffffffffffffffffffffffff60a01b600354161760035580f35b906020606492519162461bcd60e51b8352820152600360248201526204530360ec1b6044820152fd5b8382346103b85760203660031901126103b857602090610c77610c62611093565b610c72600860ff83161115611283565b6112b5565b9051908152f35b509034610395576020366003190112610395576020928291358152600d845220549051908152f35b8334610d02576020366003190112610d0257610cc061107d565b81546001600160a01b0390610cd8908216331461121f565b60025491610ce882841615611251565b16906bffffffffffffffffffffffff60a01b161760025580f35b80fd5b8382346103b857816003193601126103b8576020906007549051908152f35b50346103955760208060031936011261075a57823591828552600e825280852033865282528085209160ff908184541691821561101057600385019081544310610fe7579088916001870196875491610d8d6002830193610d87838654166112b5565b906110a3565b6001869814600014610fcb578a8652600a8752610dae8987209182546110cc565b90555b898552600c8652808886205416610ee0575b50610dcf8689546110cc565b99610900803b610e31575b5050837f8c47551e82978eaef84316fdfaafc8cc35f127c6bffedcb2a600ce688cbc047a9860ff199283815416905555815416905555610e23878080808a335af161042b6111ad565b82519586528501523393a380f35b869089519283809263b9d1d49b60e01b82525afa908115610ed6578591610e89575b507f8c47551e82978eaef84316fdfaafc8cc35f127c6bffedcb2a600ce688cbc047a98610e8386928d101561117b565b98610dda565b90508581813d8311610ecf575b610ea08183611103565b8101031261074c57517f8c47551e82978eaef84316fdfaafc8cc35f127c6bffedcb2a600ce688cbc047a610e53565b503d610e96565b88513d87823e3d90fd5b60015488516371e3b69760e11b8152808d018c905290608090829060249082906001600160a01b03165afa908115610fc1579082918791610f9f575b5016908b600383149283610f91575b8315610f71575b505050610f40575b38610dc3565b9450612710610f538854600554906110a3565b0494888452600d8552868420610f6a87825461116e565b9055610f3a565b14915081610f83575b50388b81610f32565b600191508254161438610f7a565b845483166002149350610f2b565b610fb8915060803d608011610329576103188183611103565b50505038610f1c565b89513d88823e3d90fd5b8a8652600b8752610fe08987209182546110cc565b9055610db1565b845162461bcd60e51b8152808901849052600360248201526245343560e81b6044820152606490fd5b835162461bcd60e51b81528088018390526003602482015262114d0d60ea1b6044820152606490fd5b8382346103b857816003193601126103b8576020906005549051908152f35b9290503461075a57602036600319011261075a5792602093358152600f845220548152f35b600435906001600160a01b038216820361038c57565b6004359060ff8216820361038c57565b818102929181159184041417156110b657565b634e487b7160e01b600052601160045260246000fd5b919082039182116110b657565b67ffffffffffffffff81116110ed57604052565b634e487b7160e01b600052604160045260246000fd5b90601f8019910116810190811067ffffffffffffffff8211176110ed57604052565b919082608091031261038c57815160ff8116810361038c5760208301519092906001600160a01b038116810361038c57916060604083015192015161ffff8116810361038c5790565b919082018092116110b657565b1561118257565b60405162461bcd60e51b815260206004820152600360248201526208a6a760eb1b6044820152606490fd5b3d156111e8573d9067ffffffffffffffff82116110ed57604051916111dc601f8201601f191660200184611103565b82523d6000602084013e565b606090565b156111f457565b60405162461bcd60e51b815260206004820152600360248201526222981960e91b6044820152606490fd5b1561122657565b60405162461bcd60e51b815260206004820152600360248201526208a62760eb1b6044820152606490fd5b1561125857565b60405162461bcd60e51b815260206004820152600360248201526245353160e81b6044820152606490fd5b1561128a57565b60405162461bcd60e51b815260206004820152600360248201526204534360ec1b6044820152606490fd5b60ff168015611323576001811461131d57600281146113175760038114611311576004811461130b576005811461130557600681146112ff576007146112fa57601590565b601290565b50600e90565b50600990565b50600690565b50600490565b50600390565b50600290565b50600190565b60ff1680156113a5576001811461139e5760028114611397576003811461138f5760048114611387576005811461137f576006811461137757600714611370576250334090565b623b538090565b5062278d0090565b506213c68090565b5062049d4090565b50620189c090565b5061a8c090565b5061384090565b5060009056fe292505995fef5e27348c0bbcdf0063b30a7ef1c1296e6b808d6fe995196e2392a2646970667358221220d5ba0f9386659220fa7687033076edebaa0134e523bd0b94951deacc4694a69064736f6c63430008180033",
  "linkReferences": {},
  "deployedLinkReferences": {}
}