{
  "_format": "hh-sol-artifact-1",
  "contractName": "DatumRelay",
  "sourceName": "contracts/DatumRelay.sol",
  "abi": [
    {
      "inputs": [
        {
          "internalType": "address",
          "name": "_settlement",
          "type": "address"
        },
        {
          "internalType": "address",
          "name": "_campaigns",
          "type": "address"
        },
        {
          "internalType": "address",
          "name": "_pauseRegistry",
          "type": "address"
        }
      ],
      "stateMutability": "nonpayable",
      "type": "constructor"
    },
    {
      "inputs": [],
      "name": "DOMAIN_SEPARATOR",
      "outputs": [
        {
          "internalType": "bytes32",
          "name": "",
          "type": "bytes32"
        }
      ],
      "stateMutability": "view",
      "type": "function"
    },
    {
      "inputs": [],
      "name": "campaigns",
      "outputs": [
        {
          "internalType": "contract IDatumCampaignsSettlement",
          "name": "",
          "type": "address"
        }
      ],
      "stateMutability": "view",
      "type": "function"
    },
    {
      "inputs": [],
      "name": "pauseRegistry",
      "outputs": [
        {
          "internalType": "contract IDatumPauseRegistry",
          "name": "",
          "type": "address"
        }
      ],
      "stateMutability": "view",
      "type": "function"
    },
    {
      "inputs": [
        {
          "components": [
            {
              "internalType": "address",
              "name": "user",
              "type": "address"
            },
            {
              "internalType": "uint256",
              "name": "campaignId",
              "type": "uint256"
            },
            {
              "components": [
                {
                  "internalType": "uint256",
                  "name": "campaignId",
                  "type": "uint256"
                },
                {
                  "internalType": "address",
                  "name": "publisher",
                  "type": "address"
                },
                {
                  "internalType": "uint256",
                  "name": "impressionCount",
                  "type": "uint256"
                },
                {
                  "internalType": "uint256",
                  "name": "clearingCpmPlanck",
                  "type": "uint256"
                },
                {
                  "internalType": "uint256",
                  "name": "nonce",
                  "type": "uint256"
                },
                {
                  "internalType": "bytes32",
                  "name": "previousClaimHash",
                  "type": "bytes32"
                },
                {
                  "internalType": "bytes32",
                  "name": "claimHash",
                  "type": "bytes32"
                },
                {
                  "internalType": "bytes",
                  "name": "zkProof",
                  "type": "bytes"
                }
              ],
              "internalType": "struct IDatumSettlement.Claim[]",
              "name": "claims",
              "type": "tuple[]"
            },
            {
              "internalType": "uint256",
              "name": "deadline",
              "type": "uint256"
            },
            {
              "internalType": "bytes",
              "name": "signature",
              "type": "bytes"
            },
            {
              "internalType": "bytes",
              "name": "publisherSig",
              "type": "bytes"
            }
          ],
          "internalType": "struct IDatumSettlement.SignedClaimBatch[]",
          "name": "batches",
          "type": "tuple[]"
        }
      ],
      "name": "settleClaimsFor",
      "outputs": [
        {
          "components": [
            {
              "internalType": "uint256",
              "name": "settledCount",
              "type": "uint256"
            },
            {
              "internalType": "uint256",
              "name": "rejectedCount",
              "type": "uint256"
            },
            {
              "internalType": "uint256",
              "name": "totalPaid",
              "type": "uint256"
            }
          ],
          "internalType": "struct IDatumSettlement.SettlementResult",
          "name": "result",
          "type": "tuple"
        }
      ],
      "stateMutability": "nonpayable",
      "type": "function"
    },
    {
      "inputs": [],
      "name": "settlement",
      "outputs": [
        {
          "internalType": "contract IDatumSettlement",
          "name": "",
          "type": "address"
        }
      ],
      "stateMutability": "view",
      "type": "function"
    }
  ],
  "bytecode": "0x60e034620001b8576001600160401b0390601f620010d038819003918201601f191683019184831184841017620001a257808492606094604052833981010312620001b8576200004f81620001bd565b6200006b60406200006360208501620001bd565b9301620001bd565b6001600160a01b0391821692909190819062000089851515620001d2565b169162000098831515620001d2565b1691620000a7831515620001d2565b60805260a05260018060a01b0319600054161760005560405160208101907f8b73c3c69bb8fe3d512ecc4cf759cc79239f7b179b0ffacaa9a75d522b39400f82527f924a9a59aa4ef65e5321f92dc0ccaa51b9a854032a90fac32cd92402da6c728260408201527fc89efdaa54c0f20c7adf612882df0950f5a951637e0307cdcb4c672f298b8bc660608201524660808201523060a082015260a0815260c081019281841090841117620001a2578260405251902060c052610eca90816200020682396080518181816101e10152610caf015260a051818181606c0152610855015260c051818181610512015281816109c60152610cf60152f35b634e487b7160e01b600052604160045260246000fd5b600080fd5b51906001600160a01b0382168203620001b857565b15620001da57565b60405162461bcd60e51b815260206004820152600360248201526204530360ec1b6044820152606490fdfe608080604052600436101561001357600080fd5b60003560e01c9081631c82732d14610d19575080633644e51514610cde5780635116063014610c9957806380604208146100a05763cb5697f91461005657600080fd5b3461009b57600036600319011261009b576040517f00000000000000000000000000000000000000000000000000000000000000006001600160a01b03168152602090f35b600080fd5b3461009b57602036600319011261009b5767ffffffffffffffff6004351161009b5736602360043501121561009b5767ffffffffffffffff600435600401351161009b573660246004356004013560051b60043501011161009b5760006040805161010a81610d3d565b82815282602082015201526004602060018060a01b036000541660405192838092635c975abb60e01b82525afa90811561028d57600091610c5e575b50610c355761015a60043560040135610d98565b6101676040519182610d76565b60048035013580825261017990610d98565b601f190160005b818110610c09578260005b6004356004013581106103c85750604051906331148cfb60e21b8252816024810160206004830152825180915260448201602060448360051b8501019401916000915b81831061029957846060818089038160007f00000000000000000000000000000000000000000000000000000000000000006001600160a01b03165af1801561028d57600090610238575b6060906040805191805183526020810151602084015201516040820152f35b506060813d606011610285575b8161025260609383610d76565b8101031261009b57606090604080519161026b83610d3d565b805183526020810151602084015201516040820152610219565b3d9150610245565b6040513d6000823e3d90fd5b919350919360431986820301825284516040606083019160018060a01b038151168452602081015160208501520151916060604082015282518092526080810190602060808460051b83010194019260005b81811061030c575050505050602080600192960192019301909185936101ce565b9091929394607f1984820301855285519060e0610100928051835260018060a01b03602082015116602084015260408101516040840152606081015160608401526080810151608084015260a0808201519084015260c0808201519084015201518260e08301528051809383015260005b8381106103b157505060206001928192610120916000838284010152601f80199101160101970195019101929190926102eb565b80602080928401015161012082860101520161037d565b9060248260051b60043501013560e21960043536030181121561009b576084816004350101354311610bde576104046024826004350101610db0565b608061042461041e60043585016064810190602401610dc4565b90610dfa565b013561043b60043584016064810190602401610dc4565b9061045160043586016064810190602401610dc4565b80929150600019810111610af057608092610470926000190191610e2b565b013561048760043585016064810190602401610dc4565b929050604051937fc41f45096acb29cd21576b8b618e9ea0a8ed9cea8fad5922b3adccec46ccb034602086015260018060a01b031660408501526044856004350101356060850152608084015260a083015260c082015260848260043501013560e082015260e081526104f981610d59565b805160209182012060405161190160f01b9281019283527f0000000000000000000000000000000000000000000000000000000000000000602282015260428082019290925290815261054d606282610d76565b5190206041610567600435840160a4810190602401610e4d565b91909103610bb3576040805192835281810135600090811a6020808601919091528335928501929092529181013560608401528180529160809060015afa1561028d576000516001600160a01b03168015159081610b91575b5015610b66576105db600435820160c4810190602401610e4d565b9050610832575b6105f760043582016064810190602401610dc4565b93905061060384610d98565b936106116040519586610d76565b808552610620601f1991610d98565b0160005b8181106107e357505060005b61064560043584016064810190602401610dc4565b90508110156107885761066d8161066760043586016064810190602401610dc4565b90610e2b565b906101008236031261009b5760405161068581610d59565b8235815260208301356001600160a01b038116810361009b57602082015260408301356040820152606083013560608201526080830135608082015260a083013560a082015260c083013560c082015260e083013567ffffffffffffffff811161009b5736601f82860101121561009b5767ffffffffffffffff8185013511610772576040519061072385820135601f01601f191660200183610d76565b84810180358084523691016020011161009b5760208186600093600198013583838301018487013701358301015260e08201526107608288610e80565b5261076b8187610e80565b5001610630565b634e487b7160e01b600052604160045260246000fd5b50906001929360446107a06024846004350101610db0565b92604051936107ae85610d3d565b868060a01b03168452600435010135602083015260408201526107d18285610e80565b526107dc8184610e80565b500161018b565b6020906040516107f281610d59565b60008152600083820152600060408201526000606082015260006080820152600060a0820152600060c0820152606060e082015282828901015201610624565b6040516371e3b69760e11b815260048035830160440135908201526080816024817f00000000000000000000000000000000000000000000000000000000000000006001600160a01b03165afa90811561028d57600091610b06575b506001600160a01b0381166108a4575b506105e2565b6108b46024836004350101610db0565b60806108ce61041e60043586016064810190602401610dc4565b01356108e560043585016064810190602401610dc4565b906108fb60043587016064810190602401610dc4565b80929150600019810111610af05760809261091a926000190191610e2b565b013561093160043586016064810190602401610dc4565b929050604051937f6636f21717542329b20a12842fa9f7bce0dcac99957e06e84d752b6ead3c3efa6020860152604487600435010135604086015260018060a01b03166060850152608084015260a083015260c082015260c081528060e081011067ffffffffffffffff60e0830111176107725760e081810160408190528251602084012061190160f01b61010085019081527f0000000000000000000000000000000000000000000000000000000000000000610102860152610122850191909152604282529290610a0690606290610d76565b015190206041610a21600435850160c4810190602401610e4d565b91909103610ac5576040805192835281810135600090811a6020808601919091528335928501929092529181013560608401528180529160809060015afa1561028d576000516001600160a01b03168015159182610ab2575b505015610a87578361089e565b60405162461bcd60e51b8152602060048201526003602482015262114ccd60ea1b6044820152606490fd5b6001600160a01b03161490508480610a7a565b60405162461bcd60e51b815260206004820152600360248201526245333360e81b6044820152606490fd5b634e487b7160e01b600052601160045260246000fd5b90506080813d608011610b5e575b81610b2160809383610d76565b8101031261009b57805160ff81160361009b576020810151906001600160a01b038216820361009b576060015161ffff81160361009b578461088e565b3d9150610b14565b60405162461bcd60e51b815260206004820152600360248201526245333160e81b6044820152606490fd5b90506001600160a01b03610bab6004358401602401610db0565b1614846105c0565b60405162461bcd60e51b815260206004820152600360248201526204533360ec1b6044820152606490fd5b60405162461bcd60e51b815260206004820152600360248201526245323960e81b6044820152606490fd5b602090604051610c1881610d3d565b600081526000838201526060604082015282828601015201610180565b60405162461bcd60e51b81526020600482015260016024820152600560fc1b6044820152606490fd5b90506020813d602011610c91575b81610c7960209383610d76565b8101031261009b5751801515810361009b5781610146565b3d9150610c6c565b3461009b57600036600319011261009b576040517f00000000000000000000000000000000000000000000000000000000000000006001600160a01b03168152602090f35b3461009b57600036600319011261009b5760206040517f00000000000000000000000000000000000000000000000000000000000000008152f35b3461009b57600036600319011261009b576000546001600160a01b03168152602090f35b6060810190811067ffffffffffffffff82111761077257604052565b610100810190811067ffffffffffffffff82111761077257604052565b90601f8019910116810190811067ffffffffffffffff82111761077257604052565b67ffffffffffffffff81116107725760051b60200190565b356001600160a01b038116810361009b5790565b903590601e198136030182121561009b570180359067ffffffffffffffff821161009b57602001918160051b3603831361009b57565b9015610e155780359060fe198136030182121561009b570190565b634e487b7160e01b600052603260045260246000fd5b9190811015610e155760051b8101359060fe198136030182121561009b570190565b903590601e198136030182121561009b570180359067ffffffffffffffff821161009b5760200191813603831361009b57565b8051821015610e155760209160051b01019056fea2646970667358221220290f29fa55d379c32025b5e4b1a8e356ea73ae6ead8ccd693924368daa0a5c0d64736f6c63430008180033",
  "linkReferences": {},
  "deployedLinkReferences": {}
}