{
  "_format": "hh-sol-artifact-1",
  "contractName": "DatumZKVerifier",
  "sourceName": "contracts/DatumZKVerifier.sol",
  "abi": [
    {
      "inputs": [
        {
          "internalType": "bytes",
          "name": "proof",
          "type": "bytes"
        },
        {
          "internalType": "bytes32",
          "name": "",
          "type": "bytes32"
        }
      ],
      "name": "verify",
      "outputs": [
        {
          "internalType": "bool",
          "name": "valid",
          "type": "bool"
        }
      ],
      "stateMutability": "pure",
      "type": "function"
    }
  ],
  "bytecode": "0x608080604052346100155760b5908161001b8239f35b600080fdfe6080806040526004361015601257600080fd5b600090813560e01c636b40634114602857600080fd5b34607b576040366003190112607b5767ffffffffffffffff60043581811160775736602382011215607757806004013591821160775760248236920101116073576020925015158152f35b8280fd5b8380fd5b5080fdfea2646970667358221220e0c4aba150058e0f4a586ef9365f1f35ae596babc347ba62023a29e08fd2cb7a64736f6c63430008180033",
  "linkReferences": {},
  "deployedLinkReferences": {}
}