{
  "_format": "hh-sol-artifact-1",
  "contractName": "DatumGovernanceSlash",
  "sourceName": "contracts/DatumGovernanceSlash.sol",
  "abi": [
    {
      "inputs": [
        {
          "internalType": "address",
          "name": "_voting",
          "type": "address"
        },
        {
          "internalType": "address",
          "name": "_campaigns",
          "type": "address"
        }
      ],
      "stateMutability": "nonpayable",
      "type": "constructor"
    },
    {
      "inputs": [],
      "name": "SWEEP_DEADLINE_BLOCKS",
      "outputs": [
        {
          "internalType": "uint256",
          "name": "",
          "type": "uint256"
        }
      ],
      "stateMutability": "view",
      "type": "function"
    },
    {
      "inputs": [],
      "name": "campaigns",
      "outputs": [
        {
          "internalType": "address",
          "name": "",
          "type": "address"
        }
      ],
      "stateMutability": "view",
      "type": "function"
    },
    {
      "inputs": [
        {
          "internalType": "uint256",
          "name": "campaignId",
          "type": "uint256"
        }
      ],
      "name": "claimSlashReward",
      "outputs": [],
      "stateMutability": "nonpayable",
      "type": "function"
    },
    {
      "inputs": [
        {
          "internalType": "uint256",
          "name": "",
          "type": "uint256"
        },
        {
          "internalType": "address",
          "name": "",
          "type": "address"
        }
      ],
      "name": "claimed",
      "outputs": [
        {
          "internalType": "bool",
          "name": "",
          "type": "bool"
        }
      ],
      "stateMutability": "view",
      "type": "function"
    },
    {
      "inputs": [
        {
          "internalType": "uint256",
          "name": "campaignId",
          "type": "uint256"
        }
      ],
      "name": "finalizeSlash",
      "outputs": [],
      "stateMutability": "nonpayable",
      "type": "function"
    },
    {
      "inputs": [
        {
          "internalType": "uint256",
          "name": "",
          "type": "uint256"
        }
      ],
      "name": "finalized",
      "outputs": [
        {
          "internalType": "bool",
          "name": "",
          "type": "bool"
        }
      ],
      "stateMutability": "view",
      "type": "function"
    },
    {
      "inputs": [
        {
          "internalType": "uint256",
          "name": "",
          "type": "uint256"
        }
      ],
      "name": "finalizedBlock",
      "outputs": [
        {
          "internalType": "uint256",
          "name": "",
          "type": "uint256"
        }
      ],
      "stateMutability": "view",
      "type": "function"
    },
    {
      "inputs": [
        {
          "internalType": "uint256",
          "name": "campaignId",
          "type": "uint256"
        },
        {
          "internalType": "address",
          "name": "voter",
          "type": "address"
        }
      ],
      "name": "getClaimable",
      "outputs": [
        {
          "internalType": "uint256",
          "name": "",
          "type": "uint256"
        }
      ],
      "stateMutability": "view",
      "type": "function"
    },
    {
      "inputs": [],
      "name": "owner",
      "outputs": [
        {
          "internalType": "address",
          "name": "",
          "type": "address"
        }
      ],
      "stateMutability": "view",
      "type": "function"
    },
    {
      "inputs": [
        {
          "internalType": "uint256",
          "name": "campaignId",
          "type": "uint256"
        }
      ],
      "name": "sweepSlashPool",
      "outputs": [],
      "stateMutability": "nonpayable",
      "type": "function"
    },
    {
      "inputs": [],
      "name": "voting",
      "outputs": [
        {
          "internalType": "address",
          "name": "",
          "type": "address"
        }
      ],
      "stateMutability": "view",
      "type": "function"
    },
    {
      "inputs": [
        {
          "internalType": "uint256",
          "name": "",
          "type": "uint256"
        }
      ],
      "name": "winningWeight",
      "outputs": [
        {
          "internalType": "uint256",
          "name": "",
          "type": "uint256"
        }
      ],
      "stateMutability": "view",
      "type": "function"
    },
    {
      "stateMutability": "payable",
      "type": "receive"
    }
  ],
  "bytecode": "0x6080346100aa57601f610f4f38819003918201601f19168301916001600160401b038311848410176100af5780849260409485528339810103126100aa57610052602061004b836100c5565b92016100c5565b6001600160a01b03918216919061006a8315156100d9565b16906100778215156100d9565b60018060a01b031990338260025416176002558160005416176000556001541617600155604051610e43908161010c8239f35b600080fd5b634e487b7160e01b600052604160045260246000fd5b51906001600160a01b03821682036100aa57565b156100e057565b60405162461bcd60e51b815260206004820152600360248201526204530360ec1b6044820152606490fdfe6080604081815260049182361015610022575b505050361561002057600080fd5b005b600092833560e01c918263120aa87714610995575081634ddaced214610969578163728f0c9e1461094b5781638da5cb5b146109225781639110ca71146108fa578163a71fc2a6146106b5578163b0ab060e146102e0578163b307e6e1146102b8578163b961cbe114610295578163cb5697f91461026c578163eec464c4146100e0575063fce1ccca146100b65780610012565b346100dc57816003193601126100dc57905490516001600160a01b039091168152602090f35b5080fd5b8383346100dc57602090816003193601126102685783359384845280835261010d60ff8386205416610a94565b848452600583528184205462503340810180911161025557431061022e57839460018060a01b03808654169084516310c9242760e21b815283858201528681602481865afa9687156102245788976101ec575b505061016d861515610b1f565b6002541691813b156101e8578680946101b987519889968795869463d09f575d60e01b86528501606091949392608082019560008352602083015260018060a01b031660408201520152565b03925af19081156101df57506101cc5750f35b6101d5906109f4565b6101dc5780f35b80fd5b513d84823e3d90fd5b8680fd5b819850809297503d831161021d575b6102058183610a1e565b8101031261021857869551948880610160565b600080fd5b503d6101fb565b86513d8a823e3d90fd5b82606492519162461bcd60e51b83528201526003602482015262114c8d60ea1b6044820152fd5b634e487b7160e01b855260118252602485fd5b8280fd5b5050346100dc57816003193601126100dc5760015490516001600160a01b039091168152602090f35b5050346100dc576020906102b16102ab366109ce565b90610b71565b9051908152f35b9050346102685760203660031901126102685760209282913581526003845220549051908152f35b8383346100dc57602090816003193601126102685783359182845284815261030d60ff8386205416610a94565b82845260068152818420338552815260ff828520541661068d578354825163bc3f931f60e01b8152808701858152336020820152608097926001600160a01b0392908316918990829081906040010381855afa8015610224578899899a8a938b93610652575b5060ff16918215610629574310610600578460015416818a60248b51809481936371e3b69760e11b83528c8301525afa9182156105f6579060ff92918c926105c6575b50501690856003831492836105bb575b831561059e575b5050501561057557879860ff8798999751926311b5d01d60e21b845216858301528582602481865afa91821561056b579086918893610538575b5060249261041491610af6565b928851928380926310c9242760e21b82528c898301525afa90811561052e5786916104fb575b5061046e9161045d9189885260038752610458898920541515610b1f565b610af6565b878652600385528686205490610b51565b9261047a841515610b1f565b868552600681528585203386529052848420805460ff1916600117905583541690813b156104f757845163d09f575d60e01b8152600091810191825260208201969096523360408201526060810192909252849182908490829060800103925af19081156101df57506104eb575080f35b6104f4906109f4565b80f35b8380fd5b90508481813d8311610527575b6105128183610a1e565b81010312610523575161046e61043a565b8580fd5b503d610508565b87513d88823e3d90fd5b92509082813d8111610564575b61054f8183610a1e565b810103126101e8579051908590610414610407565b503d610545565b88513d89823e3d90fd5b855162461bcd60e51b81528085018690526003602482015262229a9b60e91b6044820152606490fd5b149150816105b0575b508a85816103cd565b60029150148a6105a7565b6001831493506103c6565b6105e59250803d106105ef575b6105dd8183610a1e565b810190610a4e565b5050508c806103b6565b503d6105d3565b89513d8d823e3d90fd5b875162461bcd60e51b8152808701889052600360248201526245343560e81b6044820152606490fd5b885162461bcd60e51b81528088018990526003602482015262114d0d60ea1b6044820152606490fd5b9193505060ff9a5061067a9150823d8411610686575b6106728183610a1e565b810190610ac6565b919b9093919290610373565b503d610668565b8490606492519162461bcd60e51b8352820152600360248201526245353560e81b6044820152fd5b905034610268576020806003193601126104f75781359182855280825260ff84862054166108d35784548451635cdbf7db60e11b81528281018590526001600160a01b039182169491908481602481895afa9081156108c957889161088f575b5015610866576080602491600154168751928380926371e3b69760e11b825286888301525afa94851561085c57600360ff60249787948b9161083a575b5016036107de57865195868092638e96db3960e01b825285878301525afa80156107d45786906107a6575b60059450905b865260038352848620558152828420805460ff1916600117905552812043905580f35b508284813d83116107cd575b6107bc8183610a1e565b81010312610523576005935161077d565b503d6107b2565b85513d88823e3d90fd5b865195868092634b2a00ff60e11b825285878301525afa80156107d457869061080c575b6005945090610783565b508284813d8311610833575b6108228183610a1e565b810103126105235760059351610802565b503d610818565b610853915060803d6080116105ef576105dd8183610a1e565b50505038610752565b86513d89823e3d90fd5b855162461bcd60e51b8152808401859052600360248201526245353360e81b6044820152606490fd5b90508481813d83116108c2575b6108a68183610a1e565b810103126108be575180151581036108be5738610715565b8780fd5b503d61089c565b87513d8a823e3d90fd5b60649184519162461bcd60e51b83528201526003602482015262229a9960e91b6044820152fd5b9050346102685760203660031901126102685760209282913581526005845220549051908152f35b5050346100dc57816003193601126100dc5760025490516001600160a01b039091168152602090f35b5050346100dc57816003193601126100dc5760209051625033408152f35b90503461026857602036600319011261026857816020938260ff93358252855220541690519015158152f35b849084346102685760ff906020936109ac366109ce565b908252600686528282206001600160a01b039091168252855220541615158152f35b604090600319011261021857600435906024356001600160a01b03811681036102185790565b67ffffffffffffffff8111610a0857604052565b634e487b7160e01b600052604160045260246000fd5b90601f8019910116810190811067ffffffffffffffff821117610a0857604052565b519060ff8216820361021857565b919082608091031261021857610a6382610a40565b60208301519092906001600160a01b038116810361021857916060604083015192015161ffff811681036102185790565b15610a9b57565b60405162461bcd60e51b8152602060048201526003602482015262114d4d60ea1b6044820152606490fd5b919082608091031261021857610adb82610a40565b916020810151916060610af060408401610a40565b92015190565b81810292918115918404141715610b0957565b634e487b7160e01b600052601160045260246000fd5b15610b2657565b60405162461bcd60e51b815260206004820152600360248201526245303360e81b6044820152606490fd5b8115610b5b570490565b634e487b7160e01b600052601260045260246000fd5b600091818352600460209080825260ff9260409380858820541615610e0457600684528487206001600160a01b038084168952908552858820549092908216610dfa578754865163bc3f931f60e01b81528581018981526001600160a01b0390931660208401529084169360809391928490849081906040010381885afa938415610df0578a918b948c96610dc9575b5060015416818b60248c51809481936371e3b69760e11b83528d8301525afa918215610dbf579184929183928e92610d9f575b50501687600382149182610d92575b8215610d76575b505015918215610d6b575b5050610d605786516311b5d01d60e21b81529216848301528482602481865afa9182156102245791879186938a92610d2a575b50602491610c9591610af6565b94875194859384926310c9242760e21b84528301525afa908115610d20578691610cf3575b50848652600383528386205415610ceb5791610cdc600392610ce89794610af6565b94835252205490610b51565b90565b505050505090565b90508281813d8311610d19575b610d0a8183610a1e565b81010312610523575138610cba565b503d610d00565b84513d88823e3d90fd5b925092905081813d8311610d59575b610d438183610a1e565b810103126108be57518491879190610c95610c88565b503d610d39565b505050505050505090565b161590508138610c55565b14905080610d86575b8738610c4a565b50600281831614610d7f565b8484166001149250610c43565b610db59250803d106105ef576105dd8183610a1e565b5050503880610c34565b8a513d8e823e3d90fd5b9194509450610de59150833d8511610686576106728183610a1e565b509390939438610c01565b88513d8c823e3d90fd5b5050505050505090565b5050505050509056fea2646970667358221220dbecc62e9223d1911ef9189728fcfc7258668ffa1a38730b95b5f2e8e17469ec64736f6c63430008180033",
  "linkReferences": {},
  "deployedLinkReferences": {}
}