{
  "_format": "hh-sol-artifact-1",
  "contractName": "DatumAttestationVerifier",
  "sourceName": "contracts/DatumAttestationVerifier.sol",
  "abi": [
    {
      "inputs": [
        {
          "internalType": "address",
          "name": "_settlement",
          "type": "address"
        },
        {
          "internalType": "address",
          "name": "_campaigns",
          "type": "address"
        },
        {
          "internalType": "address",
          "name": "_pauseRegistry",
          "type": "address"
        }
      ],
      "stateMutability": "nonpayable",
      "type": "constructor"
    },
    {
      "inputs": [],
      "name": "DOMAIN_SEPARATOR",
      "outputs": [
        {
          "internalType": "bytes32",
          "name": "",
          "type": "bytes32"
        }
      ],
      "stateMutability": "view",
      "type": "function"
    },
    {
      "inputs": [],
      "name": "campaigns",
      "outputs": [
        {
          "internalType": "contract IDatumCampaignsSettlement",
          "name": "",
          "type": "address"
        }
      ],
      "stateMutability": "view",
      "type": "function"
    },
    {
      "inputs": [],
      "name": "pauseRegistry",
      "outputs": [
        {
          "internalType": "contract IDatumPauseRegistry",
          "name": "",
          "type": "address"
        }
      ],
      "stateMutability": "view",
      "type": "function"
    },
    {
      "inputs": [
        {
          "components": [
            {
              "internalType": "address",
              "name": "user",
              "type": "address"
            },
            {
              "internalType": "uint256",
              "name": "campaignId",
              "type": "uint256"
            },
            {
              "components": [
                {
                  "internalType": "uint256",
                  "name": "campaignId",
                  "type": "uint256"
                },
                {
                  "internalType": "address",
                  "name": "publisher",
                  "type": "address"
                },
                {
                  "internalType": "uint256",
                  "name": "eventCount",
                  "type": "uint256"
                },
                {
                  "internalType": "uint256",
                  "name": "ratePlanck",
                  "type": "uint256"
                },
                {
                  "internalType": "uint8",
                  "name": "actionType",
                  "type": "uint8"
                },
                {
                  "internalType": "bytes32",
                  "name": "clickSessionHash",
                  "type": "bytes32"
                },
                {
                  "internalType": "uint256",
                  "name": "nonce",
                  "type": "uint256"
                },
                {
                  "internalType": "bytes32",
                  "name": "previousClaimHash",
                  "type": "bytes32"
                },
                {
                  "internalType": "bytes32",
                  "name": "claimHash",
                  "type": "bytes32"
                },
                {
                  "internalType": "bytes32[8]",
                  "name": "zkProof",
                  "type": "bytes32[8]"
                },
                {
                  "internalType": "bytes32",
                  "name": "nullifier",
                  "type": "bytes32"
                },
                {
                  "internalType": "bytes32[3]",
                  "name": "actionSig",
                  "type": "bytes32[3]"
                }
              ],
              "internalType": "struct IDatumSettlement.Claim[]",
              "name": "claims",
              "type": "tuple[]"
            },
            {
              "internalType": "bytes",
              "name": "publisherSig",
              "type": "bytes"
            }
          ],
          "internalType": "struct DatumAttestationVerifier.AttestedBatch[]",
          "name": "batches",
          "type": "tuple[]"
        }
      ],
      "name": "settleClaimsAttested",
      "outputs": [
        {
          "components": [
            {
              "internalType": "uint256",
              "name": "settledCount",
              "type": "uint256"
            },
            {
              "internalType": "uint256",
              "name": "rejectedCount",
              "type": "uint256"
            },
            {
              "internalType": "uint256",
              "name": "totalPaid",
              "type": "uint256"
            }
          ],
          "internalType": "struct IDatumSettlement.SettlementResult",
          "name": "result",
          "type": "tuple"
        }
      ],
      "stateMutability": "nonpayable",
      "type": "function"
    },
    {
      "inputs": [],
      "name": "settlement",
      "outputs": [
        {
          "internalType": "contract IDatumSettlement",
          "name": "",
          "type": "address"
        }
      ],
      "stateMutability": "view",
      "type": "function"
    }
  ],
  "bytecode": "0x61010034620001ba576001600160401b0390601f620011a538819003918201601f191683019184831184841017620001a457808492606094604052833981010312620001ba576200005081620001bf565b6200006c60406200006460208501620001bf565b9301620001bf565b6001600160a01b039182169290919081906200008a851515620001d4565b169162000099831515620001d4565b1691620000a8831515620001d4565b60805260a05260c05260405160208101907f8b73c3c69bb8fe3d512ecc4cf759cc79239f7b179b0ffacaa9a75d522b39400f82527f37fa04b5861c561b71b5bdfa453acf224950d69056e99dd55d4cab38fc543e1c60408201527fc89efdaa54c0f20c7adf612882df0950f5a951637e0307cdcb4c672f298b8bc660608201524660808201523060a082015260a0815260c081019281841090841117620001a4578260405251902060e052610f9d908162000208823960805181818160b6015261027e015260a051818181606c015281816104f60152610803015260c0518181816101b10152610df2015260e05181818160fd01526106700152f35b634e487b7160e01b600052604160045260246000fd5b600080fd5b51906001600160a01b0382168203620001ba57565b15620001dc57565b60405162461bcd60e51b815260206004820152600360248201526204530360ec1b6044820152606490fdfe608080604052600436101561001357600080fd5b60003560e01c9081631c82732d14610ddf5750806322db4324146101205780633644e515146100e557806351160630146100a05763cb5697f91461005657600080fd5b3461009b57600036600319011261009b576040517f00000000000000000000000000000000000000000000000000000000000000006001600160a01b03168152602090f35b600080fd5b3461009b57600036600319011261009b576040517f00000000000000000000000000000000000000000000000000000000000000006001600160a01b03168152602090f35b3461009b57600036600319011261009b5760206040517f00000000000000000000000000000000000000000000000000000000000000008152f35b3461009b57602036600319011261009b5767ffffffffffffffff6004351161009b5736602360043501121561009b5767ffffffffffffffff600435600401351161009b573660246004356004013560051b60043501011161009b5760006040805161018a81610e21565b8281528260208201520152604051635c975abb60e01b815260208160048160018060a01b037f0000000000000000000000000000000000000000000000000000000000000000165afa90811561032a57600091610da4575b50610d7b576101f660043560040135610e99565b6102036040519182610e77565b60048035013580825261021590610e99565b601f190160005b818110610d4f578260005b60043560040135811061047b57506040519063c8c9b9bd60e01b825281602481016020600483015282518091526044820190602060448260051b8501019401916000905b82821061033657846060818089038160007f00000000000000000000000000000000000000000000000000000000000000006001600160a01b03165af1801561032a576000906102d5575b6060906040805191805183526020810151602084015201516040820152f35b506060813d606011610322575b816102ef60609383610e77565b8101031261009b57606090604080519161030883610e21565b8051835260208101516020840152015160408201526102b6565b3d91506102e2565b6040513d6000823e3d90fd5b91935091936043198682030182528451602060806040606085019360018060a01b0381511686528381015184870152015193606060408201528451809452019201906000905b80821061039b575050506020806001929601920192018593919261026b565b90919283518051825260018060a01b036020820151166020830152604081015160408301526060810151606083015260ff608082015116608083015260a0808201519083015260c0808201519083015260e081015160e08301526101008082015190830152610120808201519083016000905b60088210610465575050506101408101516102208301526101600151600061024083015b6003821061044f575050506102a00192602001916001019061037c565b6020806001928551815201930191019091610432565b602080600192855181520193019101909161040e565b9060248260051b60043501013560a21960043536030181121561009b576001600160a01b036104b06004358301602401610eb1565b163303610d24576104cc60043582016064810190602401610ec5565b905015610cf9576040516371e3b69760e11b815260048035830160440135908201526060816024817f00000000000000000000000000000000000000000000000000000000000000006001600160a01b03165afa90811561032a57600091610ca2575b506001600160a01b03811615610c76575b6001600160a01b03811615610c4b5761055f6024836004350101610eb1565b61057460043584016064810190602401610ec5565b15610c355761058e60043585016064810190602401610ec5565b906105a460043587016064810190602401610ec5565b80929150600019810111610c1f5760c0926105c3926000190191610f10565b013560c06105dc60043587016064810190602401610ec5565b939050604051947f6636f21717542329b20a12842fa9f7bce0dcac99957e06e84d752b6ead3c3efa6020870152604488600435010135604087015260018060a01b031660608601520135608084015260a083015260c082015260c081528060e081011067ffffffffffffffff60e083011117610c095760e0810160408190528151602083012061190160f01b6101008401527f00000000000000000000000000000000000000000000000000000000000000006101028401526101228301526042815267ffffffffffffffff6101608301908111911117610c0957610160810160405260e08101516101008201209060043584013681900360421901608490910135121561009b5767ffffffffffffffff6004358501608481013501602401351161009b5760043584016084810135016024810135360360449091011361009b5760401960043585016084810135016024013501610bd8575060006080602092601b608480886004350101358860043501010135841a148015610bbf575b61076390610f21565b61079d7f7fffffffffffffffffffffffffffffff5d576e7357a4501ddfe92f46681b20a06004358801608481013501606401351115610f21565b6040805191825260846004358801818101350190810135851a8684015260448101359183019190915260640135606082015282805260015afa1561032a576000516040516305b4301160e41b8152600480358501604401359082015290916020826024817f00000000000000000000000000000000000000000000000000000000000000006001600160a01b03165afa91821561032a57600092610b83575b506001600160a01b03821615610b7b5750905b6001600160a01b03168015159182610b68575b505015610b3d5761087e60043582016064810190602401610ec5565b93905061088a84610e99565b936108986040519586610e77565b8085526108a7601f1991610e99565b0160005b818110610aaf57505060005b6108cc60043584016064810190602401610ec5565b9050811015610a54576108f4816108ee60043586016064810190602401610ec5565b90610f10565b6102a08136031261009b576040519061090c82610e3d565b8035825260208101356001600160a01b038116900361009b5760208101356020830152604081013560408301526060810135606083015260ff60808201351660808201350361009b576080810135608083015260a081013560a083015260c081013560c083015260e081013560e08301526101008101356101008301523661013f8201121561009b576040516109a181610e5a565b803661022084011161009b576101208301905b61022084018210610a445750506101208301526102208101356101408301523661025f8201121561009b57604051906109ec82610e21565b8190366102a082011161009b576102408101915b6102a082018310610a345750505061016082015260019190610a228288610f53565b52610a2d8187610f53565b50016108b7565b8235815260209283019201610a00565b81358152602091820191016109b4565b5090600192936044610a6c6024846004350101610eb1565b9260405193610a7a85610e21565b868060a01b0316845260043501013560208301526040820152610a9d8285610f53565b52610aa88184610f53565b5001610227565b602090604051610abe81610e3d565b60008152600083820152600060408201526000606082015260006080820152600060a0820152600060c0820152600060e08201526000610100820152604051610b0681610e5a565b6101003682376101208201526000610140820152604051610b2681610e21565b6060368237610160820152828289010152016108ab565b60405162461bcd60e51b8152602060048201526003602482015262114ccd60ea1b6044820152606490fd5b6001600160a01b03161490508480610862565b90509061084f565b9091506020813d602011610bb7575b81610b9f60209383610e77565b8101031261009b57610bb090610efc565b908661083c565b3d9150610b92565b50601c6084600435880181810135010135841a1461075a565b61016060649162461bcd60e51b82820152602061016482015260036101848201526245333360e81b6101a482015201fd5b634e487b7160e01b600052604160045260246000fd5b634e487b7160e01b600052601160045260246000fd5b634e487b7160e01b600052603260045260246000fd5b60405162461bcd60e51b815260206004820152600360248201526204530360ec1b6044820152606490fd5b50610c8c60043582016064810190602401610ec5565b15610c35576020610c9d9101610eb1565b610540565b90506060813d606011610cf1575b81610cbd60609383610e77565b8101031261009b57805160ff81160361009b576040610cde60208301610efc565b91015161ffff81160361009b578461052f565b3d9150610cb0565b60405162461bcd60e51b815260206004820152600360248201526208a64760eb1b6044820152606490fd5b60405162461bcd60e51b815260206004820152600360248201526222999960e91b6044820152606490fd5b602090604051610d5e81610e21565b60008152600083820152606060408201528282860101520161021c565b60405162461bcd60e51b81526020600482015260016024820152600560fc1b6044820152606490fd5b90506020813d602011610dd7575b81610dbf60209383610e77565b8101031261009b5751801515810361009b57816101e2565b3d9150610db2565b3461009b57600036600319011261009b577f00000000000000000000000000000000000000000000000000000000000000006001600160a01b03168152602090f35b6060810190811067ffffffffffffffff821117610c0957604052565b610180810190811067ffffffffffffffff821117610c0957604052565b610100810190811067ffffffffffffffff821117610c0957604052565b90601f8019910116810190811067ffffffffffffffff821117610c0957604052565b67ffffffffffffffff8111610c095760051b60200190565b356001600160a01b038116810361009b5790565b903590601e198136030182121561009b570180359067ffffffffffffffff821161009b57602001916102a082023603831361009b57565b51906001600160a01b038216820361009b57565b9190811015610c35576102a0020190565b15610f2857565b60405162461bcd60e51b815260206004820152600360248201526204533360ec1b6044820152606490fd5b8051821015610c355760209160051b01019056fea2646970667358221220a6bec34692e17b391e554475a7c89ff7f54a6205937eb9f11bb63ad75b070e7164736f6c63430008180033",
  "linkReferences": {},
  "deployedLinkReferences": {}
}