{
  "_format": "hh-sol-artifact-1",
  "contractName": "DatumRelay",
  "sourceName": "contracts/DatumRelay.sol",
  "abi": [
    {
      "inputs": [
        {
          "internalType": "address",
          "name": "_settlement",
          "type": "address"
        },
        {
          "internalType": "address",
          "name": "_campaigns",
          "type": "address"
        },
        {
          "internalType": "address",
          "name": "_pauseRegistry",
          "type": "address"
        }
      ],
      "stateMutability": "nonpayable",
      "type": "constructor"
    },
    {
      "inputs": [
        {
          "internalType": "address",
          "name": "owner",
          "type": "address"
        }
      ],
      "name": "OwnableInvalidOwner",
      "type": "error"
    },
    {
      "inputs": [
        {
          "internalType": "address",
          "name": "account",
          "type": "address"
        }
      ],
      "name": "OwnableUnauthorizedAccount",
      "type": "error"
    },
    {
      "anonymous": false,
      "inputs": [
        {
          "indexed": true,
          "internalType": "address",
          "name": "newCampaigns",
          "type": "address"
        }
      ],
      "name": "CampaignsUpdated",
      "type": "event"
    },
    {
      "anonymous": false,
      "inputs": [
        {
          "indexed": true,
          "internalType": "address",
          "name": "previousOwner",
          "type": "address"
        },
        {
          "indexed": true,
          "internalType": "address",
          "name": "newOwner",
          "type": "address"
        }
      ],
      "name": "OwnershipTransferStarted",
      "type": "event"
    },
    {
      "anonymous": false,
      "inputs": [
        {
          "indexed": true,
          "internalType": "address",
          "name": "previousOwner",
          "type": "address"
        },
        {
          "indexed": true,
          "internalType": "address",
          "name": "newOwner",
          "type": "address"
        }
      ],
      "name": "OwnershipTransferred",
      "type": "event"
    },
    {
      "anonymous": false,
      "inputs": [
        {
          "indexed": true,
          "internalType": "address",
          "name": "relayer",
          "type": "address"
        },
        {
          "indexed": false,
          "internalType": "bool",
          "name": "authorized",
          "type": "bool"
        }
      ],
      "name": "RelayerAuthorized",
      "type": "event"
    },
    {
      "anonymous": false,
      "inputs": [
        {
          "indexed": true,
          "internalType": "address",
          "name": "newSettlement",
          "type": "address"
        }
      ],
      "name": "SettlementUpdated",
      "type": "event"
    },
    {
      "inputs": [],
      "name": "DOMAIN_SEPARATOR",
      "outputs": [
        {
          "internalType": "bytes32",
          "name": "",
          "type": "bytes32"
        }
      ],
      "stateMutability": "view",
      "type": "function"
    },
    {
      "inputs": [],
      "name": "acceptOwnership",
      "outputs": [],
      "stateMutability": "nonpayable",
      "type": "function"
    },
    {
      "inputs": [],
      "name": "authorizedRelayerCount",
      "outputs": [
        {
          "internalType": "uint256",
          "name": "",
          "type": "uint256"
        }
      ],
      "stateMutability": "view",
      "type": "function"
    },
    {
      "inputs": [
        {
          "internalType": "address",
          "name": "",
          "type": "address"
        }
      ],
      "name": "authorizedRelayers",
      "outputs": [
        {
          "internalType": "bool",
          "name": "",
          "type": "bool"
        }
      ],
      "stateMutability": "view",
      "type": "function"
    },
    {
      "inputs": [],
      "name": "campaigns",
      "outputs": [
        {
          "internalType": "contract IDatumCampaignsSettlement",
          "name": "",
          "type": "address"
        }
      ],
      "stateMutability": "view",
      "type": "function"
    },
    {
      "inputs": [],
      "name": "lastRelayBlock",
      "outputs": [
        {
          "internalType": "uint256",
          "name": "",
          "type": "uint256"
        }
      ],
      "stateMutability": "view",
      "type": "function"
    },
    {
      "inputs": [],
      "name": "livenessThresholdBlocks",
      "outputs": [
        {
          "internalType": "uint256",
          "name": "",
          "type": "uint256"
        }
      ],
      "stateMutability": "view",
      "type": "function"
    },
    {
      "inputs": [],
      "name": "owner",
      "outputs": [
        {
          "internalType": "address",
          "name": "",
          "type": "address"
        }
      ],
      "stateMutability": "view",
      "type": "function"
    },
    {
      "inputs": [],
      "name": "pauseRegistry",
      "outputs": [
        {
          "internalType": "contract IDatumPauseRegistry",
          "name": "",
          "type": "address"
        }
      ],
      "stateMutability": "view",
      "type": "function"
    },
    {
      "inputs": [],
      "name": "pendingOwner",
      "outputs": [
        {
          "internalType": "address",
          "name": "",
          "type": "address"
        }
      ],
      "stateMutability": "view",
      "type": "function"
    },
    {
      "inputs": [],
      "name": "renounceOwnership",
      "outputs": [],
      "stateMutability": "nonpayable",
      "type": "function"
    },
    {
      "inputs": [
        {
          "internalType": "address",
          "name": "addr",
          "type": "address"
        }
      ],
      "name": "setCampaigns",
      "outputs": [],
      "stateMutability": "nonpayable",
      "type": "function"
    },
    {
      "inputs": [
        {
          "internalType": "uint256",
          "name": "blocks",
          "type": "uint256"
        }
      ],
      "name": "setLivenessThreshold",
      "outputs": [],
      "stateMutability": "nonpayable",
      "type": "function"
    },
    {
      "inputs": [
        {
          "internalType": "address",
          "name": "relayer",
          "type": "address"
        },
        {
          "internalType": "bool",
          "name": "authorized",
          "type": "bool"
        }
      ],
      "name": "setRelayerAuthorized",
      "outputs": [],
      "stateMutability": "nonpayable",
      "type": "function"
    },
    {
      "inputs": [
        {
          "internalType": "address",
          "name": "addr",
          "type": "address"
        }
      ],
      "name": "setSettlement",
      "outputs": [],
      "stateMutability": "nonpayable",
      "type": "function"
    },
    {
      "inputs": [
        {
          "components": [
            {
              "internalType": "address",
              "name": "user",
              "type": "address"
            },
            {
              "internalType": "uint256",
              "name": "campaignId",
              "type": "uint256"
            },
            {
              "components": [
                {
                  "internalType": "uint256",
                  "name": "campaignId",
                  "type": "uint256"
                },
                {
                  "internalType": "address",
                  "name": "publisher",
                  "type": "address"
                },
                {
                  "internalType": "uint256",
                  "name": "eventCount",
                  "type": "uint256"
                },
                {
                  "internalType": "uint256",
                  "name": "ratePlanck",
                  "type": "uint256"
                },
                {
                  "internalType": "uint8",
                  "name": "actionType",
                  "type": "uint8"
                },
                {
                  "internalType": "bytes32",
                  "name": "clickSessionHash",
                  "type": "bytes32"
                },
                {
                  "internalType": "uint256",
                  "name": "nonce",
                  "type": "uint256"
                },
                {
                  "internalType": "bytes32",
                  "name": "previousClaimHash",
                  "type": "bytes32"
                },
                {
                  "internalType": "bytes32",
                  "name": "claimHash",
                  "type": "bytes32"
                },
                {
                  "internalType": "bytes32[8]",
                  "name": "zkProof",
                  "type": "bytes32[8]"
                },
                {
                  "internalType": "bytes32",
                  "name": "nullifier",
                  "type": "bytes32"
                },
                {
                  "internalType": "bytes32[3]",
                  "name": "actionSig",
                  "type": "bytes32[3]"
                }
              ],
              "internalType": "struct IDatumSettlement.Claim[]",
              "name": "claims",
              "type": "tuple[]"
            },
            {
              "internalType": "uint256",
              "name": "deadline",
              "type": "uint256"
            },
            {
              "internalType": "bytes",
              "name": "signature",
              "type": "bytes"
            },
            {
              "internalType": "bytes",
              "name": "publisherSig",
              "type": "bytes"
            }
          ],
          "internalType": "struct IDatumSettlement.SignedClaimBatch[]",
          "name": "batches",
          "type": "tuple[]"
        }
      ],
      "name": "settleClaimsFor",
      "outputs": [
        {
          "components": [
            {
              "internalType": "uint256",
              "name": "settledCount",
              "type": "uint256"
            },
            {
              "internalType": "uint256",
              "name": "rejectedCount",
              "type": "uint256"
            },
            {
              "internalType": "uint256",
              "name": "totalPaid",
              "type": "uint256"
            }
          ],
          "internalType": "struct IDatumSettlement.SettlementResult",
          "name": "result",
          "type": "tuple"
        }
      ],
      "stateMutability": "nonpayable",
      "type": "function"
    },
    {
      "inputs": [],
      "name": "settlement",
      "outputs": [
        {
          "internalType": "contract IDatumSettlement",
          "name": "",
          "type": "address"
        }
      ],
      "stateMutability": "view",
      "type": "function"
    },
    {
      "inputs": [
        {
          "internalType": "address",
          "name": "newOwner",
          "type": "address"
        }
      ],
      "name": "transferOwnership",
      "outputs": [],
      "stateMutability": "nonpayable",
      "type": "function"
    }
  ],
  "bytecode": "0x60a034620001fd576001600160401b0390601f620018ea38819003918201601f1916830191908483118484101762000202578160609285926040958652833981010312620001fd57620000528262000218565b916200006e82620000666020840162000218565b920162000218565b3315620001e55760018060a01b0319908160015416600155600094855460018060a01b038092819233878216178a55823391167f8be0079c531659141344cd1fd0a4f28419497f9722a3daafe3b4186f6b6457e08b80a31694620000d48615156200022d565b1691620000e38315156200022d565b1692620000f28415156200022d565b826002541617600255816003541617600355600454161760045580519060208201927f8b73c3c69bb8fe3d512ecc4cf759cc79239f7b179b0ffacaa9a75d522b39400f84527f924a9a59aa4ef65e5321f92dc0ccaa51b9a854032a90fac32cd92402da6c7282828401527fc89efdaa54c0f20c7adf612882df0950f5a951637e0307cdcb4c672f298b8bc660608401524660808401523060a084015260a0835260c083019483861090861117620001d15750839052519020608052611689908162000261823960805181818161068201528181610be101526113950152f35b634e487b7160e01b81526041600452602490fd5b8251631e4fbdf760e01b815260006004820152602490fd5b600080fd5b634e487b7160e01b600052604160045260246000fd5b51906001600160a01b0382168203620001fd57565b156200023557565b60405162461bcd60e51b815260206004820152600360248201526204530360ec1b6044820152606490fdfe608080604052600436101561001357600080fd5b60003560e01c908163022df10214611420575080631c82732d146113f757806329e295c5146113b85780633644e5151461137d57806340e84e511461134f5780635116063014611326578063715018a6146112d55780637444b8a11461118f578063759a17af1461117157806379ba5097146110fc5780638da5cb5b146110d35780638f4e6f371461105b578063a66bc4cc14610fe3578063a77dfbc7146101db578063cb5697f9146101b2578063e30c397814610189578063f2fde38b146101085763f798f873146100e557600080fd5b34610103576000366003190112610103576020600754604051908152f35b600080fd5b346101035760203660031901126101035761012161143b565b60018060a01b036101508160005416913383149361013e85611483565b169261014b841515611451565b611483565b600180546001600160a01b031916831790557f38d16b8cac22d99fc7c124b9cd0de2d3fa1faef420bfe791d8c362d765e22700600080a3005b34610103576000366003190112610103576001546040516001600160a01b039091168152602090f35b34610103576000366003190112610103576003546040516001600160a01b039091168152602090f35b346101035760203660031901126101035767ffffffffffffffff60043511610103573660236004350112156101035767ffffffffffffffff6004356004013511610103573660246004356004013560051b600435010111610103576000604080516102458161148a565b82815282602082015201526004602060018060a01b0382541660405192838092635c975abb60e01b82525afa9081156103c557600091610fa8575b50610f7f57600654610f29575b6102a0600a600435600401351115611502565b6102af60043560040135611534565b6102bc60405191826114e0565b6004803501358082526102ce90611534565b601f190160005b818110610efd578260005b600435600401358110610518575060018060a01b0360025416604051809263c8c9b9bd60e01b8252602482016020600484015281518091526044830190602060448260051b8601019301916000905b8282106103d157856060818088038160008c5af180156103c557600090610370575b6060906040805191805183526020810151602084015201516040820152f35b506060813d6060116103bd575b8161038a606093836114e0565b810103126101035760609060408051916103a38361148a565b805183526020810151602084015201516040820152610351565b3d915061037d565b6040513d6000823e3d90fd5b9193909294506043198782030182528451602060806040606085019360018060a01b0381511686528381015184870152015193606060408201528451809452019201906000905b80821061043857505050602080600192960192019201869493919261032f565b90919283518051825260018060a01b036020820151166020830152604081015160408301526060810151606083015260ff608082015116608083015260a0808201519083015260c0808201519083015260e081015160e08301526101008082015190830152610120808201519083016000905b60088210610502575050506101408101516102208301526101600151600061024083015b600382106104ec575050506102a001926020019160010190610418565b60208060019285518152019301910190916104cf565b60208060019285518152019301910190916104ab565b9060248260051b60043501013560e219600435360301811215610103576084816004350101354311610ed25761056561055c6004358301606481019060240161154c565b90501515611502565b6105756024826004350101611583565b61058a6004358301606481019060240161154c565b15610d62576105a46004358401606481019060240161154c565b9290916105bc6004358601606481019060240161154c565b80959150600019810111610d4c576105df60009460c09260209787190191611597565b013560c06105f86004358801606481019060240161154c565b939050604051947fc41f45096acb29cd21576b8b618e9ea0a8ed9cea8fad5922b3adccec46ccb0348887015260018060a01b0316604086015260448860043501013560608601520135608084015260a083015260c082015260848460043501013560e082015260e0815261066b816114c3565b80519083012060405161190160f01b8185019081527f0000000000000000000000000000000000000000000000000000000000000000600282015260228101929092526106c4816042840103601f1981018352826114e0565b51902060416106e96106e1600435870160a48101906024016115a8565b9092146115db565b601b6040820135841a148015610ec2575b610703906115db565b6107286fa2a8918ca85bafe22016d0b997e4df60600160ff1b038583013511156115db565b6040805192835281810135841a6020840152813590830152830135606082015281805260809060015afa156103c5576000516001600160a01b03168015159081610ea0575b5015610e7557610788600435820160c48101906024016115a8565b9050610a54575b6107a46004358201606481019060240161154c565b9390506107b084611534565b936107be60405195866114e0565b8085526107cd601f1991611534565b0160005b8181106109c757505060005b6107f26004358401606481019060240161154c565b905081101561096c5761081a816108146004358601606481019060240161154c565b90611597565b6102a0813603126101035760405190610832826114a6565b8035825260208101356001600160a01b03811681036101035760208301526040810135604083015260608101356060830152608081013560ff8116810361010357608083015260a081013560a083015260c081013560c083015260e081013560e083015261010080820135908301523661013f82011215610103576040516108b9816114c3565b8036610220840111610103576101208301905b6102208401821061095c5750506101208301526102208101356101408301523661025f8201121561010357604051906109048261148a565b8190366102a0820111610103576102408101915b6102a08201831061094c575050506101608201526001919061093a828861163f565b52610945818761163f565b50016107dd565b8235815260209283019201610918565b81358152602091820191016108cc565b50906001929360446109846024846004350101611583565b92604051936109928561148a565b868060a01b03168452600435010135602083015260408201526109b5828561163f565b526109c0818461163f565b50016102e0565b6020906040516109d6816114a6565b60008152600083820152600060408201526000606082015260006080820152600060a0820152600060c0820152600060e082015261010060008183015260405190610a20826114c3565b3682376101208201526000610140820152604051610a3d8161148a565b6060368237610160820152828289010152016107d1565b6003546040516371e3b69760e11b8152600480358401604401359082015290606090829060249082906001600160a01b03165afa9081156103c557600091610e15575b506001600160a01b03811615610d78575b6001600160a01b038116610abd575b5061078f565b610acd6024836004350101611583565b610ae26004358401606481019060240161154c565b15610d6257610afc6004358501606481019060240161154c565b90610b126004358701606481019060240161154c565b80929150600019810111610d4c5760c092610b31926000190191611597565b013560c0610b4a6004358701606481019060240161154c565b939050604051947f6636f21717542329b20a12842fa9f7bce0dcac99957e06e84d752b6ead3c3efa6020870152604488600435010135604087015260018060a01b031660608601520135608084015260a083015260c082015260c081528060e081011067ffffffffffffffff60e083011117610d365760e081810160408190528251602084012061190160f01b61010085019081527f0000000000000000000000000000000000000000000000000000000000000000610102860152610122850191909152604282529290610c21906062906114e0565b015190206041610c3c600435850160c48101906024016115a8565b91909103610d0b5760209181610cb78460009401356040830135851a93601b85148015610d01575b610c6d906115db565b610c8f6fa2a8918ca85bafe22016d0b997e4df60600160ff1b038311156115db565b6040519485943591859094939260ff6060936080840197845216602083015260408201520152565b838052039060015afa156103c557600051610ce8916001600160a01b039091168015159182610cee575b505061160d565b83610ab7565b6001600160a01b03161490508580610ce1565b50601c8514610c64565b60405162461bcd60e51b815260206004820152600360248201526245333360e81b6044820152606490fd5b634e487b7160e01b600052604160045260246000fd5b634e487b7160e01b600052601160045260246000fd5b634e487b7160e01b600052603260045260246000fd5b50610d8e6004358201606481019060240161154c565b15610d62576020610d9f9101611583565b9260015b610db86004358401606481019060240161154c565b9050811015610e0e57600190610e08610ddc6004358601606481019060240161154c565b90610e016020610dfb86888060a01b038d1695898060a01b0395611597565b01611583565b161461160d565b01610da3565b5092610aa8565b90506060813d606011610e6d575b81610e30606093836114e0565b8101031261010357805160ff811603610103576020810151906001600160a01b0382168203610103576040015161ffff8116036101035784610a97565b3d9150610e23565b60405162461bcd60e51b815260206004820152600360248201526245333160e81b6044820152606490fd5b90506001600160a01b03610eba6004358401602401611583565b16148461076d565b506040810135831a601c146106fa565b60405162461bcd60e51b815260206004820152600360248201526245323960e81b6044820152606490fd5b602090604051610f0c8161148a565b6000815260008382015260606040820152828286010152016102d5565b33600052600560205260ff60406000205416600014610f4b574360085561028d565b60075480151580610f66575b610f619150611483565b61028d565b50600854908101809111610d4c57610f61904311610f57565b60405162461bcd60e51b81526020600482015260016024820152600560fc1b6044820152606490fd5b90506020813d602011610fdb575b81610fc3602093836114e0565b81010312610103575180151581036101035781610280565b3d9150610fb6565b3461010357602036600319011261010357610ffc61143b565b6000546001600160a01b0391906110169083163314611483565b16611022811515611451565b600380546001600160a01b031916821790557fde70db82992f3b5945b07240bf25df8bfb1babe9c38ee3fe8c762b6d22abfbf4600080a2005b346101035760203660031901126101035761107461143b565b6000546001600160a01b03919061108e9083163314611483565b1661109a811515611451565b600280546001600160a01b031916821790557f785d41793514b3ebf4040425a4c015cd5ec08f504609b712fdd80d01b68debc6600080a2005b34610103576000366003190112610103576000546040516001600160a01b039091168152602090f35b34610103576000366003190112610103576001546001600160a01b036111253382841614611483565b6bffffffffffffffffffffffff60a01b8092166001556000549133908316176000553391167f8be0079c531659141344cd1fd0a4f28419497f9722a3daafe3b4186f6b6457e0600080a3005b34610103576000366003190112610103576020600654604051908152f35b34610103576040366003190112610103576111a861143b565b602435908115801591828403610103576000546001600160a01b0391906111d29083163314611483565b16926111df841515611451565b806112bc575b1561124557506000828152600560205260409020805460ff191660011790556006546000198114610d4c577f5afe4db7a7f6fb62654cf58aa1c5b48bf792e80667fd0480625d1e5d52744937916001602092016006555b604051908152a2005b806112a4575b611279575b60207f5afe4db7a7f6fb62654cf58aa1c5b48bf792e80667fd0480625d1e5d527449379161123c565b816000526005602052604060002060ff1981541690556006548015610d4c5760001901600655611250565b5081600052600560205260ff6040600020541661124b565b5082600052600560205260ff60406000205416156111e5565b34610103576000366003190112610103576112fb60018060a01b03600054163314611483565b60405162461bcd60e51b815260206004820152600360248201526208a62760eb1b6044820152606490fd5b34610103576000366003190112610103576002546040516001600160a01b039091168152602090f35b346101035760203660031901126101035761137560018060a01b03600054163314611483565b600435600755005b346101035760003660031901126101035760206040517f00000000000000000000000000000000000000000000000000000000000000008152f35b34610103576020366003190112610103576001600160a01b036113d961143b565b166000526005602052602060ff604060002054166040519015158152f35b34610103576000366003190112610103576004546040516001600160a01b039091168152602090f35b34610103576000366003190112610103576020906008548152f35b600435906001600160a01b038216820361010357565b1561145857565b60405162461bcd60e51b815260206004820152600360248201526204530360ec1b6044820152606490fd5b156112fb57565b6060810190811067ffffffffffffffff821117610d3657604052565b610180810190811067ffffffffffffffff821117610d3657604052565b610100810190811067ffffffffffffffff821117610d3657604052565b90601f8019910116810190811067ffffffffffffffff821117610d3657604052565b1561150957565b60405162461bcd60e51b815260206004820152600360248201526208a64760eb1b6044820152606490fd5b67ffffffffffffffff8111610d365760051b60200190565b903590601e1981360301821215610103570180359067ffffffffffffffff821161010357602001916102a082023603831361010357565b356001600160a01b03811681036101035790565b9190811015610d62576102a0020190565b903590601e1981360301821215610103570180359067ffffffffffffffff82116101035760200191813603831361010357565b156115e257565b60405162461bcd60e51b815260206004820152600360248201526204533360ec1b6044820152606490fd5b1561161457565b60405162461bcd60e51b8152602060048201526003602482015262114ccd60ea1b6044820152606490fd5b8051821015610d625760209160051b01019056fea26469706673582212205a323b87fe88b13bc0fe7d2265d2b33884b3db2c7c719113b770ded664738eaa64736f6c63430008180033",
  "linkReferences": {},
  "deployedLinkReferences": {}
}