{
  "_format": "hh-sol-artifact-1",
  "contractName": "DatumPaymentVault",
  "sourceName": "contracts/DatumPaymentVault.sol",
  "abi": [
    {
      "inputs": [],
      "stateMutability": "nonpayable",
      "type": "constructor"
    },
    {
      "inputs": [
        {
          "internalType": "address",
          "name": "owner",
          "type": "address"
        }
      ],
      "name": "OwnableInvalidOwner",
      "type": "error"
    },
    {
      "inputs": [
        {
          "internalType": "address",
          "name": "account",
          "type": "address"
        }
      ],
      "name": "OwnableUnauthorizedAccount",
      "type": "error"
    },
    {
      "inputs": [],
      "name": "ReentrancyGuardReentrantCall",
      "type": "error"
    },
    {
      "anonymous": false,
      "inputs": [
        {
          "indexed": true,
          "internalType": "address",
          "name": "previousOwner",
          "type": "address"
        },
        {
          "indexed": true,
          "internalType": "address",
          "name": "newOwner",
          "type": "address"
        }
      ],
      "name": "OwnershipTransferStarted",
      "type": "event"
    },
    {
      "anonymous": false,
      "inputs": [
        {
          "indexed": true,
          "internalType": "address",
          "name": "previousOwner",
          "type": "address"
        },
        {
          "indexed": true,
          "internalType": "address",
          "name": "newOwner",
          "type": "address"
        }
      ],
      "name": "OwnershipTransferred",
      "type": "event"
    },
    {
      "anonymous": false,
      "inputs": [
        {
          "indexed": true,
          "internalType": "address",
          "name": "recipient",
          "type": "address"
        },
        {
          "indexed": false,
          "internalType": "uint256",
          "name": "amount",
          "type": "uint256"
        }
      ],
      "name": "ProtocolWithdrawal",
      "type": "event"
    },
    {
      "anonymous": false,
      "inputs": [
        {
          "indexed": true,
          "internalType": "address",
          "name": "publisher",
          "type": "address"
        },
        {
          "indexed": false,
          "internalType": "uint256",
          "name": "amount",
          "type": "uint256"
        }
      ],
      "name": "PublisherWithdrawal",
      "type": "event"
    },
    {
      "anonymous": false,
      "inputs": [
        {
          "indexed": true,
          "internalType": "address",
          "name": "publisher",
          "type": "address"
        },
        {
          "indexed": true,
          "internalType": "address",
          "name": "user",
          "type": "address"
        },
        {
          "indexed": false,
          "internalType": "uint256",
          "name": "total",
          "type": "uint256"
        }
      ],
      "name": "SettlementCredited",
      "type": "event"
    },
    {
      "anonymous": false,
      "inputs": [
        {
          "indexed": true,
          "internalType": "address",
          "name": "user",
          "type": "address"
        },
        {
          "indexed": false,
          "internalType": "uint256",
          "name": "amount",
          "type": "uint256"
        }
      ],
      "name": "UserWithdrawal",
      "type": "event"
    },
    {
      "inputs": [],
      "name": "acceptOwnership",
      "outputs": [],
      "stateMutability": "nonpayable",
      "type": "function"
    },
    {
      "inputs": [
        {
          "internalType": "address",
          "name": "publisher",
          "type": "address"
        },
        {
          "internalType": "uint256",
          "name": "pubAmount",
          "type": "uint256"
        },
        {
          "internalType": "address",
          "name": "user",
          "type": "address"
        },
        {
          "internalType": "uint256",
          "name": "userAmount",
          "type": "uint256"
        },
        {
          "internalType": "uint256",
          "name": "protocolAmount",
          "type": "uint256"
        }
      ],
      "name": "creditSettlement",
      "outputs": [],
      "stateMutability": "nonpayable",
      "type": "function"
    },
    {
      "inputs": [],
      "name": "owner",
      "outputs": [
        {
          "internalType": "address",
          "name": "",
          "type": "address"
        }
      ],
      "stateMutability": "view",
      "type": "function"
    },
    {
      "inputs": [],
      "name": "pendingOwner",
      "outputs": [
        {
          "internalType": "address",
          "name": "",
          "type": "address"
        }
      ],
      "stateMutability": "view",
      "type": "function"
    },
    {
      "inputs": [],
      "name": "protocolBalance",
      "outputs": [
        {
          "internalType": "uint256",
          "name": "",
          "type": "uint256"
        }
      ],
      "stateMutability": "view",
      "type": "function"
    },
    {
      "inputs": [
        {
          "internalType": "address",
          "name": "",
          "type": "address"
        }
      ],
      "name": "publisherBalance",
      "outputs": [
        {
          "internalType": "uint256",
          "name": "",
          "type": "uint256"
        }
      ],
      "stateMutability": "view",
      "type": "function"
    },
    {
      "inputs": [],
      "name": "renounceOwnership",
      "outputs": [],
      "stateMutability": "nonpayable",
      "type": "function"
    },
    {
      "inputs": [
        {
          "internalType": "address",
          "name": "addr",
          "type": "address"
        }
      ],
      "name": "setSettlement",
      "outputs": [],
      "stateMutability": "nonpayable",
      "type": "function"
    },
    {
      "inputs": [],
      "name": "settlement",
      "outputs": [
        {
          "internalType": "address",
          "name": "",
          "type": "address"
        }
      ],
      "stateMutability": "view",
      "type": "function"
    },
    {
      "inputs": [
        {
          "internalType": "address",
          "name": "newOwner",
          "type": "address"
        }
      ],
      "name": "transferOwnership",
      "outputs": [],
      "stateMutability": "nonpayable",
      "type": "function"
    },
    {
      "inputs": [
        {
          "internalType": "address",
          "name": "",
          "type": "address"
        }
      ],
      "name": "userBalance",
      "outputs": [
        {
          "internalType": "uint256",
          "name": "",
          "type": "uint256"
        }
      ],
      "stateMutability": "view",
      "type": "function"
    },
    {
      "inputs": [
        {
          "internalType": "address",
          "name": "recipient",
          "type": "address"
        }
      ],
      "name": "withdrawProtocol",
      "outputs": [],
      "stateMutability": "nonpayable",
      "type": "function"
    },
    {
      "inputs": [],
      "name": "withdrawPublisher",
      "outputs": [],
      "stateMutability": "nonpayable",
      "type": "function"
    },
    {
      "inputs": [
        {
          "internalType": "address",
          "name": "recipient",
          "type": "address"
        }
      ],
      "name": "withdrawPublisherTo",
      "outputs": [],
      "stateMutability": "nonpayable",
      "type": "function"
    },
    {
      "inputs": [],
      "name": "withdrawUser",
      "outputs": [],
      "stateMutability": "nonpayable",
      "type": "function"
    },
    {
      "inputs": [
        {
          "internalType": "address",
          "name": "recipient",
          "type": "address"
        }
      ],
      "name": "withdrawUserTo",
      "outputs": [],
      "stateMutability": "nonpayable",
      "type": "function"
    },
    {
      "stateMutability": "payable",
      "type": "receive"
    }
  ],
  "bytecode": "0x608080604052346100a55760017f9b779b17422d0df92223018b32b4d1fa46e071723d6817e2486d003becc55f0055331561008f5760018060a01b0319806001541660015560005490339082161760005560405190339060018060a01b03167f8be0079c531659141344cd1fd0a4f28419497f9722a3daafe3b4186f6b6457e0600080a3610a0a90816100ab8239f35b631e4fbdf760e01b815260006004820152602490fd5b600080fdfe608060409080825260049182361015610023575b505050361561002157600080fd5b005b600092833560e01c9283630103c92b14610717575082630a6613d8146106945782632624a57f146106215782633ed63cb914610593578263511606301461056a57826361e98db81461054b578263715018a6146104e657826379ba5097146104645782638da5cb5b1461043c5782638f4e6f37146103eb578263abcbb55f1461037a578263db96c4a41461027f57508163de45db4f14610247578163e30c39781461021e578163e988008d14610164575063f2fde38b146100e5578080610013565b34610161576020366003190112610161576100fe61074d565b6101066107ef565b6001600160a01b039081169061011d821515610768565b6101256107ef565b600180546001600160a01b031916831790558254167f38d16b8cac22d99fc7c124b9cd0de2d3fa1faef420bfe791d8c362d765e227008380a380f35b80fd5b90503461021a57602036600319011261021a576101f39061018361074d565b61018b61081b565b61019f6001600160a01b0382161515610768565b338452600360205281842054916101b783151561079a565b33855260036020528481812055518281527f61136c8a797391fcd52c5552ea96089e2814d10eb84c76d221f58761125c438260203392a2610895565b60017f9b779b17422d0df92223018b32b4d1fa46e071723d6817e2486d003becc55f005580f35b5080fd5b90503461021a578160031936011261021a5760015490516001600160a01b039091168152602090f35b90503461021a57602036600319011261021a5760209181906001600160a01b0361026f61074d565b1681526003845220549051908152f35b909150346103765760a03660031901126103765761029b61074d565b6044356001600160a01b038181169492916024359086900361037257606435916084359381600254163303610349577fc55bfffc98791580c1b9ed7ebe27f9c58b76dd1e8eeb564feebac3adaa2381e79593610340936020969361033b931698898c5260038852868c206103108382546107cc565b90558a8c528752858b206103258382546107cc565b9055610333846005546107cc565b6005556107cc565b6107cc565b9051908152a380f35b855162461bcd60e51b8152602081890152600360248201526245323560e81b6044820152606490fd5b8680fd5b8280fd5b909150346103765782600319360112610376576101f39161039961081b565b3384528160205280842054916103b083151561079a565b3385526020528381812055518181527fc7c8ab309277169a63ed070feed2a9c7de84e71be9d50f6f06c898458562561c60203392a233610895565b83346101615760203660031901126101615761040561074d565b61040d6107ef565b6001600160a01b0316610421811515610768565b6bffffffffffffffffffffffff60a01b600254161760025580f35b83823461021a578160031936011261021a57905490516001600160a01b039091168152602090f35b915034610376578260031936011261037657600154916001600160a01b039133838516036104cf5750506001600160a01b031991821660015582543392811683178455167f8be0079c531659141344cd1fd0a4f28419497f9722a3daafe3b4186f6b6457e08380a380f35b60249250519063118cdaa760e01b82523390820152fd5b83346101615780600319360112610161576104ff6107ef565b600180546001600160a01b03199081169091558154908116825581906001600160a01b03167f8be0079c531659141344cd1fd0a4f28419497f9722a3daafe3b4186f6b6457e08280a380f35b83823461021a578160031936011261021a576020906005549051908152f35b83823461021a578160031936011261021a5760025490516001600160a01b039091168152602090f35b90915034610376576020366003190112610376576101f3916105b361074d565b906105bc61081b565b6105d06001600160a01b0383161515610768565b3385528260205280852054926105e784151561079a565b3386526020528481812055518281527fc7c8ab309277169a63ed070feed2a9c7de84e71be9d50f6f06c898458562561c60203392a2610895565b83823461021a578160031936011261021a576101f39061063f61081b565b3383526003602052808320549061065782151561079a565b33845260036020528381812055518181527f61136c8a797391fcd52c5552ea96089e2814d10eb84c76d221f58761125c438260203392a233610895565b83823461021a57602036600319011261021a576101f3906106b361074d565b6106bb6107ef565b6106c361081b565b6001600160a01b0381166106d8811515610768565b7e1905bb24c703671d6398a7d030fa5f3adde8e8a4e95d68b2cea1043a16f1bf60206005549461070986151561079a565b8760055551858152a2610895565b92503461074957602036600319011261074957602093906001600160a01b0361073e61074d565b168252845220548152f35b8380fd5b600435906001600160a01b038216820361076357565b600080fd5b1561076f57565b60405162461bcd60e51b815260206004820152600360248201526204530360ec1b6044820152606490fd5b156107a157565b60405162461bcd60e51b815260206004820152600360248201526245303360e81b6044820152606490fd5b919082018092116107d957565b634e487b7160e01b600052601160045260246000fd5b6000546001600160a01b0316330361080357565b60405163118cdaa760e01b8152336004820152602490fd5b7f9b779b17422d0df92223018b32b4d1fa46e071723d6817e2486d003becc55f00600281541461084b5760029055565b604051633ee5aeb560e01b8152600490fd5b90601f8019910116810190811067ffffffffffffffff82111761087f57604052565b634e487b7160e01b600052604160045260246000fd5b610900803b610937575b50600080808094819460018060a01b03165af1903d15610931573d9067ffffffffffffffff821161091d57604051916108e2601f8201601f19166020018461085d565b825260203d92013e5b156108f257565b60405162461bcd60e51b815260206004820152600360248201526222981960e91b6044820152606490fd5b634e487b7160e01b81526041600452602490fd5b506108eb565b60206004916040519283809263b9d1d49b60e01b82525afa9081156109c857600091610996575b50821061096b573861089f565b60405162461bcd60e51b815260206004820152600360248201526208a6a760eb1b6044820152606490fd5b90506020813d6020116109c0575b816109b16020938361085d565b8101031261076357513861095e565b3d91506109a4565b6040513d6000823e3d90fdfea2646970667358221220a801f144cba4eb4505906a68bf7ca853a4a10493cf32b118c458232bfd2b6c5064736f6c63430008180033",
  "linkReferences": {},
  "deployedLinkReferences": {}
}