{
  "_format": "hh-sol-artifact-1",
  "contractName": "DatumClaimValidator",
  "sourceName": "contracts/DatumClaimValidator.sol",
  "abi": [
    {
      "inputs": [
        {
          "internalType": "address",
          "name": "_campaigns",
          "type": "address"
        },
        {
          "internalType": "address",
          "name": "_publishers",
          "type": "address"
        },
        {
          "internalType": "address",
          "name": "_pauseRegistry",
          "type": "address"
        }
      ],
      "stateMutability": "nonpayable",
      "type": "constructor"
    },
    {
      "inputs": [
        {
          "internalType": "address",
          "name": "owner",
          "type": "address"
        }
      ],
      "name": "OwnableInvalidOwner",
      "type": "error"
    },
    {
      "inputs": [
        {
          "internalType": "address",
          "name": "account",
          "type": "address"
        }
      ],
      "name": "OwnableUnauthorizedAccount",
      "type": "error"
    },
    {
      "anonymous": false,
      "inputs": [
        {
          "indexed": true,
          "internalType": "address",
          "name": "previousOwner",
          "type": "address"
        },
        {
          "indexed": true,
          "internalType": "address",
          "name": "newOwner",
          "type": "address"
        }
      ],
      "name": "OwnershipTransferStarted",
      "type": "event"
    },
    {
      "anonymous": false,
      "inputs": [
        {
          "indexed": true,
          "internalType": "address",
          "name": "previousOwner",
          "type": "address"
        },
        {
          "indexed": true,
          "internalType": "address",
          "name": "newOwner",
          "type": "address"
        }
      ],
      "name": "OwnershipTransferred",
      "type": "event"
    },
    {
      "inputs": [],
      "name": "acceptOwnership",
      "outputs": [],
      "stateMutability": "nonpayable",
      "type": "function"
    },
    {
      "inputs": [],
      "name": "campaignValidator",
      "outputs": [
        {
          "internalType": "address",
          "name": "",
          "type": "address"
        }
      ],
      "stateMutability": "view",
      "type": "function"
    },
    {
      "inputs": [],
      "name": "campaigns",
      "outputs": [
        {
          "internalType": "address",
          "name": "",
          "type": "address"
        }
      ],
      "stateMutability": "view",
      "type": "function"
    },
    {
      "inputs": [],
      "name": "clickRegistry",
      "outputs": [
        {
          "internalType": "address",
          "name": "",
          "type": "address"
        }
      ],
      "stateMutability": "view",
      "type": "function"
    },
    {
      "inputs": [],
      "name": "owner",
      "outputs": [
        {
          "internalType": "address",
          "name": "",
          "type": "address"
        }
      ],
      "stateMutability": "view",
      "type": "function"
    },
    {
      "inputs": [],
      "name": "pauseRegistry",
      "outputs": [
        {
          "internalType": "address",
          "name": "",
          "type": "address"
        }
      ],
      "stateMutability": "view",
      "type": "function"
    },
    {
      "inputs": [],
      "name": "pendingOwner",
      "outputs": [
        {
          "internalType": "address",
          "name": "",
          "type": "address"
        }
      ],
      "stateMutability": "view",
      "type": "function"
    },
    {
      "inputs": [],
      "name": "publishers",
      "outputs": [
        {
          "internalType": "address",
          "name": "",
          "type": "address"
        }
      ],
      "stateMutability": "view",
      "type": "function"
    },
    {
      "inputs": [],
      "name": "renounceOwnership",
      "outputs": [],
      "stateMutability": "nonpayable",
      "type": "function"
    },
    {
      "inputs": [
        {
          "internalType": "address",
          "name": "addr",
          "type": "address"
        }
      ],
      "name": "setCampaignValidator",
      "outputs": [],
      "stateMutability": "nonpayable",
      "type": "function"
    },
    {
      "inputs": [
        {
          "internalType": "address",
          "name": "addr",
          "type": "address"
        }
      ],
      "name": "setCampaigns",
      "outputs": [],
      "stateMutability": "nonpayable",
      "type": "function"
    },
    {
      "inputs": [
        {
          "internalType": "address",
          "name": "addr",
          "type": "address"
        }
      ],
      "name": "setClickRegistry",
      "outputs": [],
      "stateMutability": "nonpayable",
      "type": "function"
    },
    {
      "inputs": [
        {
          "internalType": "address",
          "name": "addr",
          "type": "address"
        }
      ],
      "name": "setPublishers",
      "outputs": [],
      "stateMutability": "nonpayable",
      "type": "function"
    },
    {
      "inputs": [
        {
          "internalType": "address",
          "name": "addr",
          "type": "address"
        }
      ],
      "name": "setZKVerifier",
      "outputs": [],
      "stateMutability": "nonpayable",
      "type": "function"
    },
    {
      "inputs": [
        {
          "internalType": "address",
          "name": "newOwner",
          "type": "address"
        }
      ],
      "name": "transferOwnership",
      "outputs": [],
      "stateMutability": "nonpayable",
      "type": "function"
    },
    {
      "inputs": [
        {
          "components": [
            {
              "internalType": "uint256",
              "name": "campaignId",
              "type": "uint256"
            },
            {
              "internalType": "address",
              "name": "publisher",
              "type": "address"
            },
            {
              "internalType": "uint256",
              "name": "eventCount",
              "type": "uint256"
            },
            {
              "internalType": "uint256",
              "name": "ratePlanck",
              "type": "uint256"
            },
            {
              "internalType": "uint8",
              "name": "actionType",
              "type": "uint8"
            },
            {
              "internalType": "bytes32",
              "name": "clickSessionHash",
              "type": "bytes32"
            },
            {
              "internalType": "uint256",
              "name": "nonce",
              "type": "uint256"
            },
            {
              "internalType": "bytes32",
              "name": "previousClaimHash",
              "type": "bytes32"
            },
            {
              "internalType": "bytes32",
              "name": "claimHash",
              "type": "bytes32"
            },
            {
              "internalType": "bytes32[8]",
              "name": "zkProof",
              "type": "bytes32[8]"
            },
            {
              "internalType": "bytes32",
              "name": "nullifier",
              "type": "bytes32"
            },
            {
              "internalType": "bytes32[3]",
              "name": "actionSig",
              "type": "bytes32[3]"
            }
          ],
          "internalType": "struct IDatumSettlement.Claim",
          "name": "claim",
          "type": "tuple"
        },
        {
          "internalType": "address",
          "name": "user",
          "type": "address"
        },
        {
          "internalType": "uint256",
          "name": "expectedNonce",
          "type": "uint256"
        },
        {
          "internalType": "bytes32",
          "name": "expectedPrevHash",
          "type": "bytes32"
        }
      ],
      "name": "validateClaim",
      "outputs": [
        {
          "internalType": "bool",
          "name": "",
          "type": "bool"
        },
        {
          "internalType": "uint8",
          "name": "",
          "type": "uint8"
        },
        {
          "internalType": "uint16",
          "name": "",
          "type": "uint16"
        },
        {
          "internalType": "bytes32",
          "name": "",
          "type": "bytes32"
        }
      ],
      "stateMutability": "view",
      "type": "function"
    },
    {
      "inputs": [],
      "name": "zkVerifier",
      "outputs": [
        {
          "internalType": "address",
          "name": "",
          "type": "address"
        }
      ],
      "stateMutability": "view",
      "type": "function"
    }
  ],
  "bytecode": "0x6080346200013557601f6200138e38819003918201601f19168301916001600160401b038311848410176200013a5780849260609460405283398101031262000135576200004d8162000150565b620000696040620000616020850162000150565b930162000150565b33156200011c57600180546001600160a01b031990811690915560008054338184168117835592946001600160a01b0393849384938416907f8be0079c531659141344cd1fd0a4f28419497f9722a3daafe3b4186f6b6457e09080a31694620000d486151562000165565b1691620000e383151562000165565b1692620000f284151562000165565b82600254161760025581600354161760035560045416176004556040516111f59081620001998239f35b604051631e4fbdf760e01b815260006004820152602490fd5b600080fd5b634e487b7160e01b600052604160045260246000fd5b51906001600160a01b03821682036200013557565b156200016d57565b60405162461bcd60e51b815260206004820152600360248201526204530360ec1b6044820152606490fdfe6080604090808252600436101561001557600080fd5b600091823560e01c91826316f114aa1461052d575081631c82732d146105045781631e9313dc146104db578163395ecfcc146104865781633f36f47f1461043c5781636a924307146103f2578163715018a6146103a357816379ba5097146103395781638b157ea4146103105781638da5cb5b146102e8578163a66bc4cc14610293578163c509034614610249578163cb5697f914610220578163d6df096d146101f7578163e30c3978146101ce578163ea8dd34314610162575063f2fde38b146100df57600080fd5b3461015f57602036600319011261015f576100f8610552565b60018060a01b036101268184541691338314936101148561059f565b169261012184151561056d565b61059f565b600180546001600160a01b031916831790557f38d16b8cac22d99fc7c124b9cd0de2d3fa1faef420bfe791d8c362d765e227008380a380f35b80fd5b823461015f57366003190161030081126101ca576102a01361015f576102a435906001600160a01b038216820361015f57608060ff61ffff856101ac6102e4356102c43588610718565b94929590918451961515875216602086015216908301526060820152f35b5080fd5b9050346101ca57816003193601126101ca5760015490516001600160a01b039091168152602090f35b9050346101ca57816003193601126101ca5760055490516001600160a01b039091168152602090f35b9050346101ca57816003193601126101ca5760025490516001600160a01b039091168152602090f35b823461015f57602036600319011261015f57610263610552565b81546001600160a01b03919061027c908316331461059f565b166001600160601b0360a01b600554161760055580f35b823461015f57602036600319011261015f576102ad610552565b81546001600160a01b0391906102c6908316331461059f565b166102d281151561056d565b6001600160601b0360a01b600254161760025580f35b9050346101ca57816003193601126101ca57905490516001600160a01b039091168152602090f35b9050346101ca57816003193601126101ca5760065490516001600160a01b039091168152602090f35b823461015f578060031936011261015f576001546001600160a01b03610362338284161461059f565b6001600160a01b031991821660015582543392811683178455167f8be0079c531659141344cd1fd0a4f28419497f9722a3daafe3b4186f6b6457e08380a380f35b823461015f578060031936011261015f57546103c9906001600160a01b0316331461059f565b5162461bcd60e51b815260206004820152600360248201526208a62760eb1b6044820152606490fd5b823461015f57602036600319011261015f5761040c610552565b81546001600160a01b039190610425908316331461059f565b166001600160601b0360a01b600754161760075580f35b823461015f57602036600319011261015f57610456610552565b81546001600160a01b03919061046f908316331461059f565b166001600160601b0360a01b600654161760065580f35b823461015f57602036600319011261015f576104a0610552565b81546001600160a01b0391906104b9908316331461059f565b166104c581151561056d565b6001600160601b0360a01b600354161760035580f35b9050346101ca57816003193601126101ca5760075490516001600160a01b039091168152602090f35b9050346101ca57816003193601126101ca5760045490516001600160a01b039091168152602090f35b8390346101ca57816003193601126101ca576003546001600160a01b03168152602090f35b600435906001600160a01b038216820361056857565b600080fd5b1561057457565b60405162461bcd60e51b815260206004820152600360248201526204530360ec1b6044820152606490fd5b156105a657565b60405162461bcd60e51b815260206004820152600360248201526208a62760eb1b6044820152606490fd5b6060810190811067ffffffffffffffff8211176105ed57604052565b634e487b7160e01b600052604160045260246000fd5b6080810190811067ffffffffffffffff8211176105ed57604052565b610120810190811067ffffffffffffffff8211176105ed57604052565b90601f8019910116810190811067ffffffffffffffff8211176105ed57604052565b3d15610699573d9067ffffffffffffffff82116105ed576040519161068d601f8201601f19166020018461063c565b82523d6000602084013e565b606090565b519060ff8216820361056857565b51906001600160a01b038216820361056857565b90816020910312610568575180151581036105685790565b919082519283825260005b848110610704575050826000602080949584010152601f8019910116010190565b6020818301810151848301820152016106e3565b9060ff608435166084350361056857600260ff60843516116111ae576044351561119d57620186a06044351161118c5760018060a01b0360025416916000806040516371e3b69760e11b602082015260043560248201526024815261077c816105d1565b602081519101865afa9361078e61065e565b9480611180575b1561115557606085805181010312610568576107b36020860161069e565b60606107c1604088016106ac565b9601519561ffff87168703610568576001600160a01b03169060ff166000190161114157801561107f576024356001600160a01b03811690819003610568570361106c576006546001600160a01b031680610eee575b505b6003546001600160a01b039081169060243590811690819003610568576000918291604051602081019163fbac395160e01b835260248201526024815261085f816105d1565b51915afa61086b61065e565b9015908115610ee1575b8115610ec7575b50610eb457600080604051602081019063f2653f2d60e01b8252600435602482015260ff608435166044820152604481526108b681610603565b5190875afa926108c461065e565b93158015610ea9575b610e955760a084805181010312610568576108ea6020850161069e565b506080840151936001600160a01b03906109069060a0016106ac565b16938015610e805760643511610e6c5760c43503610e595760c435600103610e3f575060e435610e2d575b604051602081019060043582526001600160601b03198060243560601b1660408301528360601b1660548201526044356068820152606435608882015260ff60f81b60843560f81b1660a882015260a43560a982015260c43560c982015260e43560e982015260e981526109a48161061f565b61090091823b15610e2257506020906109d99260405180809581946363effb4360e11b835286600484015260248301906106d8565b03915afa908115610b2757600091610df0575b50925b836101043503610ddd5760ff608435161580610dc9575b610c4b575b50600160ff6084351614610b63575b50600260ff6084351614610a34575b506001926000929190565b8015610b525760405160208101907f19457468657265756d205369676e6564204d6573736167653a0a333200000000825283603c820152603c8152610a78816105d1565b5190206102643560ff6102843516601b81141580610b47575b610b33577f7fffffffffffffffffffffffffffffff5d576e7357a4501ddfe92f46681b20a08211610b335760209260009260809260405192835285830152610244356040830152606082015282805260015afa15610b27576000516001600160a01b0316801591908215610b1c575b5050610b0c5738610a29565b5050600090601790600090600090565b141590503880610b00565b6040513d6000823e3d90fd5b505050505050600090601790600090600090565b50601c811415610a91565b505050600090601790600090600090565b6007546001600160a01b0316908115610c385760a43515610c385760405163178a876d60e21b602082019081526001600160a01b039092166024820152600435604482015260a43560648083019190915281529160a083019167ffffffffffffffff8311848410176105ed57600093849360405251915afa610be361065e565b9015908115610c2b575b8115610c10575b50610bff5738610a1a565b505050600090601690600090600090565b610c249150602080825183010191016106c0565b1538610bf4565b9050602081511090610bed565b5050505050600090601690600090600090565b600080916040516020810190637c83952b60e11b8252600435602482015260248152610c76816105d1565b51915afa610c8261065e565b81610dbb575b81610da1575b50610c9a575b38610a0b565b6000805b60088110610d82575b5015610d485760008060018060a01b03600554166040516101008061012460208401378152610cd58161061f565b604051610d2481610cff602082019463bdb4025b60e01b86526080602484015260a48301906106d8565b8a6044830152610224356064830152604435608483015203601f19810183528261063c565b51915afa610d3061065e565b9015908115610d75575b8115610d5a575b5015610c94575b50505050600090601090600090600090565b610d6e9150602080825183010191016106c0565b1538610d41565b9050602081511090610d3a565b6101248160051b0135610d9757600101610c9e565b5050600138610ca7565b610db59150602080825183010191016106c0565b38610c8e565b905060208151101590610c88565b506005546001600160a01b03161515610a06565b5050505050600090600a90600090600090565b90506020813d602011610e1a575b81610e0b6020938361063c565b810103126105685751386109ec565b3d9150610dfe565b9150519020926109ef565b50505050600090600890600090600090565b60e435146109315750505050600090600990600090600090565b5050505050600090600790600090600090565b505050505050600090600690600090600090565b50505050505050600090600390600090600090565b505050505050600090600390600090600090565b5060a08451106108cd565b5050505050600090600b90600090600090565b610edb9150602080825183010191016106c0565b3861087c565b9050602081511090610875565b60008060405160208101906343b0971f60e11b8252600435602482015260248152610f18816105d1565b5190845afa610f2561065e565b8161105e575b81611044575b5015610817576000806040516020810190630f0a4bad60e21b8252600435602482015260248152610f61816105d1565b5190885afa610f6e61065e565b9080611038575b610f80575b50610817565b6020818051810103126105685760009182916001600160a01b0390610fa7906020016106ac565b166040516020810191634a0a7e5160e11b83526004356024830152604482015260448152610fd481610603565b51915afa610fe061065e565b901590811561102b575b8115611010575b50610ffd573880610f7a565b5050505050600090600f90600090600090565b6110249150602080825183010191016106c0565b1538610ff1565b9050602081511090610fea565b50602081511015610f75565b6110589150602080825183010191016106c0565b38610f31565b905060208151101590610f2b565b5050505050600090600590600090600090565b506024356001600160a01b0381169081900361056857801561112d576003546040516331dcbbdb60e21b6020820190815260248083019490945292815260009283926001600160a01b0316916110d4816105d1565b51915afa6110e061065e565b8161111f575b81611105575b5015610819575050505050600090600f90600090600090565b6111199150602080825183010191016106c0565b386110ec565b9050602081511015906110e6565b505050505050600090600590600090600090565b505050505050600090600490600090600090565b60405162461bcd60e51b815260206004820152600360248201526245303160e81b6044820152606490fd5b50606085511015610795565b505050600090601190600090600090565b505050600090600290600090600090565b50505060009060159060009060009056fea264697066735822122083cae32dad5e01d592d5ea15a9f4dea9832fbdb41505ffb0fd51a99153d9a77864736f6c63430008180033",
  "linkReferences": {},
  "deployedLinkReferences": {}
}